{
  "address": "0x4d1D8B56EBeD04BC71203D47aED0122DD26FC642",
  "abi": [
    {
      "inputs": [
        {
          "internalType": "contract IUniswapV3Factory",
          "name": "factory_",
          "type": "address"
        }
      ],
      "stateMutability": "nonpayable",
      "type": "constructor"
    },
    {
      "anonymous": false,
      "inputs": [
        {
          "indexed": true,
          "internalType": "address",
          "name": "owner",
          "type": "address"
        },
        {
          "indexed": true,
          "internalType": "address",
          "name": "spender",
          "type": "address"
        },
        {
          "indexed": false,
          "internalType": "uint256",
          "name": "value",
          "type": "uint256"
        }
      ],
      "name": "Approval",
      "type": "event"
    },
    {
      "anonymous": false,
      "inputs": [
        {
          "indexed": false,
          "internalType": "uint8",
          "name": "version",
          "type": "uint8"
        }
      ],
      "name": "Initialized",
      "type": "event"
    },
    {
      "anonymous": false,
      "inputs": [
        {
          "indexed": true,
          "internalType": "address",
          "name": "user",
          "type": "address"
        },
        {
          "indexed": false,
          "internalType": "uint256",
          "name": "burnAmount0",
          "type": "uint256"
        },
        {
          "indexed": false,
          "internalType": "uint256",
          "name": "burnAmount1",
          "type": "uint256"
        }
      ],
      "name": "LPBurned",
      "type": "event"
    },
    {
      "anonymous": false,
      "inputs": [
        {
          "indexed": false,
          "internalType": "uint24[]",
          "name": "feeTiers",
          "type": "uint24[]"
        }
      ],
      "name": "LogAddPools",
      "type": "event"
    },
    {
      "anonymous": false,
      "inputs": [
        {
          "indexed": false,
          "internalType": "address[]",
          "name": "routers",
          "type": "address[]"
        }
      ],
      "name": "LogBlacklistRouters",
      "type": "event"
    },
    {
      "anonymous": false,
      "inputs": [
        {
          "indexed": true,
          "internalType": "address",
          "name": "receiver",
          "type": "address"
        },
        {
          "indexed": false,
          "internalType": "uint256",
          "name": "burnAmount",
          "type": "uint256"
        },
        {
          "indexed": false,
          "internalType": "uint256",
          "name": "amount0Out",
          "type": "uint256"
        },
        {
          "indexed": false,
          "internalType": "uint256",
          "name": "amount1Out",
          "type": "uint256"
        }
      ],
      "name": "LogBurn",
      "type": "event"
    },
    {
      "anonymous": false,
      "inputs": [
        {
          "indexed": false,
          "internalType": "uint256",
          "name": "fee0",
          "type": "uint256"
        },
        {
          "indexed": false,
          "internalType": "uint256",
          "name": "fee1",
          "type": "uint256"
        }
      ],
      "name": "LogCollectedFees",
      "type": "event"
    },
    {
      "anonymous": false,
      "inputs": [
        {
          "indexed": true,
          "internalType": "address",
          "name": "receiver",
          "type": "address"
        },
        {
          "indexed": false,
          "internalType": "uint256",
          "name": "mintAmount",
          "type": "uint256"
        },
        {
          "indexed": false,
          "internalType": "uint256",
          "name": "amount0In",
          "type": "uint256"
        },
        {
          "indexed": false,
          "internalType": "uint256",
          "name": "amount1In",
          "type": "uint256"
        }
      ],
      "name": "LogMint",
      "type": "event"
    },
    {
      "anonymous": false,
      "inputs": [
        {
          "components": [
            {
              "components": [
                {
                  "internalType": "uint128",
                  "name": "liquidity",
                  "type": "uint128"
                },
                {
                  "components": [
                    {
                      "internalType": "int24",
                      "name": "lowerTick",
                      "type": "int24"
                    },
                    {
                      "internalType": "int24",
                      "name": "upperTick",
                      "type": "int24"
                    },
                    {
                      "internalType": "uint24",
                      "name": "feeTier",
                      "type": "uint24"
                    }
                  ],
                  "internalType": "struct Range",
                  "name": "range",
                  "type": "tuple"
                }
              ],
              "internalType": "struct PositionLiquidity[]",
              "name": "burns",
              "type": "tuple[]"
            },
            {
              "components": [
                {
                  "internalType": "uint128",
                  "name": "liquidity",
                  "type": "uint128"
                },
                {
                  "components": [
                    {
                      "internalType": "int24",
                      "name": "lowerTick",
                      "type": "int24"
                    },
                    {
                      "internalType": "int24",
                      "name": "upperTick",
                      "type": "int24"
                    },
                    {
                      "internalType": "uint24",
                      "name": "feeTier",
                      "type": "uint24"
                    }
                  ],
                  "internalType": "struct Range",
                  "name": "range",
                  "type": "tuple"
                }
              ],
              "internalType": "struct PositionLiquidity[]",
              "name": "mints",
              "type": "tuple[]"
            },
            {
              "components": [
                {
                  "internalType": "bytes",
                  "name": "payload",
                  "type": "bytes"
                },
                {
                  "internalType": "address",
                  "name": "router",
                  "type": "address"
                },
                {
                  "internalType": "uint256",
                  "name": "amountIn",
                  "type": "uint256"
                },
                {
                  "internalType": "uint256",
                  "name": "expectedMinReturn",
                  "type": "uint256"
                },
                {
                  "internalType": "bool",
                  "name": "zeroForOne",
                  "type": "bool"
                }
              ],
              "internalType": "struct SwapPayload",
              "name": "swap",
              "type": "tuple"
            },
            {
              "internalType": "uint256",
              "name": "minBurn0",
              "type": "uint256"
            },
            {
              "internalType": "uint256",
              "name": "minBurn1",
              "type": "uint256"
            },
            {
              "internalType": "uint256",
              "name": "minDeposit0",
              "type": "uint256"
            },
            {
              "internalType": "uint256",
              "name": "minDeposit1",
              "type": "uint256"
            }
          ],
          "indexed": false,
          "internalType": "struct Rebalance",
          "name": "rebalanceParams",
          "type": "tuple"
        },
        {
          "indexed": false,
          "internalType": "uint256",
          "name": "swapDelta0",
          "type": "uint256"
        },
        {
          "indexed": false,
          "internalType": "uint256",
          "name": "swapDelta1",
          "type": "uint256"
        }
      ],
      "name": "LogRebalance",
      "type": "event"
    },
    {
      "anonymous": false,
      "inputs": [
        {
          "indexed": false,
          "internalType": "address[]",
          "name": "pools",
          "type": "address[]"
        }
      ],
      "name": "LogRemovePools",
      "type": "event"
    },
    {
      "anonymous": false,
      "inputs": [
        {
          "indexed": false,
          "internalType": "address",
          "name": "minter",
          "type": "address"
        }
      ],
      "name": "LogRestrictedMint",
      "type": "event"
    },
    {
      "anonymous": false,
      "inputs": [
        {
          "indexed": false,
          "internalType": "uint256",
          "name": "init0",
          "type": "uint256"
        },
        {
          "indexed": false,
          "internalType": "uint256",
          "name": "init1",
          "type": "uint256"
        }
      ],
      "name": "LogSetInits",
      "type": "event"
    },
    {
      "anonymous": false,
      "inputs": [
        {
          "indexed": false,
          "internalType": "address",
          "name": "newManager",
          "type": "address"
        }
      ],
      "name": "LogSetManager",
      "type": "event"
    },
    {
      "anonymous": false,
      "inputs": [
        {
          "indexed": false,
          "internalType": "uint16",
          "name": "managerFeeBPS",
          "type": "uint16"
        }
      ],
      "name": "LogSetManagerFeeBPS",
      "type": "event"
    },
    {
      "anonymous": false,
      "inputs": [
        {
          "indexed": false,
          "internalType": "address[]",
          "name": "routers",
          "type": "address[]"
        }
      ],
      "name": "LogWhitelistRouters",
      "type": "event"
    },
    {
      "anonymous": false,
      "inputs": [
        {
          "indexed": false,
          "internalType": "uint256",
          "name": "amount0",
          "type": "uint256"
        },
        {
          "indexed": false,
          "internalType": "uint256",
          "name": "amount1",
          "type": "uint256"
        }
      ],
      "name": "LogWithdrawManagerBalance",
      "type": "event"
    },
    {
      "anonymous": false,
      "inputs": [
        {
          "indexed": true,
          "internalType": "address",
          "name": "previousOwner",
          "type": "address"
        },
        {
          "indexed": true,
          "internalType": "address",
          "name": "newOwner",
          "type": "address"
        }
      ],
      "name": "OwnershipTransferred",
      "type": "event"
    },
    {
      "anonymous": false,
      "inputs": [
        {
          "indexed": true,
          "internalType": "address",
          "name": "from",
          "type": "address"
        },
        {
          "indexed": true,
          "internalType": "address",
          "name": "to",
          "type": "address"
        },
        {
          "indexed": false,
          "internalType": "uint256",
          "name": "value",
          "type": "uint256"
        }
      ],
      "name": "Transfer",
      "type": "event"
    },
    {
      "inputs": [
        {
          "internalType": "uint24[]",
          "name": "feeTiers_",
          "type": "uint24[]"
        }
      ],
      "name": "addPools",
      "outputs": [],
      "stateMutability": "nonpayable",
      "type": "function"
    },
    {
      "inputs": [
        {
          "internalType": "address",
          "name": "owner",
          "type": "address"
        },
        {
          "internalType": "address",
          "name": "spender",
          "type": "address"
        }
      ],
      "name": "allowance",
      "outputs": [
        {
          "internalType": "uint256",
          "name": "",
          "type": "uint256"
        }
      ],
      "stateMutability": "view",
      "type": "function"
    },
    {
      "inputs": [
        {
          "internalType": "address",
          "name": "spender",
          "type": "address"
        },
        {
          "internalType": "uint256",
          "name": "amount",
          "type": "uint256"
        }
      ],
      "name": "approve",
      "outputs": [
        {
          "internalType": "bool",
          "name": "",
          "type": "bool"
        }
      ],
      "stateMutability": "nonpayable",
      "type": "function"
    },
    {
      "inputs": [
        {
          "internalType": "address",
          "name": "account",
          "type": "address"
        }
      ],
      "name": "balanceOf",
      "outputs": [
        {
          "internalType": "uint256",
          "name": "",
          "type": "uint256"
        }
      ],
      "stateMutability": "view",
      "type": "function"
    },
    {
      "inputs": [
        {
          "internalType": "address[]",
          "name": "routers_",
          "type": "address[]"
        }
      ],
      "name": "blacklistRouters",
      "outputs": [],
      "stateMutability": "nonpayable",
      "type": "function"
    },
    {
      "inputs": [
        {
          "internalType": "uint256",
          "name": "burnAmount_",
          "type": "uint256"
        },
        {
          "internalType": "address",
          "name": "receiver_",
          "type": "address"
        }
      ],
      "name": "burn",
      "outputs": [
        {
          "internalType": "uint256",
          "name": "amount0",
          "type": "uint256"
        },
        {
          "internalType": "uint256",
          "name": "amount1",
          "type": "uint256"
        }
      ],
      "stateMutability": "nonpayable",
      "type": "function"
    },
    {
      "inputs": [],
      "name": "collectFees",
      "outputs": [],
      "stateMutability": "nonpayable",
      "type": "function"
    },
    {
      "inputs": [],
      "name": "decimals",
      "outputs": [
        {
          "internalType": "uint8",
          "name": "",
          "type": "uint8"
        }
      ],
      "stateMutability": "view",
      "type": "function"
    },
    {
      "inputs": [
        {
          "internalType": "address",
          "name": "spender",
          "type": "address"
        },
        {
          "internalType": "uint256",
          "name": "subtractedValue",
          "type": "uint256"
        }
      ],
      "name": "decreaseAllowance",
      "outputs": [
        {
          "internalType": "bool",
          "name": "",
          "type": "bool"
        }
      ],
      "stateMutability": "nonpayable",
      "type": "function"
    },
    {
      "inputs": [],
      "name": "factory",
      "outputs": [
        {
          "internalType": "contract IUniswapV3Factory",
          "name": "",
          "type": "address"
        }
      ],
      "stateMutability": "view",
      "type": "function"
    },
    {
      "inputs": [],
      "name": "feeManager",
      "outputs": [
        {
          "internalType": "contract IFeeManager",
          "name": "",
          "type": "address"
        }
      ],
      "stateMutability": "view",
      "type": "function"
    },
    {
      "inputs": [],
      "name": "getPools",
      "outputs": [
        {
          "internalType": "address[]",
          "name": "",
          "type": "address[]"
        }
      ],
      "stateMutability": "view",
      "type": "function"
    },
    {
      "inputs": [],
      "name": "getRanges",
      "outputs": [
        {
          "components": [
            {
              "internalType": "int24",
              "name": "lowerTick",
              "type": "int24"
            },
            {
              "internalType": "int24",
              "name": "upperTick",
              "type": "int24"
            },
            {
              "internalType": "uint24",
              "name": "feeTier",
              "type": "uint24"
            }
          ],
          "internalType": "struct Range[]",
          "name": "",
          "type": "tuple[]"
        }
      ],
      "stateMutability": "view",
      "type": "function"
    },
    {
      "inputs": [],
      "name": "getRouters",
      "outputs": [
        {
          "internalType": "address[]",
          "name": "",
          "type": "address[]"
        }
      ],
      "stateMutability": "view",
      "type": "function"
    },
    {
      "inputs": [
        {
          "internalType": "address",
          "name": "spender",
          "type": "address"
        },
        {
          "internalType": "uint256",
          "name": "addedValue",
          "type": "uint256"
        }
      ],
      "name": "increaseAllowance",
      "outputs": [
        {
          "internalType": "bool",
          "name": "",
          "type": "bool"
        }
      ],
      "stateMutability": "nonpayable",
      "type": "function"
    },
    {
      "inputs": [],
      "name": "init0",
      "outputs": [
        {
          "internalType": "uint256",
          "name": "",
          "type": "uint256"
        }
      ],
      "stateMutability": "view",
      "type": "function"
    },
    {
      "inputs": [],
      "name": "init1",
      "outputs": [
        {
          "internalType": "uint256",
          "name": "",
          "type": "uint256"
        }
      ],
      "stateMutability": "view",
      "type": "function"
    },
    {
      "inputs": [
        {
          "internalType": "string",
          "name": "name_",
          "type": "string"
        },
        {
          "internalType": "string",
          "name": "symbol_",
          "type": "string"
        },
        {
          "components": [
            {
              "internalType": "uint24[]",
              "name": "feeTiers",
              "type": "uint24[]"
            },
            {
              "internalType": "address",
              "name": "token0",
              "type": "address"
            },
            {
              "internalType": "address",
              "name": "token1",
              "type": "address"
            },
            {
              "internalType": "address",
              "name": "owner",
              "type": "address"
            },
            {
              "internalType": "uint256",
              "name": "init0",
              "type": "uint256"
            },
            {
              "internalType": "uint256",
              "name": "init1",
              "type": "uint256"
            },
            {
              "internalType": "address",
              "name": "manager",
              "type": "address"
            },
            {
              "internalType": "address[]",
              "name": "routers",
              "type": "address[]"
            }
          ],
          "internalType": "struct InitializePayload",
          "name": "params_",
          "type": "tuple"
        }
      ],
      "name": "initialize",
      "outputs": [],
      "stateMutability": "nonpayable",
      "type": "function"
    },
    {
      "inputs": [],
      "name": "manager",
      "outputs": [
        {
          "internalType": "address",
          "name": "",
          "type": "address"
        }
      ],
      "stateMutability": "view",
      "type": "function"
    },
    {
      "inputs": [],
      "name": "managerBalance0",
      "outputs": [
        {
          "internalType": "uint256",
          "name": "",
          "type": "uint256"
        }
      ],
      "stateMutability": "view",
      "type": "function"
    },
    {
      "inputs": [],
      "name": "managerBalance1",
      "outputs": [
        {
          "internalType": "uint256",
          "name": "",
          "type": "uint256"
        }
      ],
      "stateMutability": "view",
      "type": "function"
    },
    {
      "inputs": [],
      "name": "managerFeeBPS",
      "outputs": [
        {
          "internalType": "uint16",
          "name": "",
          "type": "uint16"
        }
      ],
      "stateMutability": "view",
      "type": "function"
    },
    {
      "inputs": [
        {
          "internalType": "uint256",
          "name": "mintAmount_",
          "type": "uint256"
        },
        {
          "internalType": "address",
          "name": "receiver_",
          "type": "address"
        }
      ],
      "name": "mint",
      "outputs": [
        {
          "internalType": "uint256",
          "name": "amount0",
          "type": "uint256"
        },
        {
          "internalType": "uint256",
          "name": "amount1",
          "type": "uint256"
        }
      ],
      "stateMutability": "nonpayable",
      "type": "function"
    },
    {
      "inputs": [],
      "name": "name",
      "outputs": [
        {
          "internalType": "string",
          "name": "",
          "type": "string"
        }
      ],
      "stateMutability": "view",
      "type": "function"
    },
    {
      "inputs": [],
      "name": "owner",
      "outputs": [
        {
          "internalType": "address",
          "name": "",
          "type": "address"
        }
      ],
      "stateMutability": "view",
      "type": "function"
    },
    {
      "inputs": [
        {
          "components": [
            {
              "components": [
                {
                  "internalType": "uint128",
                  "name": "liquidity",
                  "type": "uint128"
                },
                {
                  "components": [
                    {
                      "internalType": "int24",
                      "name": "lowerTick",
                      "type": "int24"
                    },
                    {
                      "internalType": "int24",
                      "name": "upperTick",
                      "type": "int24"
                    },
                    {
                      "internalType": "uint24",
                      "name": "feeTier",
                      "type": "uint24"
                    }
                  ],
                  "internalType": "struct Range",
                  "name": "range",
                  "type": "tuple"
                }
              ],
              "internalType": "struct PositionLiquidity[]",
              "name": "burns",
              "type": "tuple[]"
            },
            {
              "components": [
                {
                  "internalType": "uint128",
                  "name": "liquidity",
                  "type": "uint128"
                },
                {
                  "components": [
                    {
                      "internalType": "int24",
                      "name": "lowerTick",
                      "type": "int24"
                    },
                    {
                      "internalType": "int24",
                      "name": "upperTick",
                      "type": "int24"
                    },
                    {
                      "internalType": "uint24",
                      "name": "feeTier",
                      "type": "uint24"
                    }
                  ],
                  "internalType": "struct Range",
                  "name": "range",
                  "type": "tuple"
                }
              ],
              "internalType": "struct PositionLiquidity[]",
              "name": "mints",
              "type": "tuple[]"
            },
            {
              "components": [
                {
                  "internalType": "bytes",
                  "name": "payload",
                  "type": "bytes"
                },
                {
                  "internalType": "address",
                  "name": "router",
                  "type": "address"
                },
                {
                  "internalType": "uint256",
                  "name": "amountIn",
                  "type": "uint256"
                },
                {
                  "internalType": "uint256",
                  "name": "expectedMinReturn",
                  "type": "uint256"
                },
                {
                  "internalType": "bool",
                  "name": "zeroForOne",
                  "type": "bool"
                }
              ],
              "internalType": "struct SwapPayload",
              "name": "swap",
              "type": "tuple"
            },
            {
              "internalType": "uint256",
              "name": "minBurn0",
              "type": "uint256"
            },
            {
              "internalType": "uint256",
              "name": "minBurn1",
              "type": "uint256"
            },
            {
              "internalType": "uint256",
              "name": "minDeposit0",
              "type": "uint256"
            },
            {
              "internalType": "uint256",
              "name": "minDeposit1",
              "type": "uint256"
            }
          ],
          "internalType": "struct Rebalance",
          "name": "rebalanceParams_",
          "type": "tuple"
        }
      ],
      "name": "rebalance",
      "outputs": [],
      "stateMutability": "nonpayable",
      "type": "function"
    },
    {
      "inputs": [
        {
          "internalType": "address[]",
          "name": "pools_",
          "type": "address[]"
        }
      ],
      "name": "removePools",
      "outputs": [],
      "stateMutability": "nonpayable",
      "type": "function"
    },
    {
      "inputs": [],
      "name": "renounceOwnership",
      "outputs": [],
      "stateMutability": "nonpayable",
      "type": "function"
    },
    {
      "inputs": [],
      "name": "restrictedMint",
      "outputs": [
        {
          "internalType": "address",
          "name": "",
          "type": "address"
        }
      ],
      "stateMutability": "view",
      "type": "function"
    },
    {
      "inputs": [
        {
          "internalType": "address",
          "name": "feeManager_",
          "type": "address"
        }
      ],
      "name": "setFeeManager",
      "outputs": [],
      "stateMutability": "nonpayable",
      "type": "function"
    },
    {
      "inputs": [
        {
          "internalType": "uint256",
          "name": "init0_",
          "type": "uint256"
        },
        {
          "internalType": "uint256",
          "name": "init1_",
          "type": "uint256"
        }
      ],
      "name": "setInits",
      "outputs": [],
      "stateMutability": "nonpayable",
      "type": "function"
    },
    {
      "inputs": [
        {
          "internalType": "address",
          "name": "manager_",
          "type": "address"
        }
      ],
      "name": "setManager",
      "outputs": [],
      "stateMutability": "nonpayable",
      "type": "function"
    },
    {
      "inputs": [
        {
          "internalType": "uint16",
          "name": "managerFeeBPS_",
          "type": "uint16"
        }
      ],
      "name": "setManagerFeeBPS",
      "outputs": [],
      "stateMutability": "nonpayable",
      "type": "function"
    },
    {
      "inputs": [
        {
          "internalType": "address",
          "name": "minter_",
          "type": "address"
        }
      ],
      "name": "setRestrictedMint",
      "outputs": [],
      "stateMutability": "nonpayable",
      "type": "function"
    },
    {
      "inputs": [],
      "name": "symbol",
      "outputs": [
        {
          "internalType": "string",
          "name": "",
          "type": "string"
        }
      ],
      "stateMutability": "view",
      "type": "function"
    },
    {
      "inputs": [],
      "name": "token0",
      "outputs": [
        {
          "internalType": "contract IERC20",
          "name": "",
          "type": "address"
        }
      ],
      "stateMutability": "view",
      "type": "function"
    },
    {
      "inputs": [],
      "name": "token1",
      "outputs": [
        {
          "internalType": "contract IERC20",
          "name": "",
          "type": "address"
        }
      ],
      "stateMutability": "view",
      "type": "function"
    },
    {
      "inputs": [],
      "name": "totalSupply",
      "outputs": [
        {
          "internalType": "uint256",
          "name": "",
          "type": "uint256"
        }
      ],
      "stateMutability": "view",
      "type": "function"
    },
    {
      "inputs": [
        {
          "internalType": "address",
          "name": "to",
          "type": "address"
        },
        {
          "internalType": "uint256",
          "name": "amount",
          "type": "uint256"
        }
      ],
      "name": "transfer",
      "outputs": [
        {
          "internalType": "bool",
          "name": "",
          "type": "bool"
        }
      ],
      "stateMutability": "nonpayable",
      "type": "function"
    },
    {
      "inputs": [
        {
          "internalType": "address",
          "name": "from",
          "type": "address"
        },
        {
          "internalType": "address",
          "name": "to",
          "type": "address"
        },
        {
          "internalType": "uint256",
          "name": "amount",
          "type": "uint256"
        }
      ],
      "name": "transferFrom",
      "outputs": [
        {
          "internalType": "bool",
          "name": "",
          "type": "bool"
        }
      ],
      "stateMutability": "nonpayable",
      "type": "function"
    },
    {
      "inputs": [
        {
          "internalType": "address",
          "name": "newOwner",
          "type": "address"
        }
      ],
      "name": "transferOwnership",
      "outputs": [],
      "stateMutability": "nonpayable",
      "type": "function"
    },
    {
      "inputs": [
        {
          "internalType": "uint256",
          "name": "amount0Owed_",
          "type": "uint256"
        },
        {
          "internalType": "uint256",
          "name": "amount1Owed_",
          "type": "uint256"
        },
        {
          "internalType": "bytes",
          "name": "",
          "type": "bytes"
        }
      ],
      "name": "uniswapV3MintCallback",
      "outputs": [],
      "stateMutability": "nonpayable",
      "type": "function"
    },
    {
      "inputs": [
        {
          "internalType": "address[]",
          "name": "routers_",
          "type": "address[]"
        }
      ],
      "name": "whitelistRouters",
      "outputs": [],
      "stateMutability": "nonpayable",
      "type": "function"
    },
    {
      "inputs": [],
      "name": "withdrawManagerBalance",
      "outputs": [],
      "stateMutability": "nonpayable",
      "type": "function"
    }
  ],
  "transactionHash": "0xd528acb67abb096625bd3d78406f0ac3047c385c1430c3a4440957e0f1f63158",
  "args": [
    "0x33128a8fC17869897dcE68Ed026d694621f6FDfD"
  ],
  "numDeployments": 1,
  "solcInputHash": "70ca74c682a8b20359c7ebf37dfb3798",
  "bytecode": "0x60a06040523480156200001157600080fd5b5060405162005f1238038062005f12833981016040819052620000349162000088565b806001600160a01b038116620000755760405162461bcd60e51b81526020600482015260026024820152612d2360f11b604482015260640160405180910390fd5b6001600160a01b031660805250620000ba565b6000602082840312156200009b57600080fd5b81516001600160a01b0381168114620000b357600080fd5b9392505050565b608051615e0b620001076000396000818161046c01528181610c6c015281816118a30152818161208c015281816122ed01528181612ee20152818161371a0152613a9e0152615e0b6000f3fe608060405234801561001057600080fd5b50600436106102345760003560e01c80638712e49711610131578063ccdf7a02116100b3578063ccdf7a02146104a9578063d0ebdbe7146104ca578063d0fb0203146104dd578063d21220a7146104f0578063d348799714610503578063dd62ed3e14610516578063e4fadbce14610529578063f2eb3e341461053c578063f2fde38b14610545578063f88c31ce14610558578063fcd3533c1461056057600080fd5b80638712e497146103d05780638da5cb5b146103e357806392e49dfd146103eb57806394bf804d146103fe57806395d89b4114610426578063a457c2d71461042e578063a5ff1dc714610441578063a9059cbb14610454578063c45a015514610467578063c7a4ae171461048e578063c8796572146104a157600080fd5b806342fb9d44116101ba57806342fb9d441461031b578063472d35b9146103245780634794c84a14610337578063481c6a751461034a5780634b1641401461035d578063617a341914610370578063673a2a1f1461038557806370a082311461039a578063715018a6146103ad5780637ecd6717146103b557806386ac1cb9146103bd57600080fd5b8063065756db1461023957806306fdde0314610255578063095ea7b31461026a5780630d6e66311461028d5780630dfe1681146102a257806314b80630146102c257806318160ddd146102cb57806323b872dd146102d3578063313ce567146102e657806339509351146102f55780633f7b613514610308575b600080fd5b61024260ce5481565b6040519081526020015b60405180910390f35b61025d610573565b60405161024c9190614df4565b61027d610278366004614e47565b610605565b604051901515815260200161024c565b6102a061029b366004614e73565b61061f565b005b60c9546102b5906001600160a01b031681565b60405161024c9190614e9d565b61024260cb5481565b606754610242565b61027d6102e1366004614eb1565b6106ad565b6040516012815260200161024c565b61027d610303366004614e47565b6106d3565b6102a0610316366004614ef2565b6106f5565b61024260cf5481565b6102a0610332366004614e73565b6107df565b6102a0610345366004614f14565b610857565b60d0546102b5906001600160a01b031681565b6102a061036b366004614f83565b6108e7565b610378610a07565b60405161024c9190614feb565b61038d610a87565b60405161024c9190615039565b6102426103a8366004614e73565b610b36565b6102a0610b51565b6102a0610881565b6102a06103cb366004614f83565b610b93565b6102a06103de36600461507a565b610c13565b6102b5611e0d565b6102a06103f9366004614f83565b611e1c565b61041161040c3660046150b4565b611f28565b6040805192835260208301919091520161024c565b61025d612525565b61027d61043c366004614e47565b612534565b6102a061044f366004614f83565b6125ba565b61027d610462366004614e47565b6125f7565b6102b57f000000000000000000000000000000000000000000000000000000000000000081565b60d1546102b5906001600160a01b031681565b6102a0612605565b60cd546104b79061ffff1681565b60405161ffff909116815260200161024c565b6102a06104d8366004614e73565b612723565b60d2546102b5906001600160a01b031681565b60ca546102b5906001600160a01b031681565b6102a0610511366004615125565b6127cc565b610242610524366004615177565b6127dc565b6102a06105373660046151a5565b612807565b61024260cc5481565b6102a0610553366004614e73565b612c7b565b61038d612d1b565b61041161056e3660046150b4565b612dc3565b60606068805461058290615240565b80601f01602080910402602001604051908101604052809291908181526020018280546105ae90615240565b80156105fb5780601f106105d0576101008083540402835291602001916105fb565b820191906000526020600020905b8154815290600101906020018083116105de57829003601f168201915b5050505050905090565b60003361061381858561333c565b60019150505b92915050565b33610628611e0d565b6001600160a01b0316146106575760405162461bcd60e51b815260040161064e9061527a565b60405180910390fd5b60d180546001600160a01b0319166001600160a01b0383161790556040517f6b7f177e85ebe3aabaf1339b9a445ac908b2bef730372180fa280958e2414ee3906106a2908390614e9d565b60405180910390a150565b6000336106bb858285613460565b6106c68585856134d4565b60019150505b9392505050565b6000336106138185856106e683836127dc565b6106f091906152c5565b61333c565b60008211806107045750600081115b6107205760405162461bcd60e51b815260040161064e906152dd565b606754156107405760405162461bcd60e51b815260040161064e906152f8565b60d1546000906001600160a01b0316156107655760d1546001600160a01b031661076d565b61076d611e0d565b9050336001600160a01b038216146107975760405162461bcd60e51b815260040161064e90615314565b60cb83905560cc82905560408051848152602081018490527ff8966e026442bb0adb17149a6d44e394d2b6eb3c5cc1dc71b3c0698000548ae6910160405180910390a1505050565b336107e8611e0d565b6001600160a01b03161461080e5760405162461bcd60e51b815260040161064e9061527a565b6002609754036108305760405162461bcd60e51b815260040161064e9061532f565b60d280546001600160a01b0319166001600160a01b03929092169190911790556001609755565b60d0546001600160a01b031633146108815760405162461bcd60e51b815260040161064e90615366565b6002609754036108a35760405162461bcd60e51b815260040161064e9061532f565b600260975560405162461bcd60e51b815261064e90600401602080825260029082015261119160f21b604082015260600190565b60405180910390a1506001609755565b336108f0611e0d565b6001600160a01b0316146109165760405162461bcd60e51b815260040161064e9061527a565b60005b818110156109c95761095383838381811061093657610936615382565b905060200201602081019061094b9190614e73565b60d49061389d565b6109845760405162461bcd60e51b815260206004820152600260248201526104e560f41b604482015260640161064e565b6109b683838381811061099957610999615382565b90506020020160208101906109ae9190614e73565b60d4906138bf565b50806109c181615398565b915050610919565b507f024551cce253d1a442bfe99dae530a00a492fb8c67c4456cce3c9d23eecd396182826040516109fb9291906153b1565b60405180910390a15050565b606060d3805480602002602001604051908101604052809291908181526020016000905b82821015610a7e5760008481526020908190206040805160608101825291850154600281810b845263010000008204900b83850152600160301b900462ffffff1690820152825260019092019101610a2b565b50505050905090565b60606000610a9560d46138d4565b90506000816001600160401b03811115610ab157610ab16153ff565b604051908082528060200260200182016040528015610ada578160200160208202803683370190505b50905060005b82811015610b2f57610af360d4826138de565b828281518110610b0557610b05615382565b6001600160a01b039092166020928302919091019091015280610b2781615398565b915050610ae0565b5092915050565b6001600160a01b031660009081526065602052604090205490565b33610b5a611e0d565b6001600160a01b031614610b805760405162461bcd60e51b815260040161064e9061527a565b610b8a60006138ea565b565b6001609755565b33610b9c611e0d565b6001600160a01b031614610bc25760405162461bcd60e51b815260040161064e9061527a565b60c95460ca54610be291849184916001600160a01b039081169116613a8f565b7f1b402611d70c7735d942445aaa3ebbf878149bece6b797870b44a581c5f7f4c982826040516109fb929190615426565b60d0546001600160a01b03163314610c3d5760405162461bcd60e51b815260040161064e90615366565b600260975403610c5f5760405162461bcd60e51b815260040161064e9061532f565b600260975560c95460ca547f0000000000000000000000000000000000000000000000000000000000000000916001600160a01b039081169116610ca1612605565b610ca9614cce565b60005b610cb68680615465565b90508110156111955760006001600160a01b038616631698ee828686610cdc8b80615465565b87818110610cec57610cec615382565b610d039260809182020190810191506060016154ae565b6040518463ffffffff1660e01b8152600401610d21939291906154cb565b602060405180830381865afa158015610d3e573d6000803e3d6000fd5b505050506040513d601f19601f82011682018060405250810190610d6291906154f3565b90506000735d990284af2C5Eb37349949185F3F416885a5AfC635f49415b8330610d8c8c80615465565b88818110610d9c57610d9c615382565b610db5926040608090920201908101915060200161551f565b610dbf8d80615465565b89818110610dcf57610dcf615382565b610de8926060608090920201908101915060400161551f565b6040518563ffffffff1660e01b8152600401610e07949392919061553c565b602060405180830381865af4158015610e24573d6000803e3d6000fd5b505050506040513d601f19601f82011682018060405250810190610e489190615580565b9050806001600160801b0316600003610e62575050611183565b60006001600160801b03610e768a80615465565b86818110610e8657610e86615382565b610e9c926020608090920201908101915061559d565b6001600160801b031603610eb1575080610ee4565b610ebb8980615465565b85818110610ecb57610ecb615382565b610ee1926020608090920201908101915061559d565b90505b6000610f5684610ef48c80615465565b88818110610f0457610f04615382565b610f1d926040608090920201908101915060200161551f565b610f278d80615465565b89818110610f3757610f37615382565b610f50926060608090920201908101915060400161551f565b85613bdf565b9050826001600160801b0316826001600160801b03160361111f57600080735d990284af2C5Eb37349949185F3F416885a5AfC630c3c0bfc60d3610f9a8f80615465565b8b818110610faa57610faa615382565b9050608002016020016040518363ffffffff1660e01b8152600401610fd09291906155fe565b6040805180830381865af4158015610fec573d6000803e3d6000fd5b505050506040513d601f19601f820116820180604052508101906110109190615687565b915091508161104a5760405162461bcd60e51b815260040161064e9060208082526004908201526352524e4560e01b604082015260600190565b60d3805461105a906001906156b5565b8154811061106a5761106a615382565b9060005260206000200160d3828154811061108757611087615382565b6000918252602090912082549101805462ffffff92831662ffffff19821681178355845463010000009081900485160265ffffffffffff1990921617178082559254600160301b9081900490921690910262ffffff60301b1990921691909117905560d38054806110fa576110fa6156cc565b600082815260209020810160001990810180546001600160481b031916905501905550505b8051865187906111309083906152c5565b90525060208082015190870180516111499083906152c5565b90525060408082015190870180516111629083906152c5565b905250606080820151908701805161117b9083906152c5565b905250505050505b8061118d81615398565b915050610cac565b508051606086013511156111d05760405162461bcd60e51b8152602060048201526002602482015261042360f41b604482015260640161064e565b84608001358160200151101561120d5760405162461bcd60e51b8152602060048201526002602482015261423160f01b604482015260640161064e565b600081604001511180611224575060008160600151115b1561126a5761123b81604001518260600151613ca3565b604080820151606083015182519182526020820152600080516020615d96833981519152910160405180910390a15b50600061127a60408601866156e2565b604001351115611792576112ad61129460408601866156e2565b6112a5906040810190602001614e73565b60d69061389d565b6112de5760405162461bcd60e51b8152602060048201526002602482015261272960f11b604482015260640161064e565b6040516370a0823160e01b81526000906001600160a01b038416906370a082319061130d903090600401614e9d565b602060405180830381865afa15801561132a573d6000803e3d6000fd5b505050506040513d601f19601f8201168201806040525081019061134e9190615702565b90506000826001600160a01b03166370a08231306040518263ffffffff1660e01b815260040161137e9190614e9d565b602060405180830381865afa15801561139b573d6000803e3d6000fd5b505050506040513d601f19601f820116820180604052508101906113bf9190615702565b90506113f46113d160408801886156e2565b6113e2906040810190602001614e73565b6001600160a01b038616906000613d0e565b61142761140460408801886156e2565b611415906040810190602001614e73565b6001600160a01b038516906000613d0e565b61145961143760408801886156e2565b611448906040810190602001614e73565b6001600160a01b0386169084613d0e565b61148b61146960408801886156e2565b61147a906040810190602001614e73565b6001600160a01b0385169083613d0e565b600061149a60408801886156e2565b6114ab906040810190602001614e73565b6001600160a01b03166114c160408901896156e2565b6114cb908061571b565b6040516114d9929190615761565b6000604051808303816000865af19150503d8060008114611516576040519150601f19603f3d011682016040523d82523d6000602084013e61151b565b606091505b50509050806115515760405162461bcd60e51b8152602060048201526002602482015261534360f01b604482015260640161064e565b6040516370a0823160e01b81526000906001600160a01b038716906370a0823190611580903090600401614e9d565b602060405180830381865afa15801561159d573d6000803e3d6000fd5b505050506040513d601f19601f820116820180604052508101906115c19190615702565b90506000856001600160a01b03166370a08231306040518263ffffffff1660e01b81526004016115f19190614e9d565b602060405180830381865afa15801561160e573d6000803e3d6000fd5b505050506040513d601f19601f820116820180604052508101906116329190615702565b905061164160408a018a6156e2565b6116529060a081019060800161577c565b156116d45761166460408a018a6156e2565b6116729060600135856152c5565b811015801561169b575061168960408a018a6156e2565b6116979060400135866156b5565b8210155b6116b75760405162461bcd60e51b815260040161064e90615799565b6116c182866156b5565b91506116cd84826156b5565b905061174d565b6116e160408a018a6156e2565b6116ef9060600135866152c5565b8210158015611718575061170660408a018a6156e2565b6117149060400135856156b5565b8110155b6117345760405162461bcd60e51b815260040161064e90615799565b61173e85836156b5565b915061174a81856156b5565b90505b7fab3abe7e2ad787892344ed4ada44aad53c7d53e9d6b5ee91f20bd30ed39540b7898383604051611780939291906159c1565b60405180910390a150505050506117cf565b7fab3abe7e2ad787892344ed4ada44aad53c7d53e9d6b5ee91f20bd30ed39540b7846000806040516117c6939291906159c1565b60405180910390a15b60008060005b6117e26020880188615465565b9050811015611c3d576000735d990284af2C5Eb37349949185F3F416885a5AfC630c3c0bfc60d361181660208c018c615465565b8681811061182657611826615382565b9050608002016020016040518363ffffffff1660e01b815260040161184c9291906155fe565b6040805180830381865af4158015611868573d6000803e3d6000fd5b505050506040513d601f19601f8201168201806040525081019061188c9190615687565b5060c95460ca549192506000916001600160a01b037f0000000000000000000000000000000000000000000000000000000000000000811692631698ee829290821691166118dd60208e018e615465565b888181106118ed576118ed615382565b6119049260809182020190810191506060016154ae565b6040518463ffffffff1660e01b8152600401611922939291906154cb565b602060405180830381865afa15801561193f573d6000803e3d6000fd5b505050506040513d601f19601f8201168201806040525081019061196391906154f3565b905081611af0576001600160a01b0381166119a65760405162461bcd60e51b815260206004820152600360248201526204e55560ec1b604482015260640161064e565b6119b160d48261389d565b6119cd5760405162461bcd60e51b815260040161064e906159e6565b734e203e39e78fBd8F013e8c6696F95C9Ac936D3AB636b018820826119f560208d018d615465565b87818110611a0557611a05615382565b9050608002016020016040518363ffffffff1660e01b8152600401611a2b929190615a01565b602060405180830381865af4158015611a48573d6000803e3d6000fd5b505050506040513d601f19601f82011682018060405250810190611a6c9190615a1e565b611a9e5760405162461bcd60e51b815260206004820152600360248201526252545360e81b604482015260640161064e565b60d3611aad60208b018b615465565b85818110611abd57611abd615382565b8354600181018555600094855260209485902060809092029390930193909301929091019050611aed8282615a3b565b50505b6000806001600160a01b038316633c8a7d8d30611b1060208f018f615465565b89818110611b2057611b20615382565b611b39926040608090920201908101915060200161551f565b8e8060200190611b499190615465565b8a818110611b5957611b59615382565b611b72926060608090920201908101915060400161551f565b8f8060200190611b829190615465565b8b818110611b9257611b92615382565b611ba8926020608090920201908101915061559d565b6040518563ffffffff1660e01b8152600401611bc79493929190615ac2565b60408051808303816000875af1158015611be5573d6000803e3d6000fd5b505050506040513d601f19601f82011682018060405250810190611c099190615b04565b9092509050611c1882886152c5565b9650611c2481876152c5565b9550505050508080611c3590615398565b9150506117d5565b508560a00135821015611c775760405162461bcd60e51b8152602060048201526002602482015261044360f41b604482015260640161064e565b8560c00135811015611cb05760405162461bcd60e51b8152602060048201526002602482015261443160f01b604482015260640161064e565b60ce5460c9546040516370a0823160e01b81526001600160a01b03909116906370a0823190611ce3903090600401614e9d565b602060405180830381865afa158015611d00573d6000803e3d6000fd5b505050506040513d601f19601f82011682018060405250810190611d249190615702565b1015611d585760405162461bcd60e51b815260206004820152600360248201526204d42360ec1b604482015260640161064e565b60cf5460ca546040516370a0823160e01b81526001600160a01b03909116906370a0823190611d8b903090600401614e9d565b602060405180830381865afa158015611da8573d6000803e3d6000fd5b505050506040513d601f19601f82011682018060405250810190611dcc9190615702565b1015611e005760405162461bcd60e51b81526020600482015260036024820152624d423160e81b604482015260640161064e565b5050600160975550505050565b6033546001600160a01b031690565b33611e25611e0d565b6001600160a01b031614611e4b5760405162461bcd60e51b815260040161064e9061527a565b60005b81811015611ef657611e80838383818110611e6b57611e6b615382565b90506020020160208101906112a59190614e73565b611eb15760405162461bcd60e51b8152602060048201526002602482015261525760f01b604482015260640161064e565b611ee3838383818110611ec657611ec6615382565b9050602002016020810190611edb9190614e73565b60d6906138bf565b5080611eee81615398565b915050611e4e565b507fbe6c83115c5bf7fd07e41c6002394841bd7dc0348f3b7c58645e8950f604f5c482826040516109fb9291906153b1565b600080600260975403611f4d5760405162461bcd60e51b815260040161064e9061532f565b600260975583611f845760405162461bcd60e51b81526020600482015260026024820152614d4160f01b604482015260640161064e565b60d1546001600160a01b03161580611fa6575060d1546001600160a01b031633145b611fc25760405162461bcd60e51b815260040161064e90615314565b306000611fce60675490565b9050801515611fdb612605565b801561214357738554331A6e80456f41C3b117e3aDdf90344a33b66383d7ba9f6040518060a0016040528060d3805480602002602001604051908101604052809291908181526020016000905b8282101561207b5760008481526020908190206040805160608101825291850154600281810b845263010000008204900b83850152600160301b900462ffffff1690820152825260019092019101612028565b505050908252506001600160a01b037f00000000000000000000000000000000000000000000000000000000000000008116602083015260c954811660408084019190915260ca5482166060840152908816608090920191909152516001600160e01b031960e084901b1681526120f991908b908790600401615b28565b6040805180830381865af4158015612115573d6000803e3d6000fd5b505050506040513d601f19601f820116820180604052508101906121399190615b04565b9095509350612225565b60cb5460cc54670de0b6b3a7640000919061215f8a8385613e4e565b975061216c8a8285613e4e565b96506121798a8385613e97565b60000361218557600097505b6121908a8285613e97565b60000361219c57600096505b6000826000036121ae576000196121b9565b6121b9898585613e97565b90506000826000036121cd576000196121d8565b6121d8898685613e97565b90508b8183106121e857816121ea565b825b1461221f5760405162461bcd60e51b8152602060048201526005602482015264413026413160d81b604482015260640161064e565b50505050505b61222f8688613f45565b841561224d5760c95461224d906001600160a01b031633858861401e565b831561226b5760ca5461226b906001600160a01b031633858761401e565b80156124c85760005b60d3548110156124c657600060d3828154811061229357612293615382565b60009182526020808320604080516060810182529390910154600281810b855263010000008204900b92840192909252600160301b90910462ffffff1682820181905260c95460ca549251630b4c774160e11b81529395507f00000000000000000000000000000000000000000000000000000000000000006001600160a01b0390811694631698ee82946123329493831693921691906004016154cb565b602060405180830381865afa15801561234f573d6000803e3d6000fd5b505050506040513d601f19601f8201168201806040525081019061237391906154f3565b82516020840151604051635f49415b60e01b8152929350600092735d990284af2C5Eb37349949185F3F416885a5AfC92635f49415b926123bb9287928d92909160040161553c565b602060405180830381865af41580156123d8573d6000803e3d6000fd5b505050506040513d601f19601f820116820180604052508101906123fc9190615580565b905061241a612415826001600160801b03168d89613e97565b614056565b9050806001600160801b0316600003612435575050506124b4565b82516020840151604051633c8a7d8d60e01b81526001600160a01b03851692633c8a7d8d9261246c928c9291908790600401615ac2565b60408051808303816000875af115801561248a573d6000803e3d6000fd5b505050506040513d601f19601f820116820180604052508101906124ae9190615b04565b50505050505b806124be81615398565b915050612274565b505b60408051888152602081018790529081018590526001600160a01b038716907f5f11830295067c4bcc7d02d4e3b048cd7427be50a3aeb6afc9d3d559ee64bcfa9060600160405180910390a2505060016097555090939092509050565b60606069805461058290615240565b6000338161254282866127dc565b9050838110156125a25760405162461bcd60e51b815260206004820152602560248201527f45524332303a2064656372656173656420616c6c6f77616e63652062656c6f77604482015264207a65726f60d81b606482015260840161064e565b6125af828686840361333c565b506001949350505050565b336125c3611e0d565b6001600160a01b0316146125e95760405162461bcd60e51b815260040161064e9061527a565b6125f382826140c3565b5050565b6000336106138185856134d4565b60d2546001600160a01b03166126435760405162461bcd60e51b81526020600482015260036024820152624e464d60e81b604482015260640161064e565b60675460000361264f57565b60008061265a61369b565b909250905081156126825760d25460c954612682916001600160a01b03918216911684613d0e565b80156126a55760d25460ca546126a5916001600160a01b03918216911683613d0e565b60d25460c95460ca546040516375a9f56d60e01b81526001600160a01b039283166004820152602481018690529082166044820152606481018490529116906375a9f56d90608401600060405180830381600087803b15801561270757600080fd5b505af115801561271b573d6000803e3d6000fd5b505050505050565b3361272c611e0d565b6001600160a01b0316146127525760405162461bcd60e51b815260040161064e9061527a565b6002609754036127745760405162461bcd60e51b815260040161064e9061532f565b600260975561278161393c565b60d080546001600160a01b0319166001600160a01b0383161790556040517f9b6ffaf4cbfd923495440b7f17ced9394289f001b3ead53ab67e2c3f3e39b0f5906108d7908390614e9d565b6127d68484614241565b50505050565b6001600160a01b03918216600090815260666020908152604080832093909416825291909152205490565b600061281360016142b7565b9050801561282b576000805461ff0019166101001790555b60006128378380615bdc565b90501161286c5760405162461bcd60e51b815260206004820152600360248201526213919560ea1b604482015260640161064e565b600061287e6040840160208501614e73565b6001600160a01b0316036128b95760405162461bcd60e51b8152602060048201526002602482015261054360f41b604482015260640161064e565b6128c96060830160408401614e73565b6001600160a01b03166128e26040840160208501614e73565b6001600160a01b03161061291e5760405162461bcd60e51b815260206004820152600360248201526257544f60e81b604482015260640161064e565b60006129306080840160608501614e73565b6001600160a01b03160361296c5760405162461bcd60e51b815260206004820152600360248201526227a0ad60e91b604482015260640161064e565b600061297e60e0840160c08501614e73565b6001600160a01b0316036129ba5760405162461bcd60e51b815260206004820152600360248201526226a0ad60e91b604482015260640161064e565b6000826080013511806129d1575060008260a00135115b6129ed5760405162461bcd60e51b815260040161064e906152dd565b612a6086868080601f01602080910402602001604051908101604052809392919081815260200183838082843760009201919091525050604080516020601f8a01819004810282018101909252888152925088915087908190840183828082843760009201919091525061434492505050565b612a68614375565b612a9a612a758380615bdc565b612a856040860160208701614e73565b612a956060870160408801614e73565b613a8f565b612aaa6040830160208401614e73565b60c980546001600160a01b0319166001600160a01b0392909216919091179055612ada6060830160408401614e73565b60ca80546001600160a01b0319166001600160a01b0392909216919091179055612b0f612b0a60e0840184615bdc565b6140c3565b612b27612b226080840160608501614e73565b6138ea565b612b3760e0830160c08401614e73565b60d080546001600160a01b0319166001600160a01b0392909216919091179055608082013560cb5560a082013560cc557f1b402611d70c7735d942445aaa3ebbf878149bece6b797870b44a581c5f7f4c9612b928380615bdc565b604051612ba0929190615426565b60405180910390a1604080516080840135815260a084013560208201527ff8966e026442bb0adb17149a6d44e394d2b6eb3c5cc1dc71b3c0698000548ae6910160405180910390a17f9b6ffaf4cbfd923495440b7f17ced9394289f001b3ead53ab67e2c3f3e39b0f5612c1960e0840160c08501614e73565b604051612c269190614e9d565b60405180910390a1801561271b576000805461ff0019169055604051600181527f7f26b83ff96e1f2b6a682f133852f6798a09c465da95921460cefb38474024989060200160405180910390a1505050505050565b33612c84611e0d565b6001600160a01b031614612caa5760405162461bcd60e51b815260040161064e9061527a565b6001600160a01b038116612d0f5760405162461bcd60e51b815260206004820152602660248201527f4f776e61626c653a206e6577206f776e657220697320746865207a65726f206160448201526564647265737360d01b606482015260840161064e565b612d18816138ea565b50565b60606000612d2960d66138d4565b90506000816001600160401b03811115612d4557612d456153ff565b604051908082528060200260200182016040528015612d6e578160200160208202803683370190505b50905060005b82811015610b2f57612d8760d6826138de565b828281518110612d9957612d99615382565b6001600160a01b039092166020928302919091019091015280612dbb81615398565b915050612d74565b600080600260975403612de85760405162461bcd60e51b815260040161064e9061532f565b600260975583612e1f5760405162461bcd60e51b8152602060048201526002602482015261424160f01b604482015260640161064e565b6000612e2a60675490565b905060008111612e4c5760405162461bcd60e51b815260040161064e906152f8565b612e54612605565b612e5e33866143a4565b612e66614cce565b60005b60d3548110156130b357600060d38281548110612e8857612e88615382565b60009182526020808320604080516060810182529390910154600281810b855263010000008204900b92840192909252600160301b90910462ffffff1682820181905260c95460ca549251630b4c774160e11b81529395507f00000000000000000000000000000000000000000000000000000000000000006001600160a01b0390811694631698ee8294612f279493831693921691906004016154cb565b602060405180830381865afa158015612f44573d6000803e3d6000fd5b505050506040513d601f19601f82011682018060405250810190612f6891906154f3565b82516020840151604051635f49415b60e01b8152929350600092735d990284af2C5Eb37349949185F3F416885a5AfC92635f49415b92612fb09287923092909160040161553c565b602060405180830381865af4158015612fcd573d6000803e3d6000fd5b505050506040513d601f19601f82011682018060405250810190612ff19190615580565b905061300a612415826001600160801b03168c89613e97565b9050806001600160801b0316600003613025575050506130a1565b600061303b838560000151866020015185613bdf565b905080604001518660400181815161305391906152c5565b905250606080820151908701805161306c9083906152c5565b9052508051865187906130809083906152c5565b90525060208082015190870180516130999083906152c5565b905250505050505b806130ab81615398565b915050612e69565b508186036130c7576130c760d36000614cf6565b6130d981604001518260600151613ca3565b805160ce5460c9546040516370a0823160e01b815260009392916001600160a01b0316906370a0823190613111903090600401614e9d565b602060405180830381865afa15801561312e573d6000803e3d6000fd5b505050506040513d601f19601f820116820180604052508101906131529190615702565b61315c91906156b5565b61316691906156b5565b602083015160cf5460ca546040516370a0823160e01b81529394506000936001600160a01b03909116906370a08231906131a4903090600401614e9d565b602060405180830381865afa1580156131c1573d6000803e3d6000fd5b505050506040513d601f19601f820116820180604052508101906131e59190615702565b6131ef91906156b5565b6131f991906156b5565b9050613206828986613e97565b9550613213818986613e97565b835190955061322290876152c5565b955082602001518561323491906152c5565b945085156132535760c954613253906001600160a01b031688886144ec565b84156132705760ca54613270906001600160a01b031688876144ec565b8251602080850151604080519384529183015233917fbcc5876d59ecdf66ef7ccae24657b11650939218782f8d741e78fd3c35d285a3910160405180910390a2604080840151606085015182519182526020820152600080516020615d96833981519152910160405180910390a160408051898152602081018890529081018690526001600160a01b038816907f86dacd5ce62967ebd3d915a82b22ad7e159538e50c7ba451e073fec048d9f1279060600160405180910390a250506001609755509194909350915050565b6001600160a01b03831661339e5760405162461bcd60e51b8152602060048201526024808201527f45524332303a20617070726f76652066726f6d20746865207a65726f206164646044820152637265737360e01b606482015260840161064e565b6001600160a01b0382166133ff5760405162461bcd60e51b815260206004820152602260248201527f45524332303a20617070726f766520746f20746865207a65726f206164647265604482015261737360f01b606482015260840161064e565b6001600160a01b0383811660008181526066602090815260408083209487168084529482529182902085905590518481527f8c5be1e5ebec7d5bd14f71427d1e84f3dd0314c0f7b2291e5b200ac8c7c3b925910160405180910390a3505050565b600061346c84846127dc565b905060001981146127d657818110156134c75760405162461bcd60e51b815260206004820152601d60248201527f45524332303a20696e73756666696369656e7420616c6c6f77616e6365000000604482015260640161064e565b6127d6848484840361333c565b6001600160a01b0383166135385760405162461bcd60e51b815260206004820152602560248201527f45524332303a207472616e736665722066726f6d20746865207a65726f206164604482015264647265737360d81b606482015260840161064e565b6001600160a01b03821661359a5760405162461bcd60e51b815260206004820152602360248201527f45524332303a207472616e7366657220746f20746865207a65726f206164647260448201526265737360e81b606482015260840161064e565b6135a583838361450b565b6001600160a01b0383166000908152606560205260409020548181101561361d5760405162461bcd60e51b815260206004820152602660248201527f45524332303a207472616e7366657220616d6f756e7420657863656564732062604482015265616c616e636560d01b606482015260840161064e565b6001600160a01b038085166000908152606560205260408082208585039055918516815290812080548492906136549084906152c5565b92505081905550826001600160a01b0316846001600160a01b0316600080516020615db68339815191528460405161368e91815260200190565b60405180910390a36127d6565b60008060005b60d35481101561386757600060d382815481106136c0576136c0615382565b60009182526020808320604080516060810182529390910154600281810b855263010000008204900b92840192909252600160301b90910462ffffff1682820181905260c95460ca549251630b4c774160e11b81529395507f00000000000000000000000000000000000000000000000000000000000000006001600160a01b0390811694631698ee829461375f9493831693921691906004016154cb565b602060405180830381865afa15801561377c573d6000803e3d6000fd5b505050506040513d601f19601f820116820180604052508101906137a091906154f3565b8251602084015160405163a34123a760e01b81529293506001600160a01b0384169263a34123a7926137d9929091600090600401615c25565b60408051808303816000875af11580156137f7573d6000803e3d6000fd5b505050506040513d601f19601f8201168201806040525081019061381b9190615b04565b505060008061383383856000015186602001516147da565b909250905061384282886152c5565b965061384e81876152c5565b955050505050808061385f90615398565b9150506136a1565b506138728282613ca3565b6040805183815260208101839052600080516020615d96833981519152910160405180910390a19091565b6001600160a01b038116600090815260018301602052604081205415156106cc565b60006106cc836001600160a01b038416614885565b6000610619825490565b60006106cc8383614978565b603380546001600160a01b038381166001600160a01b0319831681179093556040519116919082907f8be0079c531659141344cd1fd0a4f28419497f9722a3daafe3b4186f6b6457e090600090a35050565b60ce805460cf80546000938490559290559081156139d45760c95460d05460405163a9059cbb60e01b81526001600160a01b039283169263a9059cbb9261398a929116908690600401615c4b565b6020604051808303816000875af19250505080156139c5575060408051601f3d908101601f191682019092526139c291810190615a1e565b60015b6139d257600091506139d4565b505b8015613a595760ca5460d05460405163a9059cbb60e01b81526001600160a01b039283169263a9059cbb92613a10929116908590600401615c4b565b6020604051808303816000875af1925050508015613a4b575060408051601f3d908101601f19168201909252613a4891810190615a1e565b60015b613a5757506000613a59565b505b60408051838152602081018390527fa292e28c648da34e20b372054caab5f0359198b3b4d5f0ef9945d4616e15dc9791016109fb565b60005b83811015613bd85760007f00000000000000000000000000000000000000000000000000000000000000006001600160a01b0316631698ee828585898987818110613adf57613adf615382565b9050602002016020810190613af491906154ae565b6040518463ffffffff1660e01b8152600401613b12939291906154cb565b602060405180830381865afa158015613b2f573d6000803e3d6000fd5b505050506040513d601f19601f82011682018060405250810190613b5391906154f3565b90506001600160a01b038116613b905760405162461bcd60e51b81526020600482015260026024820152615a4160f01b604482015260640161064e565b613b9b60d48261389d565b15613bb85760405162461bcd60e51b815260040161064e906159e6565b613bc360d4826149a2565b50508080613bd090615398565b915050613a92565b5050505050565b613be7614cce565b60405163a34123a760e01b81526001600160a01b0386169063a34123a790613c1790879087908790600401615c25565b60408051808303816000875af1158015613c35573d6000803e3d6000fd5b505050506040513d601f19601f82011682018060405250810190613c599190615b04565b60208301528152600080613c6e8787876147da565b84519193509150613c7f90836156b5565b60408401526020830151613c9390826156b5565b6060840152509095945050505050565b60cd5461ffff16612710613cb78285615c64565b613cc19190615c99565b60ce6000828254613cd291906152c5565b909155506127109050613ce961ffff831684615c64565b613cf39190615c99565b60cf6000828254613d0491906152c5565b9091555050505050565b801580613d885750604051636eb1769f60e11b81523060048201526001600160a01b03838116602483015284169063dd62ed3e90604401602060405180830381865afa158015613d62573d6000803e3d6000fd5b505050506040513d601f19601f82011682018060405250810190613d869190615702565b155b613df35760405162461bcd60e51b815260206004820152603660248201527f5361666545524332303a20617070726f76652066726f6d206e6f6e2d7a65726f60448201527520746f206e6f6e2d7a65726f20616c6c6f77616e636560501b606482015260840161064e565b613e498363095ea7b360e01b8484604051602401613e12929190615c4b565b60408051601f198184030181529190526020810180516001600160e01b03166001600160e01b0319909316929092179091526149b7565b505050565b6000613e5b848484613e97565b905060008280613e6d57613e6d615c83565b84860911156106cc576000198110613e8457600080fd5b80613e8e81615398565b95945050505050565b6000808060001985870985870292508281108382030391505080600003613ed05760008411613ec557600080fd5b5082900490506106cc565b808411613edc57600080fd5b60008486880960026001871981018816978890046003810283188082028403028082028403028082028403028082028403028082028403029081029092039091026000889003889004909101858311909403939093029303949094049190911702949350505050565b6001600160a01b038216613f9b5760405162461bcd60e51b815260206004820152601f60248201527f45524332303a206d696e7420746f20746865207a65726f206164647265737300604482015260640161064e565b613fa76000838361450b565b8060676000828254613fb991906152c5565b90915550506001600160a01b03821660009081526065602052604081208054839290613fe69084906152c5565b90915550506040518181526001600160a01b03831690600090600080516020615db68339815191529060200160405180910390a35050565b6040516001600160a01b03808516602483015283166044820152606481018290526127d69085906323b872dd60e01b90608401613e12565b60006001600160801b038211156140bf5760405162461bcd60e51b815260206004820152602760248201527f53616665436173743a2076616c756520646f65736e27742066697420696e20316044820152663238206269747360c81b606482015260840161064e565b5090565b60005b8181101561420f5760c9546001600160a01b03168383838181106140ec576140ec615382565b90506020020160208101906141019190614e73565b6001600160a01b031614158015614152575060ca546001600160a01b031683838381811061413157614131615382565b90506020020160208101906141469190614e73565b6001600160a01b031614155b6141835760405162461bcd60e51b8152602060048201526002602482015261149560f21b604482015260640161064e565b614198838383818110611e6b57611e6b615382565b156141ca5760405162461bcd60e51b815260206004820152600260248201526121a960f11b604482015260640161064e565b6141fc8383838181106141df576141df615382565b90506020020160208101906141f49190614e73565b60d6906149a2565b508061420781615398565b9150506140c6565b507f102656122b5bfb41d864259a385db02d34584f3a71b6c6c35c14cbdaf9038fe682826040516109fb9291906153b1565b61424c60d43361389d565b61427d5760405162461bcd60e51b8152602060048201526002602482015261434360f01b604482015260640161064e565b811561429a5760c95461429a906001600160a01b031633846144ec565b80156125f35760ca546125f3906001600160a01b031633836144ec565b60008054610100900460ff16156142fe578160ff1660011480156142da5750303b155b6142f65760405162461bcd60e51b815260040161064e90615cbb565b506000919050565b60005460ff8084169116106143255760405162461bcd60e51b815260040161064e90615cbb565b506000805460ff191660ff92909216919091179055600190565b919050565b600054610100900460ff1661436b5760405162461bcd60e51b815260040161064e90615d09565b6125f38282614a89565b600054610100900460ff1661439c5760405162461bcd60e51b815260040161064e90615d09565b610b8a614ad7565b6001600160a01b0382166144045760405162461bcd60e51b815260206004820152602160248201527f45524332303a206275726e2066726f6d20746865207a65726f206164647265736044820152607360f81b606482015260840161064e565b6144108260008361450b565b6001600160a01b038216600090815260656020526040902054818110156144845760405162461bcd60e51b815260206004820152602260248201527f45524332303a206275726e20616d6f756e7420657863656564732062616c616e604482015261636560f01b606482015260840161064e565b6001600160a01b03831660009081526065602052604081208383039055606780548492906144b39084906156b5565b90915550506040518281526000906001600160a01b03851690600080516020615db68339815191529060200160405180910390a3505050565b613e498363a9059cbb60e01b8484604051602401613e12929190615c4b565b6001600160a01b038316156146ea5760d254604051630ad0753560e11b81526001600160a01b03909116906315a0ea6a9061454a908690600401614e9d565b600060405180830381600087803b15801561456457600080fd5b505af1158015614578573d6000803e3d6000fd5b505060d2546001600160a01b03169150634158e3e390508461469a8461459d83610b36565b6145a791906156b5565b60d260009054906101000a90046001600160a01b03166001600160a01b031663061960aa6040518163ffffffff1660e01b8152600401602060405180830381865afa1580156145fa573d6000803e3d6000fd5b505050506040513d601f19601f8201168201806040525081019061461e9190615702565b60d260009054906101000a90046001600160a01b03166001600160a01b03166386b3cd266040518163ffffffff1660e01b8152600401602060405180830381865afa158015614671573d6000803e3d6000fd5b505050506040513d601f19601f820116820180604052508101906146959190615702565b613e97565b6040518363ffffffff1660e01b81526004016146b7929190615c4b565b600060405180830381600087803b1580156146d157600080fd5b505af11580156146e5573d6000803e3d6000fd5b505050505b6001600160a01b03821615613e495760d254604051630ad0753560e11b81526001600160a01b03909116906315a0ea6a90614729908590600401614e9d565b600060405180830381600087803b15801561474357600080fd5b505af1158015614757573d6000803e3d6000fd5b505060d2546001600160a01b03169150634158e3e39050836147868461477c83610b36565b6145a791906152c5565b6040518363ffffffff1660e01b81526004016147a3929190615c4b565b600060405180830381600087803b1580156147bd57600080fd5b505af11580156147d1573d6000803e3d6000fd5b50505050505050565b6040516309e3d67b60e31b8152306004820152600283810b602483015282900b60448201526001600160801b0360648201819052608482015260009081906001600160a01b03861690634f1eb3d89060a40160408051808303816000875af115801561484a573d6000803e3d6000fd5b505050506040513d601f19601f8201168201806040525081019061486e9190615d54565b6001600160801b0391821697911695509350505050565b6000818152600183016020526040812054801561496e5760006148a96001836156b5565b85549091506000906148bd906001906156b5565b90508181146149225760008660000182815481106148dd576148dd615382565b906000526020600020015490508087600001848154811061490057614900615382565b6000918252602080832090910192909255918252600188019052604090208390555b8554869080614933576149336156cc565b600190038181906000526020600020016000905590558560010160008681526020019081526020016000206000905560019350505050610619565b6000915050610619565b600082600001828154811061498f5761498f615382565b9060005260206000200154905092915050565b60006106cc836001600160a01b038416614afe565b6000614a0c826040518060400160405280602081526020017f5361666545524332303a206c6f772d6c6576656c2063616c6c206661696c6564815250856001600160a01b0316614b4d9092919063ffffffff16565b805190915015613e495780806020019051810190614a2a9190615a1e565b613e495760405162461bcd60e51b815260206004820152602a60248201527f5361666545524332303a204552433230206f7065726174696f6e20646964206e6044820152691bdd081cdd58d8d9595960b21b606482015260840161064e565b600054610100900460ff16614ab05760405162461bcd60e51b815260040161064e90615d09565b8151614ac3906068906020850190614d14565b508051613e49906069906020840190614d14565b600054610100900460ff16610b8c5760405162461bcd60e51b815260040161064e90615d09565b6000818152600183016020526040812054614b4557508154600181810184556000848152602080822090930184905584548482528286019093526040902091909155610619565b506000610619565b6060614b5c8484600085614b64565b949350505050565b606082471015614bc55760405162461bcd60e51b815260206004820152602660248201527f416464726573733a20696e73756666696369656e742062616c616e636520666f6044820152651c8818d85b1b60d21b606482015260840161064e565b6001600160a01b0385163b614c1c5760405162461bcd60e51b815260206004820152601d60248201527f416464726573733a2063616c6c20746f206e6f6e2d636f6e7472616374000000604482015260640161064e565b600080866001600160a01b03168587604051614c389190615d83565b60006040518083038185875af1925050503d8060008114614c75576040519150601f19603f3d011682016040523d82523d6000602084013e614c7a565b606091505b5091509150614c8a828286614c95565b979650505050505050565b60608315614ca45750816106cc565b825115614cb45782518084602001fd5b8160405162461bcd60e51b815260040161064e9190614df4565b6040518060800160405280600081526020016000815260200160008152602001600081525090565b5080546000825590600052602060002090810190612d189190614d94565b828054614d2090615240565b90600052602060002090601f016020900481019282614d425760008555614d88565b82601f10614d5b57805160ff1916838001178555614d88565b82800160010185558215614d88579182015b82811115614d88578251825591602001919060010190614d6d565b506140bf929150614db3565b5b808211156140bf5780546001600160481b0319168155600101614d95565b5b808211156140bf5760008155600101614db4565b60005b83811015614de3578181015183820152602001614dcb565b838111156127d65750506000910152565b6020815260008251806020840152614e13816040850160208701614dc8565b601f01601f19169190910160400192915050565b6001600160a01b0381168114612d1857600080fd5b803561433f81614e27565b60008060408385031215614e5a57600080fd5b8235614e6581614e27565b946020939093013593505050565b600060208284031215614e8557600080fd5b81356106cc81614e27565b6001600160a01b03169052565b6001600160a01b0391909116815260200190565b600080600060608486031215614ec657600080fd5b8335614ed181614e27565b92506020840135614ee181614e27565b929592945050506040919091013590565b60008060408385031215614f0557600080fd5b50508035926020909101359150565b600060208284031215614f2657600080fd5b813561ffff811681146106cc57600080fd5b60008083601f840112614f4a57600080fd5b5081356001600160401b03811115614f6157600080fd5b6020830191508360208260051b8501011115614f7c57600080fd5b9250929050565b60008060208385031215614f9657600080fd5b82356001600160401b03811115614fac57600080fd5b614fb885828601614f38565b90969095509350505050565b805160020b8252602081015160020b602083015262ffffff60408201511660408301525050565b6020808252825182820181905260009190848201906040850190845b8181101561502d5761501a838551614fc4565b9284019260609290920191600101615007565b50909695505050505050565b6020808252825182820181905260009190848201906040850190845b8181101561502d5783516001600160a01b031683529284019291840191600101615055565b60006020828403121561508c57600080fd5b81356001600160401b038111156150a257600080fd5b820160e081850312156106cc57600080fd5b600080604083850312156150c757600080fd5b8235915060208301356150d981614e27565b809150509250929050565b60008083601f8401126150f657600080fd5b5081356001600160401b0381111561510d57600080fd5b602083019150836020828501011115614f7c57600080fd5b6000806000806060858703121561513b57600080fd5b843593506020850135925060408501356001600160401b0381111561515f57600080fd5b61516b878288016150e4565b95989497509550505050565b6000806040838503121561518a57600080fd5b823561519581614e27565b915060208301356150d981614e27565b6000806000806000606086880312156151bd57600080fd5b85356001600160401b03808211156151d457600080fd5b6151e089838a016150e4565b909750955060208801359150808211156151f957600080fd5b61520589838a016150e4565b9095509350604088013591508082111561521e57600080fd5b508601610100818903121561523257600080fd5b809150509295509295909350565b600181811c9082168061525457607f821691505b60208210810361527457634e487b7160e01b600052602260045260246000fd5b50919050565b6020808252818101527f4f776e61626c653a2063616c6c6572206973206e6f7420746865206f776e6572604082015260600190565b634e487b7160e01b600052601160045260246000fd5b600082198211156152d8576152d86152af565b500190565b6020808252600190820152604960f81b604082015260600190565b602080825260029082015261545360f01b604082015260600190565b6020808252600190820152602960f91b604082015260600190565b6020808252601f908201527f5265656e7472616e637947756172643a207265656e7472616e742063616c6c00604082015260600190565b6020808252600290820152614e4d60f01b604082015260600190565b634e487b7160e01b600052603260045260246000fd5b6000600182016153aa576153aa6152af565b5060010190565b60208082528181018390526000908460408401835b868110156153f45782356153d981614e27565b6001600160a01b0316825291830191908301906001016153c6565b509695505050505050565b634e487b7160e01b600052604160045260246000fd5b62ffffff81168114612d1857600080fd5b60208082528181018390526000908460408401835b868110156153f457823561544e81615415565b62ffffff168252918301919083019060010161543b565b6000808335601e1984360301811261547c57600080fd5b8301803591506001600160401b0382111561549657600080fd5b6020019150600781901b3603821315614f7c57600080fd5b6000602082840312156154c057600080fd5b81356106cc81615415565b6001600160a01b03938416815291909216602082015262ffffff909116604082015260600190565b60006020828403121561550557600080fd5b81516106cc81614e27565b8060020b8114612d1857600080fd5b60006020828403121561553157600080fd5b81356106cc81615510565b6001600160a01b039485168152929093166020830152600290810b60408301529190910b606082015260800190565b6001600160801b0381168114612d1857600080fd5b60006020828403121561559257600080fd5b81516106cc8161556b565b6000602082840312156155af57600080fd5b81356106cc8161556b565b80356155c581615510565b60020b825260208101356155d881615510565b60020b602083015260408101356155ee81615415565b62ffffff81166040840152505050565b6000608082016080835280855480835260a08501915086600052602092508260002060005b8281101561565e578154600281810b8652601882901c900b8686015260301c62ffffff16604085015260609093019260019182019101615623565b50505080925050615671818401856155ba565b509392505050565b8015158114612d1857600080fd5b6000806040838503121561569a57600080fd5b82516156a581615679565b6020939093015192949293505050565b6000828210156156c7576156c76152af565b500390565b634e487b7160e01b600052603160045260246000fd5b60008235609e198336030181126156f857600080fd5b9190910192915050565b60006020828403121561571457600080fd5b5051919050565b6000808335601e1984360301811261573257600080fd5b8301803591506001600160401b0382111561574c57600080fd5b602001915036819003821315614f7c57600080fd5b8183823760009101908152919050565b803561433f81615679565b60006020828403121561578e57600080fd5b81356106cc81615679565b60208082526002908201526129a360f11b604082015260600190565b6000808335601e198436030181126157cc57600080fd5b83016020810192503590506001600160401b038111156157eb57600080fd5b8060071b3603831315614f7c57600080fd5b8183526000602080850194508260005b8581101561584c5781356158208161556b565b6001600160801b031687526158398388018385016155ba565b608096870196919091019060010161580d565b509495945050505050565b81835281816020850137506000828201602090810191909152601f909101601f19169091010190565b60008135601e1983360301811261589657600080fd5b820180356001600160401b038111156158ae57600080fd5b8036038413156158bd57600080fd5b60a085526158d260a086018260208501615857565b9150506158e160208401614e3c565b6158ee6020860182614e90565b50604083013560408501526060830135606085015261590f60808401615771565b8015156080860152615671565b600061592882836157b5565b60e0855261593a60e0860182846157fd565b91505061594a60208401846157b5565b858303602087015261595d8382846157fd565b925050506040830135609e1984360301811261597857600080fd5b848203604086015261598c82858301615880565b915050606083013560608501526080830135608085015260a083013560a085015260c083013560c08501528091505092915050565b6060815260006159d4606083018661591c565b60208301949094525060400152919050565b6020808252600190820152600560fc1b604082015260600190565b6001600160a01b0383168152608081016106cc60208301846155ba565b600060208284031215615a3057600080fd5b81516106cc81615679565b8135615a4681615510565b815462ffffff82811662ffffff1983161784556020850135615a6781615510565b8060181b9050818416935065ffffff00000091508082168465ffffffffffff198516171785556040860135615a9b81615415565b91166001600160481b0319929092169092171760309190911b62ffffff60301b1617905550565b6001600160a01b03949094168452600292830b6020850152910b60408301526001600160801b0316606082015260a06080820181905260009082015260c00190565b60008060408385031215615b1757600080fd5b505080516020909101519092909150565b6060808252845160a083830152805161010084018190526000929160209190820190610120860190855b81811015615b7557615b65838551614fc4565b9284019291850191600101615b52565b5050828901519150615b8a6080870183614e90565b60408901519150615b9e60a0870183614e90565b9288015192615bb060c0870185614e90565b60808901519350615bc460e0870185614e90565b91850196909652604090930193909352509392505050565b6000808335601e19843603018112615bf357600080fd5b8301803591506001600160401b03821115615c0d57600080fd5b6020019150600581901b3603821315614f7c57600080fd5b600293840b81529190920b60208201526001600160801b03909116604082015260600190565b6001600160a01b03929092168252602082015260400190565b6000816000190483118215151615615c7e57615c7e6152af565b500290565b634e487b7160e01b600052601260045260246000fd5b600082615cb657634e487b7160e01b600052601260045260246000fd5b500490565b6020808252602e908201527f496e697469616c697a61626c653a20636f6e747261637420697320616c72656160408201526d191e481a5b9a5d1a585b1a5e995960921b606082015260800190565b6020808252602b908201527f496e697469616c697a61626c653a20636f6e7472616374206973206e6f74206960408201526a6e697469616c697a696e6760a81b606082015260800190565b60008060408385031215615d6757600080fd5b8251615d728161556b565b60208401519092506150d98161556b565b600082516156f8818460208701614dc856fedbbb3a796242c9562af701570b096cb2478cd507fcd2d4080025883b10a623a5ddf252ad1be2c89b69c2b068fc378daa952ba7f163c4a11628f55a4df523b3efa26469706673582212203fda974d71d1e22f26b034314321c4841b042d1457f0a64a930ee8fbca46f51064736f6c634300080d0033",
  "deployedBytecode": "0x608060405234801561001057600080fd5b50600436106102345760003560e01c80638712e49711610131578063ccdf7a02116100b3578063ccdf7a02146104a9578063d0ebdbe7146104ca578063d0fb0203146104dd578063d21220a7146104f0578063d348799714610503578063dd62ed3e14610516578063e4fadbce14610529578063f2eb3e341461053c578063f2fde38b14610545578063f88c31ce14610558578063fcd3533c1461056057600080fd5b80638712e497146103d05780638da5cb5b146103e357806392e49dfd146103eb57806394bf804d146103fe57806395d89b4114610426578063a457c2d71461042e578063a5ff1dc714610441578063a9059cbb14610454578063c45a015514610467578063c7a4ae171461048e578063c8796572146104a157600080fd5b806342fb9d44116101ba57806342fb9d441461031b578063472d35b9146103245780634794c84a14610337578063481c6a751461034a5780634b1641401461035d578063617a341914610370578063673a2a1f1461038557806370a082311461039a578063715018a6146103ad5780637ecd6717146103b557806386ac1cb9146103bd57600080fd5b8063065756db1461023957806306fdde0314610255578063095ea7b31461026a5780630d6e66311461028d5780630dfe1681146102a257806314b80630146102c257806318160ddd146102cb57806323b872dd146102d3578063313ce567146102e657806339509351146102f55780633f7b613514610308575b600080fd5b61024260ce5481565b6040519081526020015b60405180910390f35b61025d610573565b60405161024c9190614df4565b61027d610278366004614e47565b610605565b604051901515815260200161024c565b6102a061029b366004614e73565b61061f565b005b60c9546102b5906001600160a01b031681565b60405161024c9190614e9d565b61024260cb5481565b606754610242565b61027d6102e1366004614eb1565b6106ad565b6040516012815260200161024c565b61027d610303366004614e47565b6106d3565b6102a0610316366004614ef2565b6106f5565b61024260cf5481565b6102a0610332366004614e73565b6107df565b6102a0610345366004614f14565b610857565b60d0546102b5906001600160a01b031681565b6102a061036b366004614f83565b6108e7565b610378610a07565b60405161024c9190614feb565b61038d610a87565b60405161024c9190615039565b6102426103a8366004614e73565b610b36565b6102a0610b51565b6102a0610881565b6102a06103cb366004614f83565b610b93565b6102a06103de36600461507a565b610c13565b6102b5611e0d565b6102a06103f9366004614f83565b611e1c565b61041161040c3660046150b4565b611f28565b6040805192835260208301919091520161024c565b61025d612525565b61027d61043c366004614e47565b612534565b6102a061044f366004614f83565b6125ba565b61027d610462366004614e47565b6125f7565b6102b57f000000000000000000000000000000000000000000000000000000000000000081565b60d1546102b5906001600160a01b031681565b6102a0612605565b60cd546104b79061ffff1681565b60405161ffff909116815260200161024c565b6102a06104d8366004614e73565b612723565b60d2546102b5906001600160a01b031681565b60ca546102b5906001600160a01b031681565b6102a0610511366004615125565b6127cc565b610242610524366004615177565b6127dc565b6102a06105373660046151a5565b612807565b61024260cc5481565b6102a0610553366004614e73565b612c7b565b61038d612d1b565b61041161056e3660046150b4565b612dc3565b60606068805461058290615240565b80601f01602080910402602001604051908101604052809291908181526020018280546105ae90615240565b80156105fb5780601f106105d0576101008083540402835291602001916105fb565b820191906000526020600020905b8154815290600101906020018083116105de57829003601f168201915b5050505050905090565b60003361061381858561333c565b60019150505b92915050565b33610628611e0d565b6001600160a01b0316146106575760405162461bcd60e51b815260040161064e9061527a565b60405180910390fd5b60d180546001600160a01b0319166001600160a01b0383161790556040517f6b7f177e85ebe3aabaf1339b9a445ac908b2bef730372180fa280958e2414ee3906106a2908390614e9d565b60405180910390a150565b6000336106bb858285613460565b6106c68585856134d4565b60019150505b9392505050565b6000336106138185856106e683836127dc565b6106f091906152c5565b61333c565b60008211806107045750600081115b6107205760405162461bcd60e51b815260040161064e906152dd565b606754156107405760405162461bcd60e51b815260040161064e906152f8565b60d1546000906001600160a01b0316156107655760d1546001600160a01b031661076d565b61076d611e0d565b9050336001600160a01b038216146107975760405162461bcd60e51b815260040161064e90615314565b60cb83905560cc82905560408051848152602081018490527ff8966e026442bb0adb17149a6d44e394d2b6eb3c5cc1dc71b3c0698000548ae6910160405180910390a1505050565b336107e8611e0d565b6001600160a01b03161461080e5760405162461bcd60e51b815260040161064e9061527a565b6002609754036108305760405162461bcd60e51b815260040161064e9061532f565b60d280546001600160a01b0319166001600160a01b03929092169190911790556001609755565b60d0546001600160a01b031633146108815760405162461bcd60e51b815260040161064e90615366565b6002609754036108a35760405162461bcd60e51b815260040161064e9061532f565b600260975560405162461bcd60e51b815261064e90600401602080825260029082015261119160f21b604082015260600190565b60405180910390a1506001609755565b336108f0611e0d565b6001600160a01b0316146109165760405162461bcd60e51b815260040161064e9061527a565b60005b818110156109c95761095383838381811061093657610936615382565b905060200201602081019061094b9190614e73565b60d49061389d565b6109845760405162461bcd60e51b815260206004820152600260248201526104e560f41b604482015260640161064e565b6109b683838381811061099957610999615382565b90506020020160208101906109ae9190614e73565b60d4906138bf565b50806109c181615398565b915050610919565b507f024551cce253d1a442bfe99dae530a00a492fb8c67c4456cce3c9d23eecd396182826040516109fb9291906153b1565b60405180910390a15050565b606060d3805480602002602001604051908101604052809291908181526020016000905b82821015610a7e5760008481526020908190206040805160608101825291850154600281810b845263010000008204900b83850152600160301b900462ffffff1690820152825260019092019101610a2b565b50505050905090565b60606000610a9560d46138d4565b90506000816001600160401b03811115610ab157610ab16153ff565b604051908082528060200260200182016040528015610ada578160200160208202803683370190505b50905060005b82811015610b2f57610af360d4826138de565b828281518110610b0557610b05615382565b6001600160a01b039092166020928302919091019091015280610b2781615398565b915050610ae0565b5092915050565b6001600160a01b031660009081526065602052604090205490565b33610b5a611e0d565b6001600160a01b031614610b805760405162461bcd60e51b815260040161064e9061527a565b610b8a60006138ea565b565b6001609755565b33610b9c611e0d565b6001600160a01b031614610bc25760405162461bcd60e51b815260040161064e9061527a565b60c95460ca54610be291849184916001600160a01b039081169116613a8f565b7f1b402611d70c7735d942445aaa3ebbf878149bece6b797870b44a581c5f7f4c982826040516109fb929190615426565b60d0546001600160a01b03163314610c3d5760405162461bcd60e51b815260040161064e90615366565b600260975403610c5f5760405162461bcd60e51b815260040161064e9061532f565b600260975560c95460ca547f0000000000000000000000000000000000000000000000000000000000000000916001600160a01b039081169116610ca1612605565b610ca9614cce565b60005b610cb68680615465565b90508110156111955760006001600160a01b038616631698ee828686610cdc8b80615465565b87818110610cec57610cec615382565b610d039260809182020190810191506060016154ae565b6040518463ffffffff1660e01b8152600401610d21939291906154cb565b602060405180830381865afa158015610d3e573d6000803e3d6000fd5b505050506040513d601f19601f82011682018060405250810190610d6291906154f3565b9050600073__$b131e44167300e1b6d47510635310686a7$__635f49415b8330610d8c8c80615465565b88818110610d9c57610d9c615382565b610db5926040608090920201908101915060200161551f565b610dbf8d80615465565b89818110610dcf57610dcf615382565b610de8926060608090920201908101915060400161551f565b6040518563ffffffff1660e01b8152600401610e07949392919061553c565b602060405180830381865af4158015610e24573d6000803e3d6000fd5b505050506040513d601f19601f82011682018060405250810190610e489190615580565b9050806001600160801b0316600003610e62575050611183565b60006001600160801b03610e768a80615465565b86818110610e8657610e86615382565b610e9c926020608090920201908101915061559d565b6001600160801b031603610eb1575080610ee4565b610ebb8980615465565b85818110610ecb57610ecb615382565b610ee1926020608090920201908101915061559d565b90505b6000610f5684610ef48c80615465565b88818110610f0457610f04615382565b610f1d926040608090920201908101915060200161551f565b610f278d80615465565b89818110610f3757610f37615382565b610f50926060608090920201908101915060400161551f565b85613bdf565b9050826001600160801b0316826001600160801b03160361111f5760008073__$b131e44167300e1b6d47510635310686a7$__630c3c0bfc60d3610f9a8f80615465565b8b818110610faa57610faa615382565b9050608002016020016040518363ffffffff1660e01b8152600401610fd09291906155fe565b6040805180830381865af4158015610fec573d6000803e3d6000fd5b505050506040513d601f19601f820116820180604052508101906110109190615687565b915091508161104a5760405162461bcd60e51b815260040161064e9060208082526004908201526352524e4560e01b604082015260600190565b60d3805461105a906001906156b5565b8154811061106a5761106a615382565b9060005260206000200160d3828154811061108757611087615382565b6000918252602090912082549101805462ffffff92831662ffffff19821681178355845463010000009081900485160265ffffffffffff1990921617178082559254600160301b9081900490921690910262ffffff60301b1990921691909117905560d38054806110fa576110fa6156cc565b600082815260209020810160001990810180546001600160481b031916905501905550505b8051865187906111309083906152c5565b90525060208082015190870180516111499083906152c5565b90525060408082015190870180516111629083906152c5565b905250606080820151908701805161117b9083906152c5565b905250505050505b8061118d81615398565b915050610cac565b508051606086013511156111d05760405162461bcd60e51b8152602060048201526002602482015261042360f41b604482015260640161064e565b84608001358160200151101561120d5760405162461bcd60e51b8152602060048201526002602482015261423160f01b604482015260640161064e565b600081604001511180611224575060008160600151115b1561126a5761123b81604001518260600151613ca3565b604080820151606083015182519182526020820152600080516020615d96833981519152910160405180910390a15b50600061127a60408601866156e2565b604001351115611792576112ad61129460408601866156e2565b6112a5906040810190602001614e73565b60d69061389d565b6112de5760405162461bcd60e51b8152602060048201526002602482015261272960f11b604482015260640161064e565b6040516370a0823160e01b81526000906001600160a01b038416906370a082319061130d903090600401614e9d565b602060405180830381865afa15801561132a573d6000803e3d6000fd5b505050506040513d601f19601f8201168201806040525081019061134e9190615702565b90506000826001600160a01b03166370a08231306040518263ffffffff1660e01b815260040161137e9190614e9d565b602060405180830381865afa15801561139b573d6000803e3d6000fd5b505050506040513d601f19601f820116820180604052508101906113bf9190615702565b90506113f46113d160408801886156e2565b6113e2906040810190602001614e73565b6001600160a01b038616906000613d0e565b61142761140460408801886156e2565b611415906040810190602001614e73565b6001600160a01b038516906000613d0e565b61145961143760408801886156e2565b611448906040810190602001614e73565b6001600160a01b0386169084613d0e565b61148b61146960408801886156e2565b61147a906040810190602001614e73565b6001600160a01b0385169083613d0e565b600061149a60408801886156e2565b6114ab906040810190602001614e73565b6001600160a01b03166114c160408901896156e2565b6114cb908061571b565b6040516114d9929190615761565b6000604051808303816000865af19150503d8060008114611516576040519150601f19603f3d011682016040523d82523d6000602084013e61151b565b606091505b50509050806115515760405162461bcd60e51b8152602060048201526002602482015261534360f01b604482015260640161064e565b6040516370a0823160e01b81526000906001600160a01b038716906370a0823190611580903090600401614e9d565b602060405180830381865afa15801561159d573d6000803e3d6000fd5b505050506040513d601f19601f820116820180604052508101906115c19190615702565b90506000856001600160a01b03166370a08231306040518263ffffffff1660e01b81526004016115f19190614e9d565b602060405180830381865afa15801561160e573d6000803e3d6000fd5b505050506040513d601f19601f820116820180604052508101906116329190615702565b905061164160408a018a6156e2565b6116529060a081019060800161577c565b156116d45761166460408a018a6156e2565b6116729060600135856152c5565b811015801561169b575061168960408a018a6156e2565b6116979060400135866156b5565b8210155b6116b75760405162461bcd60e51b815260040161064e90615799565b6116c182866156b5565b91506116cd84826156b5565b905061174d565b6116e160408a018a6156e2565b6116ef9060600135866152c5565b8210158015611718575061170660408a018a6156e2565b6117149060400135856156b5565b8110155b6117345760405162461bcd60e51b815260040161064e90615799565b61173e85836156b5565b915061174a81856156b5565b90505b7fab3abe7e2ad787892344ed4ada44aad53c7d53e9d6b5ee91f20bd30ed39540b7898383604051611780939291906159c1565b60405180910390a150505050506117cf565b7fab3abe7e2ad787892344ed4ada44aad53c7d53e9d6b5ee91f20bd30ed39540b7846000806040516117c6939291906159c1565b60405180910390a15b60008060005b6117e26020880188615465565b9050811015611c3d57600073__$b131e44167300e1b6d47510635310686a7$__630c3c0bfc60d361181660208c018c615465565b8681811061182657611826615382565b9050608002016020016040518363ffffffff1660e01b815260040161184c9291906155fe565b6040805180830381865af4158015611868573d6000803e3d6000fd5b505050506040513d601f19601f8201168201806040525081019061188c9190615687565b5060c95460ca549192506000916001600160a01b037f0000000000000000000000000000000000000000000000000000000000000000811692631698ee829290821691166118dd60208e018e615465565b888181106118ed576118ed615382565b6119049260809182020190810191506060016154ae565b6040518463ffffffff1660e01b8152600401611922939291906154cb565b602060405180830381865afa15801561193f573d6000803e3d6000fd5b505050506040513d601f19601f8201168201806040525081019061196391906154f3565b905081611af0576001600160a01b0381166119a65760405162461bcd60e51b815260206004820152600360248201526204e55560ec1b604482015260640161064e565b6119b160d48261389d565b6119cd5760405162461bcd60e51b815260040161064e906159e6565b73__$57c880716d25c772e0b1e547659075b66d$__636b018820826119f560208d018d615465565b87818110611a0557611a05615382565b9050608002016020016040518363ffffffff1660e01b8152600401611a2b929190615a01565b602060405180830381865af4158015611a48573d6000803e3d6000fd5b505050506040513d601f19601f82011682018060405250810190611a6c9190615a1e565b611a9e5760405162461bcd60e51b815260206004820152600360248201526252545360e81b604482015260640161064e565b60d3611aad60208b018b615465565b85818110611abd57611abd615382565b8354600181018555600094855260209485902060809092029390930193909301929091019050611aed8282615a3b565b50505b6000806001600160a01b038316633c8a7d8d30611b1060208f018f615465565b89818110611b2057611b20615382565b611b39926040608090920201908101915060200161551f565b8e8060200190611b499190615465565b8a818110611b5957611b59615382565b611b72926060608090920201908101915060400161551f565b8f8060200190611b829190615465565b8b818110611b9257611b92615382565b611ba8926020608090920201908101915061559d565b6040518563ffffffff1660e01b8152600401611bc79493929190615ac2565b60408051808303816000875af1158015611be5573d6000803e3d6000fd5b505050506040513d601f19601f82011682018060405250810190611c099190615b04565b9092509050611c1882886152c5565b9650611c2481876152c5565b9550505050508080611c3590615398565b9150506117d5565b508560a00135821015611c775760405162461bcd60e51b8152602060048201526002602482015261044360f41b604482015260640161064e565b8560c00135811015611cb05760405162461bcd60e51b8152602060048201526002602482015261443160f01b604482015260640161064e565b60ce5460c9546040516370a0823160e01b81526001600160a01b03909116906370a0823190611ce3903090600401614e9d565b602060405180830381865afa158015611d00573d6000803e3d6000fd5b505050506040513d601f19601f82011682018060405250810190611d249190615702565b1015611d585760405162461bcd60e51b815260206004820152600360248201526204d42360ec1b604482015260640161064e565b60cf5460ca546040516370a0823160e01b81526001600160a01b03909116906370a0823190611d8b903090600401614e9d565b602060405180830381865afa158015611da8573d6000803e3d6000fd5b505050506040513d601f19601f82011682018060405250810190611dcc9190615702565b1015611e005760405162461bcd60e51b81526020600482015260036024820152624d423160e81b604482015260640161064e565b5050600160975550505050565b6033546001600160a01b031690565b33611e25611e0d565b6001600160a01b031614611e4b5760405162461bcd60e51b815260040161064e9061527a565b60005b81811015611ef657611e80838383818110611e6b57611e6b615382565b90506020020160208101906112a59190614e73565b611eb15760405162461bcd60e51b8152602060048201526002602482015261525760f01b604482015260640161064e565b611ee3838383818110611ec657611ec6615382565b9050602002016020810190611edb9190614e73565b60d6906138bf565b5080611eee81615398565b915050611e4e565b507fbe6c83115c5bf7fd07e41c6002394841bd7dc0348f3b7c58645e8950f604f5c482826040516109fb9291906153b1565b600080600260975403611f4d5760405162461bcd60e51b815260040161064e9061532f565b600260975583611f845760405162461bcd60e51b81526020600482015260026024820152614d4160f01b604482015260640161064e565b60d1546001600160a01b03161580611fa6575060d1546001600160a01b031633145b611fc25760405162461bcd60e51b815260040161064e90615314565b306000611fce60675490565b9050801515611fdb612605565b80156121435773__$3d23d8578387a47facd93bb77f6fe6e81b$__6383d7ba9f6040518060a0016040528060d3805480602002602001604051908101604052809291908181526020016000905b8282101561207b5760008481526020908190206040805160608101825291850154600281810b845263010000008204900b83850152600160301b900462ffffff1690820152825260019092019101612028565b505050908252506001600160a01b037f00000000000000000000000000000000000000000000000000000000000000008116602083015260c954811660408084019190915260ca5482166060840152908816608090920191909152516001600160e01b031960e084901b1681526120f991908b908790600401615b28565b6040805180830381865af4158015612115573d6000803e3d6000fd5b505050506040513d601f19601f820116820180604052508101906121399190615b04565b9095509350612225565b60cb5460cc54670de0b6b3a7640000919061215f8a8385613e4e565b975061216c8a8285613e4e565b96506121798a8385613e97565b60000361218557600097505b6121908a8285613e97565b60000361219c57600096505b6000826000036121ae576000196121b9565b6121b9898585613e97565b90506000826000036121cd576000196121d8565b6121d8898685613e97565b90508b8183106121e857816121ea565b825b1461221f5760405162461bcd60e51b8152602060048201526005602482015264413026413160d81b604482015260640161064e565b50505050505b61222f8688613f45565b841561224d5760c95461224d906001600160a01b031633858861401e565b831561226b5760ca5461226b906001600160a01b031633858761401e565b80156124c85760005b60d3548110156124c657600060d3828154811061229357612293615382565b60009182526020808320604080516060810182529390910154600281810b855263010000008204900b92840192909252600160301b90910462ffffff1682820181905260c95460ca549251630b4c774160e11b81529395507f00000000000000000000000000000000000000000000000000000000000000006001600160a01b0390811694631698ee82946123329493831693921691906004016154cb565b602060405180830381865afa15801561234f573d6000803e3d6000fd5b505050506040513d601f19601f8201168201806040525081019061237391906154f3565b82516020840151604051635f49415b60e01b815292935060009273__$b131e44167300e1b6d47510635310686a7$__92635f49415b926123bb9287928d92909160040161553c565b602060405180830381865af41580156123d8573d6000803e3d6000fd5b505050506040513d601f19601f820116820180604052508101906123fc9190615580565b905061241a612415826001600160801b03168d89613e97565b614056565b9050806001600160801b0316600003612435575050506124b4565b82516020840151604051633c8a7d8d60e01b81526001600160a01b03851692633c8a7d8d9261246c928c9291908790600401615ac2565b60408051808303816000875af115801561248a573d6000803e3d6000fd5b505050506040513d601f19601f820116820180604052508101906124ae9190615b04565b50505050505b806124be81615398565b915050612274565b505b60408051888152602081018790529081018590526001600160a01b038716907f5f11830295067c4bcc7d02d4e3b048cd7427be50a3aeb6afc9d3d559ee64bcfa9060600160405180910390a2505060016097555090939092509050565b60606069805461058290615240565b6000338161254282866127dc565b9050838110156125a25760405162461bcd60e51b815260206004820152602560248201527f45524332303a2064656372656173656420616c6c6f77616e63652062656c6f77604482015264207a65726f60d81b606482015260840161064e565b6125af828686840361333c565b506001949350505050565b336125c3611e0d565b6001600160a01b0316146125e95760405162461bcd60e51b815260040161064e9061527a565b6125f382826140c3565b5050565b6000336106138185856134d4565b60d2546001600160a01b03166126435760405162461bcd60e51b81526020600482015260036024820152624e464d60e81b604482015260640161064e565b60675460000361264f57565b60008061265a61369b565b909250905081156126825760d25460c954612682916001600160a01b03918216911684613d0e565b80156126a55760d25460ca546126a5916001600160a01b03918216911683613d0e565b60d25460c95460ca546040516375a9f56d60e01b81526001600160a01b039283166004820152602481018690529082166044820152606481018490529116906375a9f56d90608401600060405180830381600087803b15801561270757600080fd5b505af115801561271b573d6000803e3d6000fd5b505050505050565b3361272c611e0d565b6001600160a01b0316146127525760405162461bcd60e51b815260040161064e9061527a565b6002609754036127745760405162461bcd60e51b815260040161064e9061532f565b600260975561278161393c565b60d080546001600160a01b0319166001600160a01b0383161790556040517f9b6ffaf4cbfd923495440b7f17ced9394289f001b3ead53ab67e2c3f3e39b0f5906108d7908390614e9d565b6127d68484614241565b50505050565b6001600160a01b03918216600090815260666020908152604080832093909416825291909152205490565b600061281360016142b7565b9050801561282b576000805461ff0019166101001790555b60006128378380615bdc565b90501161286c5760405162461bcd60e51b815260206004820152600360248201526213919560ea1b604482015260640161064e565b600061287e6040840160208501614e73565b6001600160a01b0316036128b95760405162461bcd60e51b8152602060048201526002602482015261054360f41b604482015260640161064e565b6128c96060830160408401614e73565b6001600160a01b03166128e26040840160208501614e73565b6001600160a01b03161061291e5760405162461bcd60e51b815260206004820152600360248201526257544f60e81b604482015260640161064e565b60006129306080840160608501614e73565b6001600160a01b03160361296c5760405162461bcd60e51b815260206004820152600360248201526227a0ad60e91b604482015260640161064e565b600061297e60e0840160c08501614e73565b6001600160a01b0316036129ba5760405162461bcd60e51b815260206004820152600360248201526226a0ad60e91b604482015260640161064e565b6000826080013511806129d1575060008260a00135115b6129ed5760405162461bcd60e51b815260040161064e906152dd565b612a6086868080601f01602080910402602001604051908101604052809392919081815260200183838082843760009201919091525050604080516020601f8a01819004810282018101909252888152925088915087908190840183828082843760009201919091525061434492505050565b612a68614375565b612a9a612a758380615bdc565b612a856040860160208701614e73565b612a956060870160408801614e73565b613a8f565b612aaa6040830160208401614e73565b60c980546001600160a01b0319166001600160a01b0392909216919091179055612ada6060830160408401614e73565b60ca80546001600160a01b0319166001600160a01b0392909216919091179055612b0f612b0a60e0840184615bdc565b6140c3565b612b27612b226080840160608501614e73565b6138ea565b612b3760e0830160c08401614e73565b60d080546001600160a01b0319166001600160a01b0392909216919091179055608082013560cb5560a082013560cc557f1b402611d70c7735d942445aaa3ebbf878149bece6b797870b44a581c5f7f4c9612b928380615bdc565b604051612ba0929190615426565b60405180910390a1604080516080840135815260a084013560208201527ff8966e026442bb0adb17149a6d44e394d2b6eb3c5cc1dc71b3c0698000548ae6910160405180910390a17f9b6ffaf4cbfd923495440b7f17ced9394289f001b3ead53ab67e2c3f3e39b0f5612c1960e0840160c08501614e73565b604051612c269190614e9d565b60405180910390a1801561271b576000805461ff0019169055604051600181527f7f26b83ff96e1f2b6a682f133852f6798a09c465da95921460cefb38474024989060200160405180910390a1505050505050565b33612c84611e0d565b6001600160a01b031614612caa5760405162461bcd60e51b815260040161064e9061527a565b6001600160a01b038116612d0f5760405162461bcd60e51b815260206004820152602660248201527f4f776e61626c653a206e6577206f776e657220697320746865207a65726f206160448201526564647265737360d01b606482015260840161064e565b612d18816138ea565b50565b60606000612d2960d66138d4565b90506000816001600160401b03811115612d4557612d456153ff565b604051908082528060200260200182016040528015612d6e578160200160208202803683370190505b50905060005b82811015610b2f57612d8760d6826138de565b828281518110612d9957612d99615382565b6001600160a01b039092166020928302919091019091015280612dbb81615398565b915050612d74565b600080600260975403612de85760405162461bcd60e51b815260040161064e9061532f565b600260975583612e1f5760405162461bcd60e51b8152602060048201526002602482015261424160f01b604482015260640161064e565b6000612e2a60675490565b905060008111612e4c5760405162461bcd60e51b815260040161064e906152f8565b612e54612605565b612e5e33866143a4565b612e66614cce565b60005b60d3548110156130b357600060d38281548110612e8857612e88615382565b60009182526020808320604080516060810182529390910154600281810b855263010000008204900b92840192909252600160301b90910462ffffff1682820181905260c95460ca549251630b4c774160e11b81529395507f00000000000000000000000000000000000000000000000000000000000000006001600160a01b0390811694631698ee8294612f279493831693921691906004016154cb565b602060405180830381865afa158015612f44573d6000803e3d6000fd5b505050506040513d601f19601f82011682018060405250810190612f6891906154f3565b82516020840151604051635f49415b60e01b815292935060009273__$b131e44167300e1b6d47510635310686a7$__92635f49415b92612fb09287923092909160040161553c565b602060405180830381865af4158015612fcd573d6000803e3d6000fd5b505050506040513d601f19601f82011682018060405250810190612ff19190615580565b905061300a612415826001600160801b03168c89613e97565b9050806001600160801b0316600003613025575050506130a1565b600061303b838560000151866020015185613bdf565b905080604001518660400181815161305391906152c5565b905250606080820151908701805161306c9083906152c5565b9052508051865187906130809083906152c5565b90525060208082015190870180516130999083906152c5565b905250505050505b806130ab81615398565b915050612e69565b508186036130c7576130c760d36000614cf6565b6130d981604001518260600151613ca3565b805160ce5460c9546040516370a0823160e01b815260009392916001600160a01b0316906370a0823190613111903090600401614e9d565b602060405180830381865afa15801561312e573d6000803e3d6000fd5b505050506040513d601f19601f820116820180604052508101906131529190615702565b61315c91906156b5565b61316691906156b5565b602083015160cf5460ca546040516370a0823160e01b81529394506000936001600160a01b03909116906370a08231906131a4903090600401614e9d565b602060405180830381865afa1580156131c1573d6000803e3d6000fd5b505050506040513d601f19601f820116820180604052508101906131e59190615702565b6131ef91906156b5565b6131f991906156b5565b9050613206828986613e97565b9550613213818986613e97565b835190955061322290876152c5565b955082602001518561323491906152c5565b945085156132535760c954613253906001600160a01b031688886144ec565b84156132705760ca54613270906001600160a01b031688876144ec565b8251602080850151604080519384529183015233917fbcc5876d59ecdf66ef7ccae24657b11650939218782f8d741e78fd3c35d285a3910160405180910390a2604080840151606085015182519182526020820152600080516020615d96833981519152910160405180910390a160408051898152602081018890529081018690526001600160a01b038816907f86dacd5ce62967ebd3d915a82b22ad7e159538e50c7ba451e073fec048d9f1279060600160405180910390a250506001609755509194909350915050565b6001600160a01b03831661339e5760405162461bcd60e51b8152602060048201526024808201527f45524332303a20617070726f76652066726f6d20746865207a65726f206164646044820152637265737360e01b606482015260840161064e565b6001600160a01b0382166133ff5760405162461bcd60e51b815260206004820152602260248201527f45524332303a20617070726f766520746f20746865207a65726f206164647265604482015261737360f01b606482015260840161064e565b6001600160a01b0383811660008181526066602090815260408083209487168084529482529182902085905590518481527f8c5be1e5ebec7d5bd14f71427d1e84f3dd0314c0f7b2291e5b200ac8c7c3b925910160405180910390a3505050565b600061346c84846127dc565b905060001981146127d657818110156134c75760405162461bcd60e51b815260206004820152601d60248201527f45524332303a20696e73756666696369656e7420616c6c6f77616e6365000000604482015260640161064e565b6127d6848484840361333c565b6001600160a01b0383166135385760405162461bcd60e51b815260206004820152602560248201527f45524332303a207472616e736665722066726f6d20746865207a65726f206164604482015264647265737360d81b606482015260840161064e565b6001600160a01b03821661359a5760405162461bcd60e51b815260206004820152602360248201527f45524332303a207472616e7366657220746f20746865207a65726f206164647260448201526265737360e81b606482015260840161064e565b6135a583838361450b565b6001600160a01b0383166000908152606560205260409020548181101561361d5760405162461bcd60e51b815260206004820152602660248201527f45524332303a207472616e7366657220616d6f756e7420657863656564732062604482015265616c616e636560d01b606482015260840161064e565b6001600160a01b038085166000908152606560205260408082208585039055918516815290812080548492906136549084906152c5565b92505081905550826001600160a01b0316846001600160a01b0316600080516020615db68339815191528460405161368e91815260200190565b60405180910390a36127d6565b60008060005b60d35481101561386757600060d382815481106136c0576136c0615382565b60009182526020808320604080516060810182529390910154600281810b855263010000008204900b92840192909252600160301b90910462ffffff1682820181905260c95460ca549251630b4c774160e11b81529395507f00000000000000000000000000000000000000000000000000000000000000006001600160a01b0390811694631698ee829461375f9493831693921691906004016154cb565b602060405180830381865afa15801561377c573d6000803e3d6000fd5b505050506040513d601f19601f820116820180604052508101906137a091906154f3565b8251602084015160405163a34123a760e01b81529293506001600160a01b0384169263a34123a7926137d9929091600090600401615c25565b60408051808303816000875af11580156137f7573d6000803e3d6000fd5b505050506040513d601f19601f8201168201806040525081019061381b9190615b04565b505060008061383383856000015186602001516147da565b909250905061384282886152c5565b965061384e81876152c5565b955050505050808061385f90615398565b9150506136a1565b506138728282613ca3565b6040805183815260208101839052600080516020615d96833981519152910160405180910390a19091565b6001600160a01b038116600090815260018301602052604081205415156106cc565b60006106cc836001600160a01b038416614885565b6000610619825490565b60006106cc8383614978565b603380546001600160a01b038381166001600160a01b0319831681179093556040519116919082907f8be0079c531659141344cd1fd0a4f28419497f9722a3daafe3b4186f6b6457e090600090a35050565b60ce805460cf80546000938490559290559081156139d45760c95460d05460405163a9059cbb60e01b81526001600160a01b039283169263a9059cbb9261398a929116908690600401615c4b565b6020604051808303816000875af19250505080156139c5575060408051601f3d908101601f191682019092526139c291810190615a1e565b60015b6139d257600091506139d4565b505b8015613a595760ca5460d05460405163a9059cbb60e01b81526001600160a01b039283169263a9059cbb92613a10929116908590600401615c4b565b6020604051808303816000875af1925050508015613a4b575060408051601f3d908101601f19168201909252613a4891810190615a1e565b60015b613a5757506000613a59565b505b60408051838152602081018390527fa292e28c648da34e20b372054caab5f0359198b3b4d5f0ef9945d4616e15dc9791016109fb565b60005b83811015613bd85760007f00000000000000000000000000000000000000000000000000000000000000006001600160a01b0316631698ee828585898987818110613adf57613adf615382565b9050602002016020810190613af491906154ae565b6040518463ffffffff1660e01b8152600401613b12939291906154cb565b602060405180830381865afa158015613b2f573d6000803e3d6000fd5b505050506040513d601f19601f82011682018060405250810190613b5391906154f3565b90506001600160a01b038116613b905760405162461bcd60e51b81526020600482015260026024820152615a4160f01b604482015260640161064e565b613b9b60d48261389d565b15613bb85760405162461bcd60e51b815260040161064e906159e6565b613bc360d4826149a2565b50508080613bd090615398565b915050613a92565b5050505050565b613be7614cce565b60405163a34123a760e01b81526001600160a01b0386169063a34123a790613c1790879087908790600401615c25565b60408051808303816000875af1158015613c35573d6000803e3d6000fd5b505050506040513d601f19601f82011682018060405250810190613c599190615b04565b60208301528152600080613c6e8787876147da565b84519193509150613c7f90836156b5565b60408401526020830151613c9390826156b5565b6060840152509095945050505050565b60cd5461ffff16612710613cb78285615c64565b613cc19190615c99565b60ce6000828254613cd291906152c5565b909155506127109050613ce961ffff831684615c64565b613cf39190615c99565b60cf6000828254613d0491906152c5565b9091555050505050565b801580613d885750604051636eb1769f60e11b81523060048201526001600160a01b03838116602483015284169063dd62ed3e90604401602060405180830381865afa158015613d62573d6000803e3d6000fd5b505050506040513d601f19601f82011682018060405250810190613d869190615702565b155b613df35760405162461bcd60e51b815260206004820152603660248201527f5361666545524332303a20617070726f76652066726f6d206e6f6e2d7a65726f60448201527520746f206e6f6e2d7a65726f20616c6c6f77616e636560501b606482015260840161064e565b613e498363095ea7b360e01b8484604051602401613e12929190615c4b565b60408051601f198184030181529190526020810180516001600160e01b03166001600160e01b0319909316929092179091526149b7565b505050565b6000613e5b848484613e97565b905060008280613e6d57613e6d615c83565b84860911156106cc576000198110613e8457600080fd5b80613e8e81615398565b95945050505050565b6000808060001985870985870292508281108382030391505080600003613ed05760008411613ec557600080fd5b5082900490506106cc565b808411613edc57600080fd5b60008486880960026001871981018816978890046003810283188082028403028082028403028082028403028082028403028082028403029081029092039091026000889003889004909101858311909403939093029303949094049190911702949350505050565b6001600160a01b038216613f9b5760405162461bcd60e51b815260206004820152601f60248201527f45524332303a206d696e7420746f20746865207a65726f206164647265737300604482015260640161064e565b613fa76000838361450b565b8060676000828254613fb991906152c5565b90915550506001600160a01b03821660009081526065602052604081208054839290613fe69084906152c5565b90915550506040518181526001600160a01b03831690600090600080516020615db68339815191529060200160405180910390a35050565b6040516001600160a01b03808516602483015283166044820152606481018290526127d69085906323b872dd60e01b90608401613e12565b60006001600160801b038211156140bf5760405162461bcd60e51b815260206004820152602760248201527f53616665436173743a2076616c756520646f65736e27742066697420696e20316044820152663238206269747360c81b606482015260840161064e565b5090565b60005b8181101561420f5760c9546001600160a01b03168383838181106140ec576140ec615382565b90506020020160208101906141019190614e73565b6001600160a01b031614158015614152575060ca546001600160a01b031683838381811061413157614131615382565b90506020020160208101906141469190614e73565b6001600160a01b031614155b6141835760405162461bcd60e51b8152602060048201526002602482015261149560f21b604482015260640161064e565b614198838383818110611e6b57611e6b615382565b156141ca5760405162461bcd60e51b815260206004820152600260248201526121a960f11b604482015260640161064e565b6141fc8383838181106141df576141df615382565b90506020020160208101906141f49190614e73565b60d6906149a2565b508061420781615398565b9150506140c6565b507f102656122b5bfb41d864259a385db02d34584f3a71b6c6c35c14cbdaf9038fe682826040516109fb9291906153b1565b61424c60d43361389d565b61427d5760405162461bcd60e51b8152602060048201526002602482015261434360f01b604482015260640161064e565b811561429a5760c95461429a906001600160a01b031633846144ec565b80156125f35760ca546125f3906001600160a01b031633836144ec565b60008054610100900460ff16156142fe578160ff1660011480156142da5750303b155b6142f65760405162461bcd60e51b815260040161064e90615cbb565b506000919050565b60005460ff8084169116106143255760405162461bcd60e51b815260040161064e90615cbb565b506000805460ff191660ff92909216919091179055600190565b919050565b600054610100900460ff1661436b5760405162461bcd60e51b815260040161064e90615d09565b6125f38282614a89565b600054610100900460ff1661439c5760405162461bcd60e51b815260040161064e90615d09565b610b8a614ad7565b6001600160a01b0382166144045760405162461bcd60e51b815260206004820152602160248201527f45524332303a206275726e2066726f6d20746865207a65726f206164647265736044820152607360f81b606482015260840161064e565b6144108260008361450b565b6001600160a01b038216600090815260656020526040902054818110156144845760405162461bcd60e51b815260206004820152602260248201527f45524332303a206275726e20616d6f756e7420657863656564732062616c616e604482015261636560f01b606482015260840161064e565b6001600160a01b03831660009081526065602052604081208383039055606780548492906144b39084906156b5565b90915550506040518281526000906001600160a01b03851690600080516020615db68339815191529060200160405180910390a3505050565b613e498363a9059cbb60e01b8484604051602401613e12929190615c4b565b6001600160a01b038316156146ea5760d254604051630ad0753560e11b81526001600160a01b03909116906315a0ea6a9061454a908690600401614e9d565b600060405180830381600087803b15801561456457600080fd5b505af1158015614578573d6000803e3d6000fd5b505060d2546001600160a01b03169150634158e3e390508461469a8461459d83610b36565b6145a791906156b5565b60d260009054906101000a90046001600160a01b03166001600160a01b031663061960aa6040518163ffffffff1660e01b8152600401602060405180830381865afa1580156145fa573d6000803e3d6000fd5b505050506040513d601f19601f8201168201806040525081019061461e9190615702565b60d260009054906101000a90046001600160a01b03166001600160a01b03166386b3cd266040518163ffffffff1660e01b8152600401602060405180830381865afa158015614671573d6000803e3d6000fd5b505050506040513d601f19601f820116820180604052508101906146959190615702565b613e97565b6040518363ffffffff1660e01b81526004016146b7929190615c4b565b600060405180830381600087803b1580156146d157600080fd5b505af11580156146e5573d6000803e3d6000fd5b505050505b6001600160a01b03821615613e495760d254604051630ad0753560e11b81526001600160a01b03909116906315a0ea6a90614729908590600401614e9d565b600060405180830381600087803b15801561474357600080fd5b505af1158015614757573d6000803e3d6000fd5b505060d2546001600160a01b03169150634158e3e39050836147868461477c83610b36565b6145a791906152c5565b6040518363ffffffff1660e01b81526004016147a3929190615c4b565b600060405180830381600087803b1580156147bd57600080fd5b505af11580156147d1573d6000803e3d6000fd5b50505050505050565b6040516309e3d67b60e31b8152306004820152600283810b602483015282900b60448201526001600160801b0360648201819052608482015260009081906001600160a01b03861690634f1eb3d89060a40160408051808303816000875af115801561484a573d6000803e3d6000fd5b505050506040513d601f19601f8201168201806040525081019061486e9190615d54565b6001600160801b0391821697911695509350505050565b6000818152600183016020526040812054801561496e5760006148a96001836156b5565b85549091506000906148bd906001906156b5565b90508181146149225760008660000182815481106148dd576148dd615382565b906000526020600020015490508087600001848154811061490057614900615382565b6000918252602080832090910192909255918252600188019052604090208390555b8554869080614933576149336156cc565b600190038181906000526020600020016000905590558560010160008681526020019081526020016000206000905560019350505050610619565b6000915050610619565b600082600001828154811061498f5761498f615382565b9060005260206000200154905092915050565b60006106cc836001600160a01b038416614afe565b6000614a0c826040518060400160405280602081526020017f5361666545524332303a206c6f772d6c6576656c2063616c6c206661696c6564815250856001600160a01b0316614b4d9092919063ffffffff16565b805190915015613e495780806020019051810190614a2a9190615a1e565b613e495760405162461bcd60e51b815260206004820152602a60248201527f5361666545524332303a204552433230206f7065726174696f6e20646964206e6044820152691bdd081cdd58d8d9595960b21b606482015260840161064e565b600054610100900460ff16614ab05760405162461bcd60e51b815260040161064e90615d09565b8151614ac3906068906020850190614d14565b508051613e49906069906020840190614d14565b600054610100900460ff16610b8c5760405162461bcd60e51b815260040161064e90615d09565b6000818152600183016020526040812054614b4557508154600181810184556000848152602080822090930184905584548482528286019093526040902091909155610619565b506000610619565b6060614b5c8484600085614b64565b949350505050565b606082471015614bc55760405162461bcd60e51b815260206004820152602660248201527f416464726573733a20696e73756666696369656e742062616c616e636520666f6044820152651c8818d85b1b60d21b606482015260840161064e565b6001600160a01b0385163b614c1c5760405162461bcd60e51b815260206004820152601d60248201527f416464726573733a2063616c6c20746f206e6f6e2d636f6e7472616374000000604482015260640161064e565b600080866001600160a01b03168587604051614c389190615d83565b60006040518083038185875af1925050503d8060008114614c75576040519150601f19603f3d011682016040523d82523d6000602084013e614c7a565b606091505b5091509150614c8a828286614c95565b979650505050505050565b60608315614ca45750816106cc565b825115614cb45782518084602001fd5b8160405162461bcd60e51b815260040161064e9190614df4565b6040518060800160405280600081526020016000815260200160008152602001600081525090565b5080546000825590600052602060002090810190612d189190614d94565b828054614d2090615240565b90600052602060002090601f016020900481019282614d425760008555614d88565b82601f10614d5b57805160ff1916838001178555614d88565b82800160010185558215614d88579182015b82811115614d88578251825591602001919060010190614d6d565b506140bf929150614db3565b5b808211156140bf5780546001600160481b0319168155600101614d95565b5b808211156140bf5760008155600101614db4565b60005b83811015614de3578181015183820152602001614dcb565b838111156127d65750506000910152565b6020815260008251806020840152614e13816040850160208701614dc8565b601f01601f19169190910160400192915050565b6001600160a01b0381168114612d1857600080fd5b803561433f81614e27565b60008060408385031215614e5a57600080fd5b8235614e6581614e27565b946020939093013593505050565b600060208284031215614e8557600080fd5b81356106cc81614e27565b6001600160a01b03169052565b6001600160a01b0391909116815260200190565b600080600060608486031215614ec657600080fd5b8335614ed181614e27565b92506020840135614ee181614e27565b929592945050506040919091013590565b60008060408385031215614f0557600080fd5b50508035926020909101359150565b600060208284031215614f2657600080fd5b813561ffff811681146106cc57600080fd5b60008083601f840112614f4a57600080fd5b5081356001600160401b03811115614f6157600080fd5b6020830191508360208260051b8501011115614f7c57600080fd5b9250929050565b60008060208385031215614f9657600080fd5b82356001600160401b03811115614fac57600080fd5b614fb885828601614f38565b90969095509350505050565b805160020b8252602081015160020b602083015262ffffff60408201511660408301525050565b6020808252825182820181905260009190848201906040850190845b8181101561502d5761501a838551614fc4565b9284019260609290920191600101615007565b50909695505050505050565b6020808252825182820181905260009190848201906040850190845b8181101561502d5783516001600160a01b031683529284019291840191600101615055565b60006020828403121561508c57600080fd5b81356001600160401b038111156150a257600080fd5b820160e081850312156106cc57600080fd5b600080604083850312156150c757600080fd5b8235915060208301356150d981614e27565b809150509250929050565b60008083601f8401126150f657600080fd5b5081356001600160401b0381111561510d57600080fd5b602083019150836020828501011115614f7c57600080fd5b6000806000806060858703121561513b57600080fd5b843593506020850135925060408501356001600160401b0381111561515f57600080fd5b61516b878288016150e4565b95989497509550505050565b6000806040838503121561518a57600080fd5b823561519581614e27565b915060208301356150d981614e27565b6000806000806000606086880312156151bd57600080fd5b85356001600160401b03808211156151d457600080fd5b6151e089838a016150e4565b909750955060208801359150808211156151f957600080fd5b61520589838a016150e4565b9095509350604088013591508082111561521e57600080fd5b508601610100818903121561523257600080fd5b809150509295509295909350565b600181811c9082168061525457607f821691505b60208210810361527457634e487b7160e01b600052602260045260246000fd5b50919050565b6020808252818101527f4f776e61626c653a2063616c6c6572206973206e6f7420746865206f776e6572604082015260600190565b634e487b7160e01b600052601160045260246000fd5b600082198211156152d8576152d86152af565b500190565b6020808252600190820152604960f81b604082015260600190565b602080825260029082015261545360f01b604082015260600190565b6020808252600190820152602960f91b604082015260600190565b6020808252601f908201527f5265656e7472616e637947756172643a207265656e7472616e742063616c6c00604082015260600190565b6020808252600290820152614e4d60f01b604082015260600190565b634e487b7160e01b600052603260045260246000fd5b6000600182016153aa576153aa6152af565b5060010190565b60208082528181018390526000908460408401835b868110156153f45782356153d981614e27565b6001600160a01b0316825291830191908301906001016153c6565b509695505050505050565b634e487b7160e01b600052604160045260246000fd5b62ffffff81168114612d1857600080fd5b60208082528181018390526000908460408401835b868110156153f457823561544e81615415565b62ffffff168252918301919083019060010161543b565b6000808335601e1984360301811261547c57600080fd5b8301803591506001600160401b0382111561549657600080fd5b6020019150600781901b3603821315614f7c57600080fd5b6000602082840312156154c057600080fd5b81356106cc81615415565b6001600160a01b03938416815291909216602082015262ffffff909116604082015260600190565b60006020828403121561550557600080fd5b81516106cc81614e27565b8060020b8114612d1857600080fd5b60006020828403121561553157600080fd5b81356106cc81615510565b6001600160a01b039485168152929093166020830152600290810b60408301529190910b606082015260800190565b6001600160801b0381168114612d1857600080fd5b60006020828403121561559257600080fd5b81516106cc8161556b565b6000602082840312156155af57600080fd5b81356106cc8161556b565b80356155c581615510565b60020b825260208101356155d881615510565b60020b602083015260408101356155ee81615415565b62ffffff81166040840152505050565b6000608082016080835280855480835260a08501915086600052602092508260002060005b8281101561565e578154600281810b8652601882901c900b8686015260301c62ffffff16604085015260609093019260019182019101615623565b50505080925050615671818401856155ba565b509392505050565b8015158114612d1857600080fd5b6000806040838503121561569a57600080fd5b82516156a581615679565b6020939093015192949293505050565b6000828210156156c7576156c76152af565b500390565b634e487b7160e01b600052603160045260246000fd5b60008235609e198336030181126156f857600080fd5b9190910192915050565b60006020828403121561571457600080fd5b5051919050565b6000808335601e1984360301811261573257600080fd5b8301803591506001600160401b0382111561574c57600080fd5b602001915036819003821315614f7c57600080fd5b8183823760009101908152919050565b803561433f81615679565b60006020828403121561578e57600080fd5b81356106cc81615679565b60208082526002908201526129a360f11b604082015260600190565b6000808335601e198436030181126157cc57600080fd5b83016020810192503590506001600160401b038111156157eb57600080fd5b8060071b3603831315614f7c57600080fd5b8183526000602080850194508260005b8581101561584c5781356158208161556b565b6001600160801b031687526158398388018385016155ba565b608096870196919091019060010161580d565b509495945050505050565b81835281816020850137506000828201602090810191909152601f909101601f19169091010190565b60008135601e1983360301811261589657600080fd5b820180356001600160401b038111156158ae57600080fd5b8036038413156158bd57600080fd5b60a085526158d260a086018260208501615857565b9150506158e160208401614e3c565b6158ee6020860182614e90565b50604083013560408501526060830135606085015261590f60808401615771565b8015156080860152615671565b600061592882836157b5565b60e0855261593a60e0860182846157fd565b91505061594a60208401846157b5565b858303602087015261595d8382846157fd565b925050506040830135609e1984360301811261597857600080fd5b848203604086015261598c82858301615880565b915050606083013560608501526080830135608085015260a083013560a085015260c083013560c08501528091505092915050565b6060815260006159d4606083018661591c565b60208301949094525060400152919050565b6020808252600190820152600560fc1b604082015260600190565b6001600160a01b0383168152608081016106cc60208301846155ba565b600060208284031215615a3057600080fd5b81516106cc81615679565b8135615a4681615510565b815462ffffff82811662ffffff1983161784556020850135615a6781615510565b8060181b9050818416935065ffffff00000091508082168465ffffffffffff198516171785556040860135615a9b81615415565b91166001600160481b0319929092169092171760309190911b62ffffff60301b1617905550565b6001600160a01b03949094168452600292830b6020850152910b60408301526001600160801b0316606082015260a06080820181905260009082015260c00190565b60008060408385031215615b1757600080fd5b505080516020909101519092909150565b6060808252845160a083830152805161010084018190526000929160209190820190610120860190855b81811015615b7557615b65838551614fc4565b9284019291850191600101615b52565b5050828901519150615b8a6080870183614e90565b60408901519150615b9e60a0870183614e90565b9288015192615bb060c0870185614e90565b60808901519350615bc460e0870185614e90565b91850196909652604090930193909352509392505050565b6000808335601e19843603018112615bf357600080fd5b8301803591506001600160401b03821115615c0d57600080fd5b6020019150600581901b3603821315614f7c57600080fd5b600293840b81529190920b60208201526001600160801b03909116604082015260600190565b6001600160a01b03929092168252602082015260400190565b6000816000190483118215151615615c7e57615c7e6152af565b500290565b634e487b7160e01b600052601260045260246000fd5b600082615cb657634e487b7160e01b600052601260045260246000fd5b500490565b6020808252602e908201527f496e697469616c697a61626c653a20636f6e747261637420697320616c72656160408201526d191e481a5b9a5d1a585b1a5e995960921b606082015260800190565b6020808252602b908201527f496e697469616c697a61626c653a20636f6e7472616374206973206e6f74206960408201526a6e697469616c697a696e6760a81b606082015260800190565b60008060408385031215615d6757600080fd5b8251615d728161556b565b60208401519092506150d98161556b565b600082516156f8818460208701614dc856fedbbb3a796242c9562af701570b096cb2478cd507fcd2d4080025883b10a623a5ddf252ad1be2c89b69c2b068fc378daa952ba7f163c4a11628f55a4df523b3efa26469706673582212203fda974d71d1e22f26b034314321c4841b042d1457f0a64a930ee8fbca46f51064736f6c634300080d0033",
  "libraries": {
    "Pool": "0x4e203e39e78fBd8F013e8c6696F95C9Ac936D3AB",
    "Position": "0x5d990284af2C5Eb37349949185F3F416885a5AfC",
    "Underlying": "0x8554331A6e80456f41C3b117e3aDdf90344a33b6"
  },
  "devdoc": {
    "author": "Arrakis Finance",
    "details": "DO NOT ADD STATE VARIABLES - APPEND THEM TO ArrakisV2Storage",
    "kind": "dev",
    "methods": {
      "addPools(uint24[])": {
        "details": "only callable by owner.",
        "params": {
          "feeTiers_": "list of fee tiers associated to pools to whitelist."
        }
      },
      "allowance(address,address)": {
        "details": "See {IERC20-allowance}."
      },
      "approve(address,uint256)": {
        "details": "See {IERC20-approve}. NOTE: If `amount` is the maximum `uint256`, the allowance is not updated on `transferFrom`. This is semantically equivalent to an infinite approval. Requirements: - `spender` cannot be the zero address."
      },
      "balanceOf(address)": {
        "details": "See {IERC20-balanceOf}."
      },
      "blacklistRouters(address[])": {
        "details": "only callable by owner.",
        "params": {
          "routers_": "list of routers addresses to blacklist."
        }
      },
      "burn(uint256,address)": {
        "params": {
          "burnAmount_": "amount of vault shares to burn.",
          "receiver_": "address to receive underlying tokens withdrawn."
        },
        "returns": {
          "amount0": "amount of token0 sent to receiver",
          "amount1": "amount of token1 sent to receiver"
        }
      },
      "decimals()": {
        "details": "Returns the number of decimals used to get its user representation. For example, if `decimals` equals `2`, a balance of `505` tokens should be displayed to a user as `5.05` (`505 / 10 ** 2`). Tokens usually opt for a value of 18, imitating the relationship between Ether and Wei. This is the value {ERC20} uses, unless this function is overridden; NOTE: This information is only used for _display_ purposes: it in no way affects any of the arithmetic of the contract, including {IERC20-balanceOf} and {IERC20-transfer}."
      },
      "decreaseAllowance(address,uint256)": {
        "details": "Atomically decreases the allowance granted to `spender` by the caller. This is an alternative to {approve} that can be used as a mitigation for problems described in {IERC20-approve}. Emits an {Approval} event indicating the updated allowance. Requirements: - `spender` cannot be the zero address. - `spender` must have allowance for the caller of at least `subtractedValue`."
      },
      "getRanges()": {
        "returns": {
          "_0": "ranges list of ranges"
        }
      },
      "increaseAllowance(address,uint256)": {
        "details": "Atomically increases the allowance granted to `spender` by the caller. This is an alternative to {approve} that can be used as a mitigation for problems described in {IERC20-approve}. Emits an {Approval} event indicating the updated allowance. Requirements: - `spender` cannot be the zero address."
      },
      "mint(uint256,address)": {
        "params": {
          "mintAmount_": "represent the amount of Arrakis V2 shares to mint.",
          "receiver_": "address that will receive Arrakis V2 shares."
        },
        "returns": {
          "amount0": "amount of token0 needed to mint mintAmount_ of shares.",
          "amount1": "amount of token1 needed to mint mintAmount_ of shares."
        }
      },
      "name()": {
        "details": "Returns the name of the token."
      },
      "owner()": {
        "details": "Returns the address of the current owner."
      },
      "rebalance(((uint128,(int24,int24,uint24))[],(uint128,(int24,int24,uint24))[],(bytes,address,uint256,uint256,bool),uint256,uint256,uint256,uint256))": {
        "details": "only Manager contract can call this function.",
        "params": {
          "rebalanceParams_": "rebalance params, containing ranges where we need to collect tokens and ranges where we need to mint liquidity. Also contain swap payload to changes token0/token1 proportion."
        }
      },
      "removePools(address[])": {
        "details": "only callable by owner.",
        "params": {
          "pools_": "list of pools to remove from whitelist."
        }
      },
      "renounceOwnership()": {
        "details": "Leaves the contract without owner. It will not be possible to call `onlyOwner` functions anymore. Can only be called by the current owner. NOTE: Renouncing ownership will leave the contract without an owner, thereby removing any functionality that is only available to the owner."
      },
      "setFeeManager(address)": {
        "details": "only callable by owner.",
        "params": {
          "feeManager_": "fee manager address."
        }
      },
      "setInits(uint256,uint256)": {
        "details": "only callable by restrictedMint or by owner if restrictedMint is unset.",
        "params": {
          "init0_": "initial virtual allocation of token 0.",
          "init1_": "initial virtual allocation of token 1."
        }
      },
      "setManager(address)": {
        "details": "only callable by owner.",
        "params": {
          "manager_": "manager address."
        }
      },
      "setManagerFeeBPS(uint16)": {
        "details": "only callable by manager.",
        "params": {
          "managerFeeBPS_": "manager fee in basis points."
        }
      },
      "setRestrictedMint(address)": {
        "details": "only callable by owner.",
        "params": {
          "minter_": "address of restricted minter."
        }
      },
      "symbol()": {
        "details": "Returns the symbol of the token, usually a shorter version of the name."
      },
      "totalSupply()": {
        "details": "See {IERC20-totalSupply}."
      },
      "transfer(address,uint256)": {
        "details": "See {IERC20-transfer}. Requirements: - `to` cannot be the zero address. - the caller must have a balance of at least `amount`."
      },
      "transferFrom(address,address,uint256)": {
        "details": "See {IERC20-transferFrom}. Emits an {Approval} event indicating the updated allowance. This is not required by the EIP. See the note at the beginning of {ERC20}. NOTE: Does not update the allowance if the current allowance is the maximum `uint256`. Requirements: - `from` and `to` cannot be the zero address. - `from` must have a balance of at least `amount`. - the caller must have allowance for ``from``'s tokens of at least `amount`."
      },
      "transferOwnership(address)": {
        "details": "Transfers ownership of the contract to a new account (`newOwner`). Can only be called by the current owner."
      },
      "whitelistRouters(address[])": {
        "details": "only callable by owner.",
        "params": {
          "routers_": "list of router addresses to whitelist."
        }
      },
      "withdrawManagerBalance()": {
        "details": "anyone can call this function"
      }
    },
    "title": "ArrakisV2 LP vault version 2",
    "version": 1
  },
  "userdoc": {
    "kind": "user",
    "methods": {
      "addPools(uint24[])": {
        "notice": "whitelist pools"
      },
      "blacklistRouters(address[])": {
        "notice": "blacklist routers"
      },
      "burn(uint256,address)": {
        "notice": "burn Arrakis V2 shares and withdraw underlying."
      },
      "getRanges()": {
        "notice": "get full list of ranges, guaranteed to contain all active vault LP Positions."
      },
      "mint(uint256,address)": {
        "notice": "mint Arrakis V2 shares by depositing underlying"
      },
      "rebalance(((uint128,(int24,int24,uint24))[],(uint128,(int24,int24,uint24))[],(bytes,address,uint256,uint256,bool),uint256,uint256,uint256,uint256))": {
        "notice": "rebalance ArrakisV2 vault's UniswapV3 positions"
      },
      "removePools(address[])": {
        "notice": "unwhitelist pools"
      },
      "setFeeManager(address)": {
        "notice": "set fee manager"
      },
      "setInits(uint256,uint256)": {
        "notice": "set initial virtual allocation of token0 and token1"
      },
      "setManager(address)": {
        "notice": "set manager"
      },
      "setManagerFeeBPS(uint16)": {
        "notice": "set manager fee bps"
      },
      "setRestrictedMint(address)": {
        "notice": "set restricted minter"
      },
      "uniswapV3MintCallback(uint256,uint256,bytes)": {
        "notice": "Uniswap V3 callback fn, called back on pool.mint"
      },
      "whitelistRouters(address[])": {
        "notice": "whitelist routers"
      },
      "withdrawManagerBalance()": {
        "notice": "will send manager fees to manager"
      }
    },
    "notice": "Smart contract managing liquidity providing strategy for a given token pair using multiple Uniswap V3 LP positions on multiple fee tiers.",
    "version": 1
  },
  "storageLayout": {
    "storage": [
      {
        "astId": 1495,
        "contract": "contracts/ArrakisV2.sol:ArrakisV2",
        "label": "_initialized",
        "offset": 0,
        "slot": "0",
        "type": "t_uint8"
      },
      {
        "astId": 1498,
        "contract": "contracts/ArrakisV2.sol:ArrakisV2",
        "label": "_initializing",
        "offset": 1,
        "slot": "0",
        "type": "t_bool"
      },
      {
        "astId": 2687,
        "contract": "contracts/ArrakisV2.sol:ArrakisV2",
        "label": "__gap",
        "offset": 0,
        "slot": "1",
        "type": "t_array(t_uint256)50_storage"
      },
      {
        "astId": 1375,
        "contract": "contracts/ArrakisV2.sol:ArrakisV2",
        "label": "_owner",
        "offset": 0,
        "slot": "51",
        "type": "t_address"
      },
      {
        "astId": 1487,
        "contract": "contracts/ArrakisV2.sol:ArrakisV2",
        "label": "__gap",
        "offset": 0,
        "slot": "52",
        "type": "t_array(t_uint256)49_storage"
      },
      {
        "astId": 1708,
        "contract": "contracts/ArrakisV2.sol:ArrakisV2",
        "label": "_balances",
        "offset": 0,
        "slot": "101",
        "type": "t_mapping(t_address,t_uint256)"
      },
      {
        "astId": 1714,
        "contract": "contracts/ArrakisV2.sol:ArrakisV2",
        "label": "_allowances",
        "offset": 0,
        "slot": "102",
        "type": "t_mapping(t_address,t_mapping(t_address,t_uint256))"
      },
      {
        "astId": 1716,
        "contract": "contracts/ArrakisV2.sol:ArrakisV2",
        "label": "_totalSupply",
        "offset": 0,
        "slot": "103",
        "type": "t_uint256"
      },
      {
        "astId": 1718,
        "contract": "contracts/ArrakisV2.sol:ArrakisV2",
        "label": "_name",
        "offset": 0,
        "slot": "104",
        "type": "t_string_storage"
      },
      {
        "astId": 1720,
        "contract": "contracts/ArrakisV2.sol:ArrakisV2",
        "label": "_symbol",
        "offset": 0,
        "slot": "105",
        "type": "t_string_storage"
      },
      {
        "astId": 2299,
        "contract": "contracts/ArrakisV2.sol:ArrakisV2",
        "label": "__gap",
        "offset": 0,
        "slot": "106",
        "type": "t_array(t_uint256)45_storage"
      },
      {
        "astId": 1644,
        "contract": "contracts/ArrakisV2.sol:ArrakisV2",
        "label": "_status",
        "offset": 0,
        "slot": "151",
        "type": "t_uint256"
      },
      {
        "astId": 1688,
        "contract": "contracts/ArrakisV2.sol:ArrakisV2",
        "label": "__gap",
        "offset": 0,
        "slot": "152",
        "type": "t_array(t_uint256)49_storage"
      },
      {
        "astId": 6320,
        "contract": "contracts/ArrakisV2.sol:ArrakisV2",
        "label": "token0",
        "offset": 0,
        "slot": "201",
        "type": "t_contract(IERC20)2766"
      },
      {
        "astId": 6323,
        "contract": "contracts/ArrakisV2.sol:ArrakisV2",
        "label": "token1",
        "offset": 0,
        "slot": "202",
        "type": "t_contract(IERC20)2766"
      },
      {
        "astId": 6325,
        "contract": "contracts/ArrakisV2.sol:ArrakisV2",
        "label": "init0",
        "offset": 0,
        "slot": "203",
        "type": "t_uint256"
      },
      {
        "astId": 6327,
        "contract": "contracts/ArrakisV2.sol:ArrakisV2",
        "label": "init1",
        "offset": 0,
        "slot": "204",
        "type": "t_uint256"
      },
      {
        "astId": 6329,
        "contract": "contracts/ArrakisV2.sol:ArrakisV2",
        "label": "managerFeeBPS",
        "offset": 0,
        "slot": "205",
        "type": "t_uint16"
      },
      {
        "astId": 6331,
        "contract": "contracts/ArrakisV2.sol:ArrakisV2",
        "label": "managerBalance0",
        "offset": 0,
        "slot": "206",
        "type": "t_uint256"
      },
      {
        "astId": 6333,
        "contract": "contracts/ArrakisV2.sol:ArrakisV2",
        "label": "managerBalance1",
        "offset": 0,
        "slot": "207",
        "type": "t_uint256"
      },
      {
        "astId": 6335,
        "contract": "contracts/ArrakisV2.sol:ArrakisV2",
        "label": "manager",
        "offset": 0,
        "slot": "208",
        "type": "t_address"
      },
      {
        "astId": 6337,
        "contract": "contracts/ArrakisV2.sol:ArrakisV2",
        "label": "restrictedMint",
        "offset": 0,
        "slot": "209",
        "type": "t_address"
      },
      {
        "astId": 6340,
        "contract": "contracts/ArrakisV2.sol:ArrakisV2",
        "label": "feeManager",
        "offset": 0,
        "slot": "210",
        "type": "t_contract(IFeeManager)7828"
      },
      {
        "astId": 6344,
        "contract": "contracts/ArrakisV2.sol:ArrakisV2",
        "label": "_ranges",
        "offset": 0,
        "slot": "211",
        "type": "t_array(t_struct(Range)9143_storage)dyn_storage"
      },
      {
        "astId": 6347,
        "contract": "contracts/ArrakisV2.sol:ArrakisV2",
        "label": "_pools",
        "offset": 0,
        "slot": "212",
        "type": "t_struct(AddressSet)3990_storage"
      },
      {
        "astId": 6350,
        "contract": "contracts/ArrakisV2.sol:ArrakisV2",
        "label": "_routers",
        "offset": 0,
        "slot": "214",
        "type": "t_struct(AddressSet)3990_storage"
      }
    ],
    "types": {
      "t_address": {
        "encoding": "inplace",
        "label": "address",
        "numberOfBytes": "20"
      },
      "t_array(t_bytes32)dyn_storage": {
        "base": "t_bytes32",
        "encoding": "dynamic_array",
        "label": "bytes32[]",
        "numberOfBytes": "32"
      },
      "t_array(t_struct(Range)9143_storage)dyn_storage": {
        "base": "t_struct(Range)9143_storage",
        "encoding": "dynamic_array",
        "label": "struct Range[]",
        "numberOfBytes": "32"
      },
      "t_array(t_uint256)45_storage": {
        "base": "t_uint256",
        "encoding": "inplace",
        "label": "uint256[45]",
        "numberOfBytes": "1440"
      },
      "t_array(t_uint256)49_storage": {
        "base": "t_uint256",
        "encoding": "inplace",
        "label": "uint256[49]",
        "numberOfBytes": "1568"
      },
      "t_array(t_uint256)50_storage": {
        "base": "t_uint256",
        "encoding": "inplace",
        "label": "uint256[50]",
        "numberOfBytes": "1600"
      },
      "t_bool": {
        "encoding": "inplace",
        "label": "bool",
        "numberOfBytes": "1"
      },
      "t_bytes32": {
        "encoding": "inplace",
        "label": "bytes32",
        "numberOfBytes": "32"
      },
      "t_contract(IERC20)2766": {
        "encoding": "inplace",
        "label": "contract IERC20",
        "numberOfBytes": "20"
      },
      "t_contract(IFeeManager)7828": {
        "encoding": "inplace",
        "label": "contract IFeeManager",
        "numberOfBytes": "20"
      },
      "t_int24": {
        "encoding": "inplace",
        "label": "int24",
        "numberOfBytes": "3"
      },
      "t_mapping(t_address,t_mapping(t_address,t_uint256))": {
        "encoding": "mapping",
        "key": "t_address",
        "label": "mapping(address => mapping(address => uint256))",
        "numberOfBytes": "32",
        "value": "t_mapping(t_address,t_uint256)"
      },
      "t_mapping(t_address,t_uint256)": {
        "encoding": "mapping",
        "key": "t_address",
        "label": "mapping(address => uint256)",
        "numberOfBytes": "32",
        "value": "t_uint256"
      },
      "t_mapping(t_bytes32,t_uint256)": {
        "encoding": "mapping",
        "key": "t_bytes32",
        "label": "mapping(bytes32 => uint256)",
        "numberOfBytes": "32",
        "value": "t_uint256"
      },
      "t_string_storage": {
        "encoding": "bytes",
        "label": "string",
        "numberOfBytes": "32"
      },
      "t_struct(AddressSet)3990_storage": {
        "encoding": "inplace",
        "label": "struct EnumerableSet.AddressSet",
        "members": [
          {
            "astId": 3989,
            "contract": "contracts/ArrakisV2.sol:ArrakisV2",
            "label": "_inner",
            "offset": 0,
            "slot": "0",
            "type": "t_struct(Set)3689_storage"
          }
        ],
        "numberOfBytes": "64"
      },
      "t_struct(Range)9143_storage": {
        "encoding": "inplace",
        "label": "struct Range",
        "members": [
          {
            "astId": 9138,
            "contract": "contracts/ArrakisV2.sol:ArrakisV2",
            "label": "lowerTick",
            "offset": 0,
            "slot": "0",
            "type": "t_int24"
          },
          {
            "astId": 9140,
            "contract": "contracts/ArrakisV2.sol:ArrakisV2",
            "label": "upperTick",
            "offset": 3,
            "slot": "0",
            "type": "t_int24"
          },
          {
            "astId": 9142,
            "contract": "contracts/ArrakisV2.sol:ArrakisV2",
            "label": "feeTier",
            "offset": 6,
            "slot": "0",
            "type": "t_uint24"
          }
        ],
        "numberOfBytes": "32"
      },
      "t_struct(Set)3689_storage": {
        "encoding": "inplace",
        "label": "struct EnumerableSet.Set",
        "members": [
          {
            "astId": 3684,
            "contract": "contracts/ArrakisV2.sol:ArrakisV2",
            "label": "_values",
            "offset": 0,
            "slot": "0",
            "type": "t_array(t_bytes32)dyn_storage"
          },
          {
            "astId": 3688,
            "contract": "contracts/ArrakisV2.sol:ArrakisV2",
            "label": "_indexes",
            "offset": 0,
            "slot": "1",
            "type": "t_mapping(t_bytes32,t_uint256)"
          }
        ],
        "numberOfBytes": "64"
      },
      "t_uint16": {
        "encoding": "inplace",
        "label": "uint16",
        "numberOfBytes": "2"
      },
      "t_uint24": {
        "encoding": "inplace",
        "label": "uint24",
        "numberOfBytes": "3"
      },
      "t_uint256": {
        "encoding": "inplace",
        "label": "uint256",
        "numberOfBytes": "32"
      },
      "t_uint8": {
        "encoding": "inplace",
        "label": "uint8",
        "numberOfBytes": "1"
      }
    }
  }
}