{
  "address": "0xc3B28e3b915EA414685b730C705140356d8251BA",
  "abi": [
    {
      "inputs": [
        {
          "internalType": "contract IUniswapV3Factory",
          "name": "factory_",
          "type": "address"
        }
      ],
      "stateMutability": "nonpayable",
      "type": "constructor"
    },
    {
      "anonymous": false,
      "inputs": [
        {
          "indexed": true,
          "internalType": "address",
          "name": "owner",
          "type": "address"
        },
        {
          "indexed": true,
          "internalType": "address",
          "name": "spender",
          "type": "address"
        },
        {
          "indexed": false,
          "internalType": "uint256",
          "name": "value",
          "type": "uint256"
        }
      ],
      "name": "Approval",
      "type": "event"
    },
    {
      "anonymous": false,
      "inputs": [
        {
          "indexed": false,
          "internalType": "uint8",
          "name": "version",
          "type": "uint8"
        }
      ],
      "name": "Initialized",
      "type": "event"
    },
    {
      "anonymous": false,
      "inputs": [
        {
          "indexed": true,
          "internalType": "address",
          "name": "user",
          "type": "address"
        },
        {
          "indexed": false,
          "internalType": "uint256",
          "name": "burnAmount0",
          "type": "uint256"
        },
        {
          "indexed": false,
          "internalType": "uint256",
          "name": "burnAmount1",
          "type": "uint256"
        }
      ],
      "name": "LPBurned",
      "type": "event"
    },
    {
      "anonymous": false,
      "inputs": [
        {
          "indexed": false,
          "internalType": "uint24[]",
          "name": "feeTiers",
          "type": "uint24[]"
        }
      ],
      "name": "LogAddPools",
      "type": "event"
    },
    {
      "anonymous": false,
      "inputs": [
        {
          "indexed": false,
          "internalType": "address[]",
          "name": "routers",
          "type": "address[]"
        }
      ],
      "name": "LogBlacklistRouters",
      "type": "event"
    },
    {
      "anonymous": false,
      "inputs": [
        {
          "indexed": true,
          "internalType": "address",
          "name": "receiver",
          "type": "address"
        },
        {
          "indexed": false,
          "internalType": "uint256",
          "name": "burnAmount",
          "type": "uint256"
        },
        {
          "indexed": false,
          "internalType": "uint256",
          "name": "amount0Out",
          "type": "uint256"
        },
        {
          "indexed": false,
          "internalType": "uint256",
          "name": "amount1Out",
          "type": "uint256"
        }
      ],
      "name": "LogBurn",
      "type": "event"
    },
    {
      "anonymous": false,
      "inputs": [
        {
          "indexed": false,
          "internalType": "uint256",
          "name": "fee0",
          "type": "uint256"
        },
        {
          "indexed": false,
          "internalType": "uint256",
          "name": "fee1",
          "type": "uint256"
        }
      ],
      "name": "LogCollectedFees",
      "type": "event"
    },
    {
      "anonymous": false,
      "inputs": [
        {
          "indexed": true,
          "internalType": "address",
          "name": "receiver",
          "type": "address"
        },
        {
          "indexed": false,
          "internalType": "uint256",
          "name": "mintAmount",
          "type": "uint256"
        },
        {
          "indexed": false,
          "internalType": "uint256",
          "name": "amount0In",
          "type": "uint256"
        },
        {
          "indexed": false,
          "internalType": "uint256",
          "name": "amount1In",
          "type": "uint256"
        }
      ],
      "name": "LogMint",
      "type": "event"
    },
    {
      "anonymous": false,
      "inputs": [
        {
          "components": [
            {
              "components": [
                {
                  "internalType": "uint128",
                  "name": "liquidity",
                  "type": "uint128"
                },
                {
                  "components": [
                    {
                      "internalType": "int24",
                      "name": "lowerTick",
                      "type": "int24"
                    },
                    {
                      "internalType": "int24",
                      "name": "upperTick",
                      "type": "int24"
                    },
                    {
                      "internalType": "uint24",
                      "name": "feeTier",
                      "type": "uint24"
                    }
                  ],
                  "internalType": "struct Range",
                  "name": "range",
                  "type": "tuple"
                }
              ],
              "internalType": "struct PositionLiquidity[]",
              "name": "burns",
              "type": "tuple[]"
            },
            {
              "components": [
                {
                  "internalType": "uint128",
                  "name": "liquidity",
                  "type": "uint128"
                },
                {
                  "components": [
                    {
                      "internalType": "int24",
                      "name": "lowerTick",
                      "type": "int24"
                    },
                    {
                      "internalType": "int24",
                      "name": "upperTick",
                      "type": "int24"
                    },
                    {
                      "internalType": "uint24",
                      "name": "feeTier",
                      "type": "uint24"
                    }
                  ],
                  "internalType": "struct Range",
                  "name": "range",
                  "type": "tuple"
                }
              ],
              "internalType": "struct PositionLiquidity[]",
              "name": "mints",
              "type": "tuple[]"
            },
            {
              "components": [
                {
                  "internalType": "bytes",
                  "name": "payload",
                  "type": "bytes"
                },
                {
                  "internalType": "address",
                  "name": "router",
                  "type": "address"
                },
                {
                  "internalType": "uint256",
                  "name": "amountIn",
                  "type": "uint256"
                },
                {
                  "internalType": "uint256",
                  "name": "expectedMinReturn",
                  "type": "uint256"
                },
                {
                  "internalType": "bool",
                  "name": "zeroForOne",
                  "type": "bool"
                }
              ],
              "internalType": "struct SwapPayload",
              "name": "swap",
              "type": "tuple"
            },
            {
              "internalType": "uint256",
              "name": "minBurn0",
              "type": "uint256"
            },
            {
              "internalType": "uint256",
              "name": "minBurn1",
              "type": "uint256"
            },
            {
              "internalType": "uint256",
              "name": "minDeposit0",
              "type": "uint256"
            },
            {
              "internalType": "uint256",
              "name": "minDeposit1",
              "type": "uint256"
            }
          ],
          "indexed": false,
          "internalType": "struct Rebalance",
          "name": "rebalanceParams",
          "type": "tuple"
        },
        {
          "indexed": false,
          "internalType": "uint256",
          "name": "swapDelta0",
          "type": "uint256"
        },
        {
          "indexed": false,
          "internalType": "uint256",
          "name": "swapDelta1",
          "type": "uint256"
        }
      ],
      "name": "LogRebalance",
      "type": "event"
    },
    {
      "anonymous": false,
      "inputs": [
        {
          "indexed": false,
          "internalType": "address[]",
          "name": "pools",
          "type": "address[]"
        }
      ],
      "name": "LogRemovePools",
      "type": "event"
    },
    {
      "anonymous": false,
      "inputs": [
        {
          "indexed": false,
          "internalType": "address",
          "name": "minter",
          "type": "address"
        }
      ],
      "name": "LogRestrictedMint",
      "type": "event"
    },
    {
      "anonymous": false,
      "inputs": [
        {
          "indexed": false,
          "internalType": "uint256",
          "name": "init0",
          "type": "uint256"
        },
        {
          "indexed": false,
          "internalType": "uint256",
          "name": "init1",
          "type": "uint256"
        }
      ],
      "name": "LogSetInits",
      "type": "event"
    },
    {
      "anonymous": false,
      "inputs": [
        {
          "indexed": false,
          "internalType": "address",
          "name": "newManager",
          "type": "address"
        }
      ],
      "name": "LogSetManager",
      "type": "event"
    },
    {
      "anonymous": false,
      "inputs": [
        {
          "indexed": false,
          "internalType": "uint16",
          "name": "managerFeeBPS",
          "type": "uint16"
        }
      ],
      "name": "LogSetManagerFeeBPS",
      "type": "event"
    },
    {
      "anonymous": false,
      "inputs": [
        {
          "indexed": false,
          "internalType": "address[]",
          "name": "routers",
          "type": "address[]"
        }
      ],
      "name": "LogWhitelistRouters",
      "type": "event"
    },
    {
      "anonymous": false,
      "inputs": [
        {
          "indexed": false,
          "internalType": "uint256",
          "name": "amount0",
          "type": "uint256"
        },
        {
          "indexed": false,
          "internalType": "uint256",
          "name": "amount1",
          "type": "uint256"
        }
      ],
      "name": "LogWithdrawManagerBalance",
      "type": "event"
    },
    {
      "anonymous": false,
      "inputs": [
        {
          "indexed": true,
          "internalType": "address",
          "name": "previousOwner",
          "type": "address"
        },
        {
          "indexed": true,
          "internalType": "address",
          "name": "newOwner",
          "type": "address"
        }
      ],
      "name": "OwnershipTransferred",
      "type": "event"
    },
    {
      "anonymous": false,
      "inputs": [
        {
          "indexed": true,
          "internalType": "address",
          "name": "from",
          "type": "address"
        },
        {
          "indexed": true,
          "internalType": "address",
          "name": "to",
          "type": "address"
        },
        {
          "indexed": false,
          "internalType": "uint256",
          "name": "value",
          "type": "uint256"
        }
      ],
      "name": "Transfer",
      "type": "event"
    },
    {
      "inputs": [
        {
          "internalType": "uint24[]",
          "name": "feeTiers_",
          "type": "uint24[]"
        }
      ],
      "name": "addPools",
      "outputs": [],
      "stateMutability": "nonpayable",
      "type": "function"
    },
    {
      "inputs": [
        {
          "internalType": "address",
          "name": "owner",
          "type": "address"
        },
        {
          "internalType": "address",
          "name": "spender",
          "type": "address"
        }
      ],
      "name": "allowance",
      "outputs": [
        {
          "internalType": "uint256",
          "name": "",
          "type": "uint256"
        }
      ],
      "stateMutability": "view",
      "type": "function"
    },
    {
      "inputs": [
        {
          "internalType": "address",
          "name": "spender",
          "type": "address"
        },
        {
          "internalType": "uint256",
          "name": "amount",
          "type": "uint256"
        }
      ],
      "name": "approve",
      "outputs": [
        {
          "internalType": "bool",
          "name": "",
          "type": "bool"
        }
      ],
      "stateMutability": "nonpayable",
      "type": "function"
    },
    {
      "inputs": [
        {
          "internalType": "address",
          "name": "account",
          "type": "address"
        }
      ],
      "name": "balanceOf",
      "outputs": [
        {
          "internalType": "uint256",
          "name": "",
          "type": "uint256"
        }
      ],
      "stateMutability": "view",
      "type": "function"
    },
    {
      "inputs": [
        {
          "internalType": "address[]",
          "name": "routers_",
          "type": "address[]"
        }
      ],
      "name": "blacklistRouters",
      "outputs": [],
      "stateMutability": "nonpayable",
      "type": "function"
    },
    {
      "inputs": [
        {
          "internalType": "uint256",
          "name": "burnAmount_",
          "type": "uint256"
        },
        {
          "internalType": "address",
          "name": "receiver_",
          "type": "address"
        }
      ],
      "name": "burn",
      "outputs": [
        {
          "internalType": "uint256",
          "name": "amount0",
          "type": "uint256"
        },
        {
          "internalType": "uint256",
          "name": "amount1",
          "type": "uint256"
        }
      ],
      "stateMutability": "nonpayable",
      "type": "function"
    },
    {
      "inputs": [],
      "name": "collectFees",
      "outputs": [],
      "stateMutability": "nonpayable",
      "type": "function"
    },
    {
      "inputs": [],
      "name": "decimals",
      "outputs": [
        {
          "internalType": "uint8",
          "name": "",
          "type": "uint8"
        }
      ],
      "stateMutability": "view",
      "type": "function"
    },
    {
      "inputs": [
        {
          "internalType": "address",
          "name": "spender",
          "type": "address"
        },
        {
          "internalType": "uint256",
          "name": "subtractedValue",
          "type": "uint256"
        }
      ],
      "name": "decreaseAllowance",
      "outputs": [
        {
          "internalType": "bool",
          "name": "",
          "type": "bool"
        }
      ],
      "stateMutability": "nonpayable",
      "type": "function"
    },
    {
      "inputs": [],
      "name": "factory",
      "outputs": [
        {
          "internalType": "contract IUniswapV3Factory",
          "name": "",
          "type": "address"
        }
      ],
      "stateMutability": "view",
      "type": "function"
    },
    {
      "inputs": [],
      "name": "feeManager",
      "outputs": [
        {
          "internalType": "contract IFeeManager",
          "name": "",
          "type": "address"
        }
      ],
      "stateMutability": "view",
      "type": "function"
    },
    {
      "inputs": [],
      "name": "getPools",
      "outputs": [
        {
          "internalType": "address[]",
          "name": "",
          "type": "address[]"
        }
      ],
      "stateMutability": "view",
      "type": "function"
    },
    {
      "inputs": [],
      "name": "getRanges",
      "outputs": [
        {
          "components": [
            {
              "internalType": "int24",
              "name": "lowerTick",
              "type": "int24"
            },
            {
              "internalType": "int24",
              "name": "upperTick",
              "type": "int24"
            },
            {
              "internalType": "uint24",
              "name": "feeTier",
              "type": "uint24"
            }
          ],
          "internalType": "struct Range[]",
          "name": "",
          "type": "tuple[]"
        }
      ],
      "stateMutability": "view",
      "type": "function"
    },
    {
      "inputs": [],
      "name": "getRouters",
      "outputs": [
        {
          "internalType": "address[]",
          "name": "",
          "type": "address[]"
        }
      ],
      "stateMutability": "view",
      "type": "function"
    },
    {
      "inputs": [
        {
          "internalType": "address",
          "name": "spender",
          "type": "address"
        },
        {
          "internalType": "uint256",
          "name": "addedValue",
          "type": "uint256"
        }
      ],
      "name": "increaseAllowance",
      "outputs": [
        {
          "internalType": "bool",
          "name": "",
          "type": "bool"
        }
      ],
      "stateMutability": "nonpayable",
      "type": "function"
    },
    {
      "inputs": [],
      "name": "init0",
      "outputs": [
        {
          "internalType": "uint256",
          "name": "",
          "type": "uint256"
        }
      ],
      "stateMutability": "view",
      "type": "function"
    },
    {
      "inputs": [],
      "name": "init1",
      "outputs": [
        {
          "internalType": "uint256",
          "name": "",
          "type": "uint256"
        }
      ],
      "stateMutability": "view",
      "type": "function"
    },
    {
      "inputs": [
        {
          "internalType": "string",
          "name": "name_",
          "type": "string"
        },
        {
          "internalType": "string",
          "name": "symbol_",
          "type": "string"
        },
        {
          "components": [
            {
              "internalType": "uint24[]",
              "name": "feeTiers",
              "type": "uint24[]"
            },
            {
              "internalType": "address",
              "name": "token0",
              "type": "address"
            },
            {
              "internalType": "address",
              "name": "token1",
              "type": "address"
            },
            {
              "internalType": "address",
              "name": "owner",
              "type": "address"
            },
            {
              "internalType": "uint256",
              "name": "init0",
              "type": "uint256"
            },
            {
              "internalType": "uint256",
              "name": "init1",
              "type": "uint256"
            },
            {
              "internalType": "address",
              "name": "manager",
              "type": "address"
            },
            {
              "internalType": "address[]",
              "name": "routers",
              "type": "address[]"
            }
          ],
          "internalType": "struct InitializePayload",
          "name": "params_",
          "type": "tuple"
        }
      ],
      "name": "initialize",
      "outputs": [],
      "stateMutability": "nonpayable",
      "type": "function"
    },
    {
      "inputs": [],
      "name": "manager",
      "outputs": [
        {
          "internalType": "address",
          "name": "",
          "type": "address"
        }
      ],
      "stateMutability": "view",
      "type": "function"
    },
    {
      "inputs": [],
      "name": "managerBalance0",
      "outputs": [
        {
          "internalType": "uint256",
          "name": "",
          "type": "uint256"
        }
      ],
      "stateMutability": "view",
      "type": "function"
    },
    {
      "inputs": [],
      "name": "managerBalance1",
      "outputs": [
        {
          "internalType": "uint256",
          "name": "",
          "type": "uint256"
        }
      ],
      "stateMutability": "view",
      "type": "function"
    },
    {
      "inputs": [],
      "name": "managerFeeBPS",
      "outputs": [
        {
          "internalType": "uint16",
          "name": "",
          "type": "uint16"
        }
      ],
      "stateMutability": "view",
      "type": "function"
    },
    {
      "inputs": [
        {
          "internalType": "uint256",
          "name": "mintAmount_",
          "type": "uint256"
        },
        {
          "internalType": "address",
          "name": "receiver_",
          "type": "address"
        }
      ],
      "name": "mint",
      "outputs": [
        {
          "internalType": "uint256",
          "name": "amount0",
          "type": "uint256"
        },
        {
          "internalType": "uint256",
          "name": "amount1",
          "type": "uint256"
        }
      ],
      "stateMutability": "nonpayable",
      "type": "function"
    },
    {
      "inputs": [],
      "name": "name",
      "outputs": [
        {
          "internalType": "string",
          "name": "",
          "type": "string"
        }
      ],
      "stateMutability": "view",
      "type": "function"
    },
    {
      "inputs": [],
      "name": "owner",
      "outputs": [
        {
          "internalType": "address",
          "name": "",
          "type": "address"
        }
      ],
      "stateMutability": "view",
      "type": "function"
    },
    {
      "inputs": [
        {
          "components": [
            {
              "components": [
                {
                  "internalType": "uint128",
                  "name": "liquidity",
                  "type": "uint128"
                },
                {
                  "components": [
                    {
                      "internalType": "int24",
                      "name": "lowerTick",
                      "type": "int24"
                    },
                    {
                      "internalType": "int24",
                      "name": "upperTick",
                      "type": "int24"
                    },
                    {
                      "internalType": "uint24",
                      "name": "feeTier",
                      "type": "uint24"
                    }
                  ],
                  "internalType": "struct Range",
                  "name": "range",
                  "type": "tuple"
                }
              ],
              "internalType": "struct PositionLiquidity[]",
              "name": "burns",
              "type": "tuple[]"
            },
            {
              "components": [
                {
                  "internalType": "uint128",
                  "name": "liquidity",
                  "type": "uint128"
                },
                {
                  "components": [
                    {
                      "internalType": "int24",
                      "name": "lowerTick",
                      "type": "int24"
                    },
                    {
                      "internalType": "int24",
                      "name": "upperTick",
                      "type": "int24"
                    },
                    {
                      "internalType": "uint24",
                      "name": "feeTier",
                      "type": "uint24"
                    }
                  ],
                  "internalType": "struct Range",
                  "name": "range",
                  "type": "tuple"
                }
              ],
              "internalType": "struct PositionLiquidity[]",
              "name": "mints",
              "type": "tuple[]"
            },
            {
              "components": [
                {
                  "internalType": "bytes",
                  "name": "payload",
                  "type": "bytes"
                },
                {
                  "internalType": "address",
                  "name": "router",
                  "type": "address"
                },
                {
                  "internalType": "uint256",
                  "name": "amountIn",
                  "type": "uint256"
                },
                {
                  "internalType": "uint256",
                  "name": "expectedMinReturn",
                  "type": "uint256"
                },
                {
                  "internalType": "bool",
                  "name": "zeroForOne",
                  "type": "bool"
                }
              ],
              "internalType": "struct SwapPayload",
              "name": "swap",
              "type": "tuple"
            },
            {
              "internalType": "uint256",
              "name": "minBurn0",
              "type": "uint256"
            },
            {
              "internalType": "uint256",
              "name": "minBurn1",
              "type": "uint256"
            },
            {
              "internalType": "uint256",
              "name": "minDeposit0",
              "type": "uint256"
            },
            {
              "internalType": "uint256",
              "name": "minDeposit1",
              "type": "uint256"
            }
          ],
          "internalType": "struct Rebalance",
          "name": "rebalanceParams_",
          "type": "tuple"
        }
      ],
      "name": "rebalance",
      "outputs": [],
      "stateMutability": "nonpayable",
      "type": "function"
    },
    {
      "inputs": [
        {
          "internalType": "address[]",
          "name": "pools_",
          "type": "address[]"
        }
      ],
      "name": "removePools",
      "outputs": [],
      "stateMutability": "nonpayable",
      "type": "function"
    },
    {
      "inputs": [],
      "name": "renounceOwnership",
      "outputs": [],
      "stateMutability": "nonpayable",
      "type": "function"
    },
    {
      "inputs": [],
      "name": "restrictedMint",
      "outputs": [
        {
          "internalType": "address",
          "name": "",
          "type": "address"
        }
      ],
      "stateMutability": "view",
      "type": "function"
    },
    {
      "inputs": [
        {
          "internalType": "address",
          "name": "feeManager_",
          "type": "address"
        }
      ],
      "name": "setFeeManager",
      "outputs": [],
      "stateMutability": "nonpayable",
      "type": "function"
    },
    {
      "inputs": [
        {
          "internalType": "uint256",
          "name": "init0_",
          "type": "uint256"
        },
        {
          "internalType": "uint256",
          "name": "init1_",
          "type": "uint256"
        }
      ],
      "name": "setInits",
      "outputs": [],
      "stateMutability": "nonpayable",
      "type": "function"
    },
    {
      "inputs": [
        {
          "internalType": "address",
          "name": "manager_",
          "type": "address"
        }
      ],
      "name": "setManager",
      "outputs": [],
      "stateMutability": "nonpayable",
      "type": "function"
    },
    {
      "inputs": [
        {
          "internalType": "uint16",
          "name": "managerFeeBPS_",
          "type": "uint16"
        }
      ],
      "name": "setManagerFeeBPS",
      "outputs": [],
      "stateMutability": "nonpayable",
      "type": "function"
    },
    {
      "inputs": [
        {
          "internalType": "address",
          "name": "minter_",
          "type": "address"
        }
      ],
      "name": "setRestrictedMint",
      "outputs": [],
      "stateMutability": "nonpayable",
      "type": "function"
    },
    {
      "inputs": [],
      "name": "symbol",
      "outputs": [
        {
          "internalType": "string",
          "name": "",
          "type": "string"
        }
      ],
      "stateMutability": "view",
      "type": "function"
    },
    {
      "inputs": [],
      "name": "token0",
      "outputs": [
        {
          "internalType": "contract IERC20",
          "name": "",
          "type": "address"
        }
      ],
      "stateMutability": "view",
      "type": "function"
    },
    {
      "inputs": [],
      "name": "token1",
      "outputs": [
        {
          "internalType": "contract IERC20",
          "name": "",
          "type": "address"
        }
      ],
      "stateMutability": "view",
      "type": "function"
    },
    {
      "inputs": [],
      "name": "totalSupply",
      "outputs": [
        {
          "internalType": "uint256",
          "name": "",
          "type": "uint256"
        }
      ],
      "stateMutability": "view",
      "type": "function"
    },
    {
      "inputs": [
        {
          "internalType": "address",
          "name": "to",
          "type": "address"
        },
        {
          "internalType": "uint256",
          "name": "amount",
          "type": "uint256"
        }
      ],
      "name": "transfer",
      "outputs": [
        {
          "internalType": "bool",
          "name": "",
          "type": "bool"
        }
      ],
      "stateMutability": "nonpayable",
      "type": "function"
    },
    {
      "inputs": [
        {
          "internalType": "address",
          "name": "from",
          "type": "address"
        },
        {
          "internalType": "address",
          "name": "to",
          "type": "address"
        },
        {
          "internalType": "uint256",
          "name": "amount",
          "type": "uint256"
        }
      ],
      "name": "transferFrom",
      "outputs": [
        {
          "internalType": "bool",
          "name": "",
          "type": "bool"
        }
      ],
      "stateMutability": "nonpayable",
      "type": "function"
    },
    {
      "inputs": [
        {
          "internalType": "address",
          "name": "newOwner",
          "type": "address"
        }
      ],
      "name": "transferOwnership",
      "outputs": [],
      "stateMutability": "nonpayable",
      "type": "function"
    },
    {
      "inputs": [
        {
          "internalType": "uint256",
          "name": "amount0Owed_",
          "type": "uint256"
        },
        {
          "internalType": "uint256",
          "name": "amount1Owed_",
          "type": "uint256"
        },
        {
          "internalType": "bytes",
          "name": "",
          "type": "bytes"
        }
      ],
      "name": "uniswapV3MintCallback",
      "outputs": [],
      "stateMutability": "nonpayable",
      "type": "function"
    },
    {
      "inputs": [
        {
          "internalType": "address[]",
          "name": "routers_",
          "type": "address[]"
        }
      ],
      "name": "whitelistRouters",
      "outputs": [],
      "stateMutability": "nonpayable",
      "type": "function"
    },
    {
      "inputs": [],
      "name": "withdrawManagerBalance",
      "outputs": [],
      "stateMutability": "nonpayable",
      "type": "function"
    }
  ],
  "transactionHash": "0x417543d3e92e73dfc27b56a0a84c1af205a24bcf34552641338880514833a64d",
  "args": [
    "0x33128a8fC17869897dcE68Ed026d694621f6FDfD"
  ],
  "numDeployments": 1,
  "solcInputHash": "09c244172d4e906acb00be1064c308d2",
  "bytecode": "0x60a06040523480156200001157600080fd5b5060405162005eda38038062005eda833981016040819052620000349162000088565b806001600160a01b038116620000755760405162461bcd60e51b81526020600482015260026024820152612d2360f11b604482015260640160405180910390fd5b6001600160a01b031660805250620000ba565b6000602082840312156200009b57600080fd5b81516001600160a01b0381168114620000b357600080fd5b9392505050565b608051615dd3620001076000396000818161046c01528181610c9d015281816118d40152818161211f015281816124e30152818161319c015281816139c90152613d4d0152615dd36000f3fe608060405234801561001057600080fd5b50600436106102345760003560e01c80638712e49711610131578063ccdf7a02116100b3578063ccdf7a02146104a9578063d0ebdbe7146104ca578063d0fb0203146104dd578063d21220a7146104f0578063d348799714610503578063dd62ed3e14610516578063e4fadbce14610529578063f2eb3e341461053c578063f2fde38b14610545578063f88c31ce14610558578063fcd3533c1461056057600080fd5b80638712e497146103d05780638da5cb5b146103e357806392e49dfd146103eb57806394bf804d146103fe57806395d89b4114610426578063a457c2d71461042e578063a5ff1dc714610441578063a9059cbb14610454578063c45a015514610467578063c7a4ae171461048e578063c8796572146104a157600080fd5b806342fb9d44116101ba57806342fb9d441461031b578063472d35b9146103245780634794c84a14610337578063481c6a751461034a5780634b1641401461035d578063617a341914610370578063673a2a1f1461038557806370a082311461039a578063715018a6146103ad5780637ecd6717146103b557806386ac1cb9146103bd57600080fd5b8063065756db1461023957806306fdde0314610255578063095ea7b31461026a5780630d6e66311461028d5780630dfe1681146102a257806314b80630146102c257806318160ddd146102cb57806323b872dd146102d3578063313ce567146102e657806339509351146102f55780633f7b613514610308575b600080fd5b61024260ce5481565b6040519081526020015b60405180910390f35b61025d610573565b60405161024c9190614dbc565b61027d610278366004614e0f565b610605565b604051901515815260200161024c565b6102a061029b366004614e3b565b61061f565b005b60c9546102b5906001600160a01b031681565b60405161024c9190614e65565b61024260cb5481565b606754610242565b61027d6102e1366004614e79565b6106ad565b6040516012815260200161024c565b61027d610303366004614e0f565b6106d3565b6102a0610316366004614eba565b6106f5565b61024260cf5481565b6102a0610332366004614e3b565b6107df565b6102a0610345366004614edc565b610857565b60d0546102b5906001600160a01b031681565b6102a061036b366004614f4b565b610918565b610378610a38565b60405161024c9190614fb3565b61038d610ab8565b60405161024c9190615001565b6102426103a8366004614e3b565b610b67565b6102a0610b82565b6102a0610881565b6102a06103cb366004614f4b565b610bc4565b6102a06103de366004615042565b610c44565b6102b5611e3e565b6102a06103f9366004614f4b565b611e4d565b61041161040c36600461507c565b611f59565b6040805192835260208301919091520161024c565b61025d61271b565b61027d61043c366004614e0f565b61272a565b6102a061044f366004614f4b565b6127b0565b61027d610462366004614e0f565b6127ed565b6102b57f000000000000000000000000000000000000000000000000000000000000000081565b60d1546102b5906001600160a01b031681565b6102a06127fb565b60cd546104b79061ffff1681565b60405161ffff909116815260200161024c565b6102a06104d8366004614e3b565b61290e565b60d2546102b5906001600160a01b031681565b60ca546102b5906001600160a01b031681565b6102a06105113660046150ed565b6129b7565b61024261052436600461513f565b6129c7565b6102a061053736600461516d565b6129f2565b61024260cc5481565b6102a0610553366004614e3b565b612e66565b61038d612f06565b61041161056e36600461507c565b612fae565b60606068805461058290615208565b80601f01602080910402602001604051908101604052809291908181526020018280546105ae90615208565b80156105fb5780601f106105d0576101008083540402835291602001916105fb565b820191906000526020600020905b8154815290600101906020018083116105de57829003601f168201915b5050505050905090565b6000336106138185856135f6565b60019150505b92915050565b33610628611e3e565b6001600160a01b0316146106575760405162461bcd60e51b815260040161064e90615242565b60405180910390fd5b60d180546001600160a01b0319166001600160a01b0383161790556040517f6b7f177e85ebe3aabaf1339b9a445ac908b2bef730372180fa280958e2414ee3906106a2908390614e65565b60405180910390a150565b6000336106bb85828561371a565b6106c685858561378e565b60019150505b9392505050565b6000336106138185856106e683836129c7565b6106f0919061528d565b6135f6565b60008211806107045750600081115b6107205760405162461bcd60e51b815260040161064e906152a5565b606754156107405760405162461bcd60e51b815260040161064e906152c0565b60d1546000906001600160a01b0316156107655760d1546001600160a01b031661076d565b61076d611e3e565b9050336001600160a01b038216146107975760405162461bcd60e51b815260040161064e906152dc565b60cb83905560cc82905560408051848152602081018490527ff8966e026442bb0adb17149a6d44e394d2b6eb3c5cc1dc71b3c0698000548ae6910160405180910390a1505050565b336107e8611e3e565b6001600160a01b03161461080e5760405162461bcd60e51b815260040161064e90615242565b6002609754036108305760405162461bcd60e51b815260040161064e906152f7565b60d280546001600160a01b0319166001600160a01b03929092169190911790556001609755565b60d0546001600160a01b031633146108815760405162461bcd60e51b815260040161064e9061532e565b6002609754036108a35760405162461bcd60e51b815260040161064e906152f7565b600260975560405162461bcd60e51b815260206004820152602f60248201527f5468697320666561747572652069732064697361626c656420696e207468652060448201526e31bab93932b73a103b32b939b4b7b760891b606482015260840161064e565b60405180910390a1506001609755565b33610921611e3e565b6001600160a01b0316146109475760405162461bcd60e51b815260040161064e90615242565b60005b818110156109fa576109848383838181106109675761096761534a565b905060200201602081019061097c9190614e3b565b60d490613b4c565b6109b55760405162461bcd60e51b815260206004820152600260248201526104e560f41b604482015260640161064e565b6109e78383838181106109ca576109ca61534a565b90506020020160208101906109df9190614e3b565b60d490613b6e565b50806109f281615360565b91505061094a565b507f024551cce253d1a442bfe99dae530a00a492fb8c67c4456cce3c9d23eecd39618282604051610a2c929190615379565b60405180910390a15050565b606060d3805480602002602001604051908101604052809291908181526020016000905b82821015610aaf5760008481526020908190206040805160608101825291850154600281810b845263010000008204900b83850152600160301b900462ffffff1690820152825260019092019101610a5c565b50505050905090565b60606000610ac660d4613b83565b90506000816001600160401b03811115610ae257610ae26153c7565b604051908082528060200260200182016040528015610b0b578160200160208202803683370190505b50905060005b82811015610b6057610b2460d482613b8d565b828281518110610b3657610b3661534a565b6001600160a01b039092166020928302919091019091015280610b5881615360565b915050610b11565b5092915050565b6001600160a01b031660009081526065602052604090205490565b33610b8b611e3e565b6001600160a01b031614610bb15760405162461bcd60e51b815260040161064e90615242565b610bbb6000613b99565b565b6001609755565b33610bcd611e3e565b6001600160a01b031614610bf35760405162461bcd60e51b815260040161064e90615242565b60c95460ca54610c1391849184916001600160a01b039081169116613d3e565b7f1b402611d70c7735d942445aaa3ebbf878149bece6b797870b44a581c5f7f4c98282604051610a2c9291906153ee565b60d0546001600160a01b03163314610c6e5760405162461bcd60e51b815260040161064e9061532e565b600260975403610c905760405162461bcd60e51b815260040161064e906152f7565b600260975560c95460ca547f0000000000000000000000000000000000000000000000000000000000000000916001600160a01b039081169116610cd26127fb565b610cda614c96565b60005b610ce7868061542d565b90508110156111c65760006001600160a01b038616631698ee828686610d0d8b8061542d565b87818110610d1d57610d1d61534a565b610d34926080918202019081019150606001615476565b6040518463ffffffff1660e01b8152600401610d5293929190615493565b602060405180830381865afa158015610d6f573d6000803e3d6000fd5b505050506040513d601f19601f82011682018060405250810190610d9391906154bb565b905060007364b8bE0ECEf7741b2aE8E04E4C6443aD53138cdc635f49415b8330610dbd8c8061542d565b88818110610dcd57610dcd61534a565b610de692604060809092020190810191506020016154e7565b610df08d8061542d565b89818110610e0057610e0061534a565b610e1992606060809092020190810191506040016154e7565b6040518563ffffffff1660e01b8152600401610e389493929190615504565b602060405180830381865af4158015610e55573d6000803e3d6000fd5b505050506040513d601f19601f82011682018060405250810190610e799190615548565b9050806001600160801b0316600003610e935750506111b4565b60006001600160801b03610ea78a8061542d565b86818110610eb757610eb761534a565b610ecd9260206080909202019081019150615565565b6001600160801b031603610ee2575080610f15565b610eec898061542d565b85818110610efc57610efc61534a565b610f129260206080909202019081019150615565565b90505b6000610f8784610f258c8061542d565b88818110610f3557610f3561534a565b610f4e92604060809092020190810191506020016154e7565b610f588d8061542d565b89818110610f6857610f6861534a565b610f8192606060809092020190810191506040016154e7565b85613e8e565b9050826001600160801b0316826001600160801b031603611150576000807364b8bE0ECEf7741b2aE8E04E4C6443aD53138cdc630c3c0bfc60d3610fcb8f8061542d565b8b818110610fdb57610fdb61534a565b9050608002016020016040518363ffffffff1660e01b81526004016110019291906155c6565b6040805180830381865af415801561101d573d6000803e3d6000fd5b505050506040513d601f19601f82011682018060405250810190611041919061564f565b915091508161107b5760405162461bcd60e51b815260040161064e9060208082526004908201526352524e4560e01b604082015260600190565b60d3805461108b9060019061567d565b8154811061109b5761109b61534a565b9060005260206000200160d382815481106110b8576110b861534a565b6000918252602090912082549101805462ffffff92831662ffffff19821681178355845463010000009081900485160265ffffffffffff1990921617178082559254600160301b9081900490921690910262ffffff60301b1990921691909117905560d380548061112b5761112b615694565b600082815260209020810160001990810180546001600160481b031916905501905550505b80518651879061116190839061528d565b905250602080820151908701805161117a90839061528d565b905250604080820151908701805161119390839061528d565b90525060608082015190870180516111ac90839061528d565b905250505050505b806111be81615360565b915050610cdd565b508051606086013511156112015760405162461bcd60e51b8152602060048201526002602482015261042360f41b604482015260640161064e565b84608001358160200151101561123e5760405162461bcd60e51b8152602060048201526002602482015261423160f01b604482015260640161064e565b600081604001511180611255575060008160600151115b1561129b5761126c81604001518260600151613f52565b604080820151606083015182519182526020820152600080516020615d5e833981519152910160405180910390a15b5060006112ab60408601866156aa565b6040013511156117c3576112de6112c560408601866156aa565b6112d6906040810190602001614e3b565b60d690613b4c565b61130f5760405162461bcd60e51b8152602060048201526002602482015261272960f11b604482015260640161064e565b6040516370a0823160e01b81526000906001600160a01b038416906370a082319061133e903090600401614e65565b602060405180830381865afa15801561135b573d6000803e3d6000fd5b505050506040513d601f19601f8201168201806040525081019061137f91906156ca565b90506000826001600160a01b03166370a08231306040518263ffffffff1660e01b81526004016113af9190614e65565b602060405180830381865afa1580156113cc573d6000803e3d6000fd5b505050506040513d601f19601f820116820180604052508101906113f091906156ca565b905061142561140260408801886156aa565b611413906040810190602001614e3b565b6001600160a01b038616906000613fbd565b61145861143560408801886156aa565b611446906040810190602001614e3b565b6001600160a01b038516906000613fbd565b61148a61146860408801886156aa565b611479906040810190602001614e3b565b6001600160a01b0386169084613fbd565b6114bc61149a60408801886156aa565b6114ab906040810190602001614e3b565b6001600160a01b0385169083613fbd565b60006114cb60408801886156aa565b6114dc906040810190602001614e3b565b6001600160a01b03166114f260408901896156aa565b6114fc90806156e3565b60405161150a929190615729565b6000604051808303816000865af19150503d8060008114611547576040519150601f19603f3d011682016040523d82523d6000602084013e61154c565b606091505b50509050806115825760405162461bcd60e51b8152602060048201526002602482015261534360f01b604482015260640161064e565b6040516370a0823160e01b81526000906001600160a01b038716906370a08231906115b1903090600401614e65565b602060405180830381865afa1580156115ce573d6000803e3d6000fd5b505050506040513d601f19601f820116820180604052508101906115f291906156ca565b90506000856001600160a01b03166370a08231306040518263ffffffff1660e01b81526004016116229190614e65565b602060405180830381865afa15801561163f573d6000803e3d6000fd5b505050506040513d601f19601f8201168201806040525081019061166391906156ca565b905061167260408a018a6156aa565b6116839060a0810190608001615744565b156117055761169560408a018a6156aa565b6116a390606001358561528d565b81101580156116cc57506116ba60408a018a6156aa565b6116c890604001358661567d565b8210155b6116e85760405162461bcd60e51b815260040161064e90615761565b6116f2828661567d565b91506116fe848261567d565b905061177e565b61171260408a018a6156aa565b61172090606001358661528d565b8210158015611749575061173760408a018a6156aa565b61174590604001358561567d565b8110155b6117655760405162461bcd60e51b815260040161064e90615761565b61176f858361567d565b915061177b818561567d565b90505b7fab3abe7e2ad787892344ed4ada44aad53c7d53e9d6b5ee91f20bd30ed39540b78983836040516117b193929190615989565b60405180910390a15050505050611800565b7fab3abe7e2ad787892344ed4ada44aad53c7d53e9d6b5ee91f20bd30ed39540b7846000806040516117f793929190615989565b60405180910390a15b60008060005b611813602088018861542d565b9050811015611c6e5760007364b8bE0ECEf7741b2aE8E04E4C6443aD53138cdc630c3c0bfc60d361184760208c018c61542d565b868181106118575761185761534a565b9050608002016020016040518363ffffffff1660e01b815260040161187d9291906155c6565b6040805180830381865af4158015611899573d6000803e3d6000fd5b505050506040513d601f19601f820116820180604052508101906118bd919061564f565b5060c95460ca549192506000916001600160a01b037f0000000000000000000000000000000000000000000000000000000000000000811692631698ee8292908216911661190e60208e018e61542d565b8881811061191e5761191e61534a565b611935926080918202019081019150606001615476565b6040518463ffffffff1660e01b815260040161195393929190615493565b602060405180830381865afa158015611970573d6000803e3d6000fd5b505050506040513d601f19601f8201168201806040525081019061199491906154bb565b905081611b21576001600160a01b0381166119d75760405162461bcd60e51b815260206004820152600360248201526204e55560ec1b604482015260640161064e565b6119e260d482613b4c565b6119fe5760405162461bcd60e51b815260040161064e906159ae565b730df69f1e26a5fAC05747Fa54b3147B4b26d09343636b01882082611a2660208d018d61542d565b87818110611a3657611a3661534a565b9050608002016020016040518363ffffffff1660e01b8152600401611a5c9291906159c9565b602060405180830381865af4158015611a79573d6000803e3d6000fd5b505050506040513d601f19601f82011682018060405250810190611a9d91906159e6565b611acf5760405162461bcd60e51b815260206004820152600360248201526252545360e81b604482015260640161064e565b60d3611ade60208b018b61542d565b85818110611aee57611aee61534a565b8354600181018555600094855260209485902060809092029390930193909301929091019050611b1e8282615a03565b50505b6000806001600160a01b038316633c8a7d8d30611b4160208f018f61542d565b89818110611b5157611b5161534a565b611b6a92604060809092020190810191506020016154e7565b8e8060200190611b7a919061542d565b8a818110611b8a57611b8a61534a565b611ba392606060809092020190810191506040016154e7565b8f8060200190611bb3919061542d565b8b818110611bc357611bc361534a565b611bd99260206080909202019081019150615565565b6040518563ffffffff1660e01b8152600401611bf89493929190615a8a565b60408051808303816000875af1158015611c16573d6000803e3d6000fd5b505050506040513d601f19601f82011682018060405250810190611c3a9190615acc565b9092509050611c49828861528d565b9650611c55818761528d565b9550505050508080611c6690615360565b915050611806565b508560a00135821015611ca85760405162461bcd60e51b8152602060048201526002602482015261044360f41b604482015260640161064e565b8560c00135811015611ce15760405162461bcd60e51b8152602060048201526002602482015261443160f01b604482015260640161064e565b60ce5460c9546040516370a0823160e01b81526001600160a01b03909116906370a0823190611d14903090600401614e65565b602060405180830381865afa158015611d31573d6000803e3d6000fd5b505050506040513d601f19601f82011682018060405250810190611d5591906156ca565b1015611d895760405162461bcd60e51b815260206004820152600360248201526204d42360ec1b604482015260640161064e565b60cf5460ca546040516370a0823160e01b81526001600160a01b03909116906370a0823190611dbc903090600401614e65565b602060405180830381865afa158015611dd9573d6000803e3d6000fd5b505050506040513d601f19601f82011682018060405250810190611dfd91906156ca565b1015611e315760405162461bcd60e51b81526020600482015260036024820152624d423160e81b604482015260640161064e565b5050600160975550505050565b6033546001600160a01b031690565b33611e56611e3e565b6001600160a01b031614611e7c5760405162461bcd60e51b815260040161064e90615242565b60005b81811015611f2757611eb1838383818110611e9c57611e9c61534a565b90506020020160208101906112d69190614e3b565b611ee25760405162461bcd60e51b8152602060048201526002602482015261525760f01b604482015260640161064e565b611f14838383818110611ef757611ef761534a565b9050602002016020810190611f0c9190614e3b565b60d690613b6e565b5080611f1f81615360565b915050611e7f565b507fbe6c83115c5bf7fd07e41c6002394841bd7dc0348f3b7c58645e8950f604f5c48282604051610a2c929190615379565b600080600260975403611f7e5760405162461bcd60e51b815260040161064e906152f7565b600260975583611fb55760405162461bcd60e51b81526020600482015260026024820152614d4160f01b604482015260640161064e565b60d1546001600160a01b03161580611fd7575060d1546001600160a01b031633145b611ff35760405162461bcd60e51b815260040161064e906152dc565b306000611fff60675490565b905080151561200c6127fb565b60d254604051630ad0753560e11b81526001600160a01b03909116906315a0ea6a9061203c908990600401614e65565b600060405180830381600087803b15801561205657600080fd5b505af115801561206a573d6000803e3d6000fd5b5050505080156121d65773bea63eC53A49b4176DD540042DD6fb60CB3f18886383d7ba9f6040518060a0016040528060d3805480602002602001604051908101604052809291908181526020016000905b8282101561210e5760008481526020908190206040805160608101825291850154600281810b845263010000008204900b83850152600160301b900462ffffff16908201528252600190920191016120bb565b505050908252506001600160a01b037f00000000000000000000000000000000000000000000000000000000000000008116602083015260c954811660408084019190915260ca5482166060840152908816608090920191909152516001600160e01b031960e084901b16815261218c91908b908790600401615af0565b6040805180830381865af41580156121a8573d6000803e3d6000fd5b505050506040513d601f19601f820116820180604052508101906121cc9190615acc565b90955093506122b8565b60cb5460cc54670de0b6b3a764000091906121f28a83856140fd565b97506121ff8a82856140fd565b965061220c8a8385614146565b60000361221857600097505b6122238a8285614146565b60000361222f57600096505b6000826000036122415760001961224c565b61224c898585614146565b90506000826000036122605760001961226b565b61226b898685614146565b90508b81831061227b578161227d565b825b146122b25760405162461bcd60e51b8152602060048201526005602482015264413026413160d81b604482015260640161064e565b50505050505b6122c286886141f4565b60d2546001600160a01b0316634158e3e3876123d36122e082610b67565b60d260009054906101000a90046001600160a01b03166001600160a01b031663061960aa6040518163ffffffff1660e01b8152600401602060405180830381865afa158015612333573d6000803e3d6000fd5b505050506040513d601f19601f8201168201806040525081019061235791906156ca565b60d260009054906101000a90046001600160a01b03166001600160a01b03166386b3cd266040518163ffffffff1660e01b8152600401602060405180830381865afa1580156123aa573d6000803e3d6000fd5b505050506040513d601f19601f820116820180604052508101906123ce91906156ca565b614146565b6040518363ffffffff1660e01b81526004016123f0929190615ba4565b600060405180830381600087803b15801561240a57600080fd5b505af115801561241e573d6000803e3d6000fd5b5050505060008511156124435760c954612443906001600160a01b03163385886142c1565b83156124615760ca54612461906001600160a01b03163385876142c1565b80156126be5760005b60d3548110156126bc57600060d382815481106124895761248961534a565b60009182526020808320604080516060810182529390910154600281810b855263010000008204900b92840192909252600160301b90910462ffffff1682820181905260c95460ca549251630b4c774160e11b81529395507f00000000000000000000000000000000000000000000000000000000000000006001600160a01b0390811694631698ee8294612528949383169392169190600401615493565b602060405180830381865afa158015612545573d6000803e3d6000fd5b505050506040513d601f19601f8201168201806040525081019061256991906154bb565b82516020840151604051635f49415b60e01b81529293506000927364b8bE0ECEf7741b2aE8E04E4C6443aD53138cdc92635f49415b926125b19287928d929091600401615504565b602060405180830381865af41580156125ce573d6000803e3d6000fd5b505050506040513d601f19601f820116820180604052508101906125f29190615548565b905061261061260b826001600160801b03168d89614146565b6142f9565b9050806001600160801b031660000361262b575050506126aa565b82516020840151604051633c8a7d8d60e01b81526001600160a01b03851692633c8a7d8d92612662928c9291908790600401615a8a565b60408051808303816000875af1158015612680573d6000803e3d6000fd5b505050506040513d601f19601f820116820180604052508101906126a49190615acc565b50505050505b806126b481615360565b91505061246a565b505b60408051888152602081018790529081018590526001600160a01b038716907f5f11830295067c4bcc7d02d4e3b048cd7427be50a3aeb6afc9d3d559ee64bcfa9060600160405180910390a2505060016097555090939092509050565b60606069805461058290615208565b6000338161273882866129c7565b9050838110156127985760405162461bcd60e51b815260206004820152602560248201527f45524332303a2064656372656173656420616c6c6f77616e63652062656c6f77604482015264207a65726f60d81b606482015260840161064e565b6127a582868684036135f6565b506001949350505050565b336127b9611e3e565b6001600160a01b0316146127df5760405162461bcd60e51b815260040161064e90615242565b6127e98282614366565b5050565b60003361061381858561378e565b60d2546001600160a01b03166128395760405162461bcd60e51b81526020600482015260036024820152624e464d60e81b604482015260640161064e565b60675460000361284557565b60008061285061394a565b60d25460c954929450909250612873916001600160a01b03908116911684613fbd565b60d25460ca54612890916001600160a01b03918216911683613fbd565b60d25460c95460ca546040516375a9f56d60e01b81526001600160a01b039283166004820152602481018690529082166044820152606481018490529116906375a9f56d90608401600060405180830381600087803b1580156128f257600080fd5b505af1158015612906573d6000803e3d6000fd5b505050505050565b33612917611e3e565b6001600160a01b03161461293d5760405162461bcd60e51b815260040161064e90615242565b60026097540361295f5760405162461bcd60e51b815260040161064e906152f7565b600260975561296c613beb565b60d080546001600160a01b0319166001600160a01b0383161790556040517f9b6ffaf4cbfd923495440b7f17ced9394289f001b3ead53ab67e2c3f3e39b0f590610908908390614e65565b6129c184846144e4565b50505050565b6001600160a01b03918216600090815260666020908152604080832093909416825291909152205490565b60006129fe600161455a565b90508015612a16576000805461ff0019166101001790555b6000612a228380615bbd565b905011612a575760405162461bcd60e51b815260206004820152600360248201526213919560ea1b604482015260640161064e565b6000612a696040840160208501614e3b565b6001600160a01b031603612aa45760405162461bcd60e51b8152602060048201526002602482015261054360f41b604482015260640161064e565b612ab46060830160408401614e3b565b6001600160a01b0316612acd6040840160208501614e3b565b6001600160a01b031610612b095760405162461bcd60e51b815260206004820152600360248201526257544f60e81b604482015260640161064e565b6000612b1b6080840160608501614e3b565b6001600160a01b031603612b575760405162461bcd60e51b815260206004820152600360248201526227a0ad60e91b604482015260640161064e565b6000612b6960e0840160c08501614e3b565b6001600160a01b031603612ba55760405162461bcd60e51b815260206004820152600360248201526226a0ad60e91b604482015260640161064e565b600082608001351180612bbc575060008260a00135115b612bd85760405162461bcd60e51b815260040161064e906152a5565b612c4b86868080601f01602080910402602001604051908101604052809392919081815260200183838082843760009201919091525050604080516020601f8a0181900481028201810190925288815292508891508790819084018382808284376000920191909152506145e792505050565b612c53614618565b612c85612c608380615bbd565b612c706040860160208701614e3b565b612c806060870160408801614e3b565b613d3e565b612c956040830160208401614e3b565b60c980546001600160a01b0319166001600160a01b0392909216919091179055612cc56060830160408401614e3b565b60ca80546001600160a01b0319166001600160a01b0392909216919091179055612cfa612cf560e0840184615bbd565b614366565b612d12612d0d6080840160608501614e3b565b613b99565b612d2260e0830160c08401614e3b565b60d080546001600160a01b0319166001600160a01b0392909216919091179055608082013560cb5560a082013560cc557f1b402611d70c7735d942445aaa3ebbf878149bece6b797870b44a581c5f7f4c9612d7d8380615bbd565b604051612d8b9291906153ee565b60405180910390a1604080516080840135815260a084013560208201527ff8966e026442bb0adb17149a6d44e394d2b6eb3c5cc1dc71b3c0698000548ae6910160405180910390a17f9b6ffaf4cbfd923495440b7f17ced9394289f001b3ead53ab67e2c3f3e39b0f5612e0460e0840160c08501614e3b565b604051612e119190614e65565b60405180910390a18015612906576000805461ff0019169055604051600181527f7f26b83ff96e1f2b6a682f133852f6798a09c465da95921460cefb38474024989060200160405180910390a1505050505050565b33612e6f611e3e565b6001600160a01b031614612e955760405162461bcd60e51b815260040161064e90615242565b6001600160a01b038116612efa5760405162461bcd60e51b815260206004820152602660248201527f4f776e61626c653a206e6577206f776e657220697320746865207a65726f206160448201526564647265737360d01b606482015260840161064e565b612f0381613b99565b50565b60606000612f1460d6613b83565b90506000816001600160401b03811115612f3057612f306153c7565b604051908082528060200260200182016040528015612f59578160200160208202803683370190505b50905060005b82811015610b6057612f7260d682613b8d565b828281518110612f8457612f8461534a565b6001600160a01b039092166020928302919091019091015280612fa681615360565b915050612f5f565b600080600260975403612fd35760405162461bcd60e51b815260040161064e906152f7565b60026097558361300a5760405162461bcd60e51b8152602060048201526002602482015261424160f01b604482015260640161064e565b600061301560675490565b9050600081116130375760405162461bcd60e51b815260040161064e906152c0565b61303f6127fb565b60d254604051630ad0753560e11b81526001600160a01b03909116906315a0ea6a9061306f903390600401614e65565b600060405180830381600087803b15801561308957600080fd5b505af115801561309d573d6000803e3d6000fd5b505050506130ab3386614647565b60d2546001600160a01b0316634158e3e3336130c96122e082610b67565b6040518363ffffffff1660e01b81526004016130e6929190615ba4565b600060405180830381600087803b15801561310057600080fd5b505af1158015613114573d6000803e3d6000fd5b50505050613120614c96565b60005b60d35481101561336d57600060d382815481106131425761314261534a565b60009182526020808320604080516060810182529390910154600281810b855263010000008204900b92840192909252600160301b90910462ffffff1682820181905260c95460ca549251630b4c774160e11b81529395507f00000000000000000000000000000000000000000000000000000000000000006001600160a01b0390811694631698ee82946131e1949383169392169190600401615493565b602060405180830381865afa1580156131fe573d6000803e3d6000fd5b505050506040513d601f19601f8201168201806040525081019061322291906154bb565b82516020840151604051635f49415b60e01b81529293506000927364b8bE0ECEf7741b2aE8E04E4C6443aD53138cdc92635f49415b9261326a92879230929091600401615504565b602060405180830381865af4158015613287573d6000803e3d6000fd5b505050506040513d601f19601f820116820180604052508101906132ab9190615548565b90506132c461260b826001600160801b03168c89614146565b9050806001600160801b03166000036132df5750505061335b565b60006132f5838560000151866020015185613e8e565b905080604001518660400181815161330d919061528d565b905250606080820151908701805161332690839061528d565b90525080518651879061333a90839061528d565b905250602080820151908701805161335390839061528d565b905250505050505b8061336581615360565b915050613123565b508186036133815761338160d36000614cbe565b61339381604001518260600151613f52565b805160ce5460c9546040516370a0823160e01b815260009392916001600160a01b0316906370a08231906133cb903090600401614e65565b602060405180830381865afa1580156133e8573d6000803e3d6000fd5b505050506040513d601f19601f8201168201806040525081019061340c91906156ca565b613416919061567d565b613420919061567d565b602083015160cf5460ca546040516370a0823160e01b81529394506000936001600160a01b03909116906370a082319061345e903090600401614e65565b602060405180830381865afa15801561347b573d6000803e3d6000fd5b505050506040513d601f19601f8201168201806040525081019061349f91906156ca565b6134a9919061567d565b6134b3919061567d565b90506134c0828986614146565b95506134cd818986614146565b83519095506134dc908761528d565b95508260200151856134ee919061528d565b9450851561350d5760c95461350d906001600160a01b03168888614783565b841561352a5760ca5461352a906001600160a01b03168887614783565b8251602080850151604080519384529183015233917fbcc5876d59ecdf66ef7ccae24657b11650939218782f8d741e78fd3c35d285a3910160405180910390a2604080840151606085015182519182526020820152600080516020615d5e833981519152910160405180910390a160408051898152602081018890529081018690526001600160a01b038816907f86dacd5ce62967ebd3d915a82b22ad7e159538e50c7ba451e073fec048d9f1279060600160405180910390a250506001609755509194909350915050565b6001600160a01b0383166136585760405162461bcd60e51b8152602060048201526024808201527f45524332303a20617070726f76652066726f6d20746865207a65726f206164646044820152637265737360e01b606482015260840161064e565b6001600160a01b0382166136b95760405162461bcd60e51b815260206004820152602260248201527f45524332303a20617070726f766520746f20746865207a65726f206164647265604482015261737360f01b606482015260840161064e565b6001600160a01b0383811660008181526066602090815260408083209487168084529482529182902085905590518481527f8c5be1e5ebec7d5bd14f71427d1e84f3dd0314c0f7b2291e5b200ac8c7c3b925910160405180910390a3505050565b600061372684846129c7565b905060001981146129c157818110156137815760405162461bcd60e51b815260206004820152601d60248201527f45524332303a20696e73756666696369656e7420616c6c6f77616e6365000000604482015260640161064e565b6129c184848484036135f6565b6001600160a01b0383166137f25760405162461bcd60e51b815260206004820152602560248201527f45524332303a207472616e736665722066726f6d20746865207a65726f206164604482015264647265737360d81b606482015260840161064e565b6001600160a01b0382166138545760405162461bcd60e51b815260206004820152602360248201527f45524332303a207472616e7366657220746f20746865207a65726f206164647260448201526265737360e81b606482015260840161064e565b6001600160a01b038316600090815260656020526040902054818110156138cc5760405162461bcd60e51b815260206004820152602660248201527f45524332303a207472616e7366657220616d6f756e7420657863656564732062604482015265616c616e636560d01b606482015260840161064e565b6001600160a01b0380851660009081526065602052604080822085850390559185168152908120805484929061390390849061528d565b92505081905550826001600160a01b0316846001600160a01b0316600080516020615d7e8339815191528460405161393d91815260200190565b60405180910390a36129c1565b60008060005b60d354811015613b1657600060d3828154811061396f5761396f61534a565b60009182526020808320604080516060810182529390910154600281810b855263010000008204900b92840192909252600160301b90910462ffffff1682820181905260c95460ca549251630b4c774160e11b81529395507f00000000000000000000000000000000000000000000000000000000000000006001600160a01b0390811694631698ee8294613a0e949383169392169190600401615493565b602060405180830381865afa158015613a2b573d6000803e3d6000fd5b505050506040513d601f19601f82011682018060405250810190613a4f91906154bb565b8251602084015160405163a34123a760e01b81529293506001600160a01b0384169263a34123a792613a88929091600090600401615c06565b60408051808303816000875af1158015613aa6573d6000803e3d6000fd5b505050506040513d601f19601f82011682018060405250810190613aca9190615acc565b5050600080613ae283856000015186602001516147a2565b9092509050613af1828861528d565b9650613afd818761528d565b9550505050508080613b0e90615360565b915050613950565b50613b218282613f52565b6040805183815260208101839052600080516020615d5e833981519152910160405180910390a19091565b6001600160a01b038116600090815260018301602052604081205415156106cc565b60006106cc836001600160a01b03841661484d565b6000610619825490565b60006106cc8383614940565b603380546001600160a01b038381166001600160a01b0319831681179093556040519116919082907f8be0079c531659141344cd1fd0a4f28419497f9722a3daafe3b4186f6b6457e090600090a35050565b60ce805460cf8054600093849055929055908115613c835760c95460d05460405163a9059cbb60e01b81526001600160a01b039283169263a9059cbb92613c39929116908690600401615ba4565b6020604051808303816000875af1925050508015613c74575060408051601f3d908101601f19168201909252613c71918101906159e6565b60015b613c815760009150613c83565b505b8015613d085760ca5460d05460405163a9059cbb60e01b81526001600160a01b039283169263a9059cbb92613cbf929116908590600401615ba4565b6020604051808303816000875af1925050508015613cfa575060408051601f3d908101601f19168201909252613cf7918101906159e6565b60015b613d0657506000613d08565b505b60408051838152602081018390527fa292e28c648da34e20b372054caab5f0359198b3b4d5f0ef9945d4616e15dc979101610a2c565b60005b83811015613e875760007f00000000000000000000000000000000000000000000000000000000000000006001600160a01b0316631698ee828585898987818110613d8e57613d8e61534a565b9050602002016020810190613da39190615476565b6040518463ffffffff1660e01b8152600401613dc193929190615493565b602060405180830381865afa158015613dde573d6000803e3d6000fd5b505050506040513d601f19601f82011682018060405250810190613e0291906154bb565b90506001600160a01b038116613e3f5760405162461bcd60e51b81526020600482015260026024820152615a4160f01b604482015260640161064e565b613e4a60d482613b4c565b15613e675760405162461bcd60e51b815260040161064e906159ae565b613e7260d48261496a565b50508080613e7f90615360565b915050613d41565b5050505050565b613e96614c96565b60405163a34123a760e01b81526001600160a01b0386169063a34123a790613ec690879087908790600401615c06565b60408051808303816000875af1158015613ee4573d6000803e3d6000fd5b505050506040513d601f19601f82011682018060405250810190613f089190615acc565b60208301528152600080613f1d8787876147a2565b84519193509150613f2e908361567d565b60408401526020830151613f42908261567d565b6060840152509095945050505050565b60cd5461ffff16612710613f668285615c2c565b613f709190615c61565b60ce6000828254613f81919061528d565b909155506127109050613f9861ffff831684615c2c565b613fa29190615c61565b60cf6000828254613fb3919061528d565b9091555050505050565b8015806140375750604051636eb1769f60e11b81523060048201526001600160a01b03838116602483015284169063dd62ed3e90604401602060405180830381865afa158015614011573d6000803e3d6000fd5b505050506040513d601f19601f8201168201806040525081019061403591906156ca565b155b6140a25760405162461bcd60e51b815260206004820152603660248201527f5361666545524332303a20617070726f76652066726f6d206e6f6e2d7a65726f60448201527520746f206e6f6e2d7a65726f20616c6c6f77616e636560501b606482015260840161064e565b6140f88363095ea7b360e01b84846040516024016140c1929190615ba4565b60408051601f198184030181529190526020810180516001600160e01b03166001600160e01b03199093169290921790915261497f565b505050565b600061410a848484614146565b90506000828061411c5761411c615c4b565b84860911156106cc57600019811061413357600080fd5b8061413d81615360565b95945050505050565b600080806000198587098587029250828110838203039150508060000361417f576000841161417457600080fd5b5082900490506106cc565b80841161418b57600080fd5b60008486880960026001871981018816978890046003810283188082028403028082028403028082028403028082028403028082028403029081029092039091026000889003889004909101858311909403939093029303949094049190911702949350505050565b6001600160a01b03821661424a5760405162461bcd60e51b815260206004820152601f60248201527f45524332303a206d696e7420746f20746865207a65726f206164647265737300604482015260640161064e565b806067600082825461425c919061528d565b90915550506001600160a01b0382166000908152606560205260408120805483929061428990849061528d565b90915550506040518181526001600160a01b03831690600090600080516020615d7e8339815191529060200160405180910390a35050565b6040516001600160a01b03808516602483015283166044820152606481018290526129c19085906323b872dd60e01b906084016140c1565b60006001600160801b038211156143625760405162461bcd60e51b815260206004820152602760248201527f53616665436173743a2076616c756520646f65736e27742066697420696e20316044820152663238206269747360c81b606482015260840161064e565b5090565b60005b818110156144b25760c9546001600160a01b031683838381811061438f5761438f61534a565b90506020020160208101906143a49190614e3b565b6001600160a01b0316141580156143f5575060ca546001600160a01b03168383838181106143d4576143d461534a565b90506020020160208101906143e99190614e3b565b6001600160a01b031614155b6144265760405162461bcd60e51b8152602060048201526002602482015261149560f21b604482015260640161064e565b61443b838383818110611e9c57611e9c61534a565b1561446d5760405162461bcd60e51b815260206004820152600260248201526121a960f11b604482015260640161064e565b61449f8383838181106144825761448261534a565b90506020020160208101906144979190614e3b565b60d69061496a565b50806144aa81615360565b915050614369565b507f102656122b5bfb41d864259a385db02d34584f3a71b6c6c35c14cbdaf9038fe68282604051610a2c929190615379565b6144ef60d433613b4c565b6145205760405162461bcd60e51b8152602060048201526002602482015261434360f01b604482015260640161064e565b811561453d5760c95461453d906001600160a01b03163384614783565b80156127e95760ca546127e9906001600160a01b03163383614783565b60008054610100900460ff16156145a1578160ff16600114801561457d5750303b155b6145995760405162461bcd60e51b815260040161064e90615c83565b506000919050565b60005460ff8084169116106145c85760405162461bcd60e51b815260040161064e90615c83565b506000805460ff191660ff92909216919091179055600190565b919050565b600054610100900460ff1661460e5760405162461bcd60e51b815260040161064e90615cd1565b6127e98282614a51565b600054610100900460ff1661463f5760405162461bcd60e51b815260040161064e90615cd1565b610bbb614a9f565b6001600160a01b0382166146a75760405162461bcd60e51b815260206004820152602160248201527f45524332303a206275726e2066726f6d20746865207a65726f206164647265736044820152607360f81b606482015260840161064e565b6001600160a01b0382166000908152606560205260409020548181101561471b5760405162461bcd60e51b815260206004820152602260248201527f45524332303a206275726e20616d6f756e7420657863656564732062616c616e604482015261636560f01b606482015260840161064e565b6001600160a01b038316600090815260656020526040812083830390556067805484929061474a90849061567d565b90915550506040518281526000906001600160a01b03851690600080516020615d7e8339815191529060200160405180910390a3505050565b6140f88363a9059cbb60e01b84846040516024016140c1929190615ba4565b6040516309e3d67b60e31b8152306004820152600283810b602483015282900b60448201526001600160801b0360648201819052608482015260009081906001600160a01b03861690634f1eb3d89060a40160408051808303816000875af1158015614812573d6000803e3d6000fd5b505050506040513d601f19601f820116820180604052508101906148369190615d1c565b6001600160801b0391821697911695509350505050565b6000818152600183016020526040812054801561493657600061487160018361567d565b85549091506000906148859060019061567d565b90508181146148ea5760008660000182815481106148a5576148a561534a565b90600052602060002001549050808760000184815481106148c8576148c861534a565b6000918252602080832090910192909255918252600188019052604090208390555b85548690806148fb576148fb615694565b600190038181906000526020600020016000905590558560010160008681526020019081526020016000206000905560019350505050610619565b6000915050610619565b60008260000182815481106149575761495761534a565b9060005260206000200154905092915050565b60006106cc836001600160a01b038416614ac6565b60006149d4826040518060400160405280602081526020017f5361666545524332303a206c6f772d6c6576656c2063616c6c206661696c6564815250856001600160a01b0316614b159092919063ffffffff16565b8051909150156140f857808060200190518101906149f291906159e6565b6140f85760405162461bcd60e51b815260206004820152602a60248201527f5361666545524332303a204552433230206f7065726174696f6e20646964206e6044820152691bdd081cdd58d8d9595960b21b606482015260840161064e565b600054610100900460ff16614a785760405162461bcd60e51b815260040161064e90615cd1565b8151614a8b906068906020850190614cdc565b5080516140f8906069906020840190614cdc565b600054610100900460ff16610bbd5760405162461bcd60e51b815260040161064e90615cd1565b6000818152600183016020526040812054614b0d57508154600181810184556000848152602080822090930184905584548482528286019093526040902091909155610619565b506000610619565b6060614b248484600085614b2c565b949350505050565b606082471015614b8d5760405162461bcd60e51b815260206004820152602660248201527f416464726573733a20696e73756666696369656e742062616c616e636520666f6044820152651c8818d85b1b60d21b606482015260840161064e565b6001600160a01b0385163b614be45760405162461bcd60e51b815260206004820152601d60248201527f416464726573733a2063616c6c20746f206e6f6e2d636f6e7472616374000000604482015260640161064e565b600080866001600160a01b03168587604051614c009190615d4b565b60006040518083038185875af1925050503d8060008114614c3d576040519150601f19603f3d011682016040523d82523d6000602084013e614c42565b606091505b5091509150614c52828286614c5d565b979650505050505050565b60608315614c6c5750816106cc565b825115614c7c5782518084602001fd5b8160405162461bcd60e51b815260040161064e9190614dbc565b6040518060800160405280600081526020016000815260200160008152602001600081525090565b5080546000825590600052602060002090810190612f039190614d5c565b828054614ce890615208565b90600052602060002090601f016020900481019282614d0a5760008555614d50565b82601f10614d2357805160ff1916838001178555614d50565b82800160010185558215614d50579182015b82811115614d50578251825591602001919060010190614d35565b50614362929150614d7b565b5b808211156143625780546001600160481b0319168155600101614d5d565b5b808211156143625760008155600101614d7c565b60005b83811015614dab578181015183820152602001614d93565b838111156129c15750506000910152565b6020815260008251806020840152614ddb816040850160208701614d90565b601f01601f19169190910160400192915050565b6001600160a01b0381168114612f0357600080fd5b80356145e281614def565b60008060408385031215614e2257600080fd5b8235614e2d81614def565b946020939093013593505050565b600060208284031215614e4d57600080fd5b81356106cc81614def565b6001600160a01b03169052565b6001600160a01b0391909116815260200190565b600080600060608486031215614e8e57600080fd5b8335614e9981614def565b92506020840135614ea981614def565b929592945050506040919091013590565b60008060408385031215614ecd57600080fd5b50508035926020909101359150565b600060208284031215614eee57600080fd5b813561ffff811681146106cc57600080fd5b60008083601f840112614f1257600080fd5b5081356001600160401b03811115614f2957600080fd5b6020830191508360208260051b8501011115614f4457600080fd5b9250929050565b60008060208385031215614f5e57600080fd5b82356001600160401b03811115614f7457600080fd5b614f8085828601614f00565b90969095509350505050565b805160020b8252602081015160020b602083015262ffffff60408201511660408301525050565b6020808252825182820181905260009190848201906040850190845b81811015614ff557614fe2838551614f8c565b9284019260609290920191600101614fcf565b50909695505050505050565b6020808252825182820181905260009190848201906040850190845b81811015614ff55783516001600160a01b03168352928401929184019160010161501d565b60006020828403121561505457600080fd5b81356001600160401b0381111561506a57600080fd5b820160e081850312156106cc57600080fd5b6000806040838503121561508f57600080fd5b8235915060208301356150a181614def565b809150509250929050565b60008083601f8401126150be57600080fd5b5081356001600160401b038111156150d557600080fd5b602083019150836020828501011115614f4457600080fd5b6000806000806060858703121561510357600080fd5b843593506020850135925060408501356001600160401b0381111561512757600080fd5b615133878288016150ac565b95989497509550505050565b6000806040838503121561515257600080fd5b823561515d81614def565b915060208301356150a181614def565b60008060008060006060868803121561518557600080fd5b85356001600160401b038082111561519c57600080fd5b6151a889838a016150ac565b909750955060208801359150808211156151c157600080fd5b6151cd89838a016150ac565b909550935060408801359150808211156151e657600080fd5b50860161010081890312156151fa57600080fd5b809150509295509295909350565b600181811c9082168061521c57607f821691505b60208210810361523c57634e487b7160e01b600052602260045260246000fd5b50919050565b6020808252818101527f4f776e61626c653a2063616c6c6572206973206e6f7420746865206f776e6572604082015260600190565b634e487b7160e01b600052601160045260246000fd5b600082198211156152a0576152a0615277565b500190565b6020808252600190820152604960f81b604082015260600190565b602080825260029082015261545360f01b604082015260600190565b6020808252600190820152602960f91b604082015260600190565b6020808252601f908201527f5265656e7472616e637947756172643a207265656e7472616e742063616c6c00604082015260600190565b6020808252600290820152614e4d60f01b604082015260600190565b634e487b7160e01b600052603260045260246000fd5b60006001820161537257615372615277565b5060010190565b60208082528181018390526000908460408401835b868110156153bc5782356153a181614def565b6001600160a01b03168252918301919083019060010161538e565b509695505050505050565b634e487b7160e01b600052604160045260246000fd5b62ffffff81168114612f0357600080fd5b60208082528181018390526000908460408401835b868110156153bc578235615416816153dd565b62ffffff1682529183019190830190600101615403565b6000808335601e1984360301811261544457600080fd5b8301803591506001600160401b0382111561545e57600080fd5b6020019150600781901b3603821315614f4457600080fd5b60006020828403121561548857600080fd5b81356106cc816153dd565b6001600160a01b03938416815291909216602082015262ffffff909116604082015260600190565b6000602082840312156154cd57600080fd5b81516106cc81614def565b8060020b8114612f0357600080fd5b6000602082840312156154f957600080fd5b81356106cc816154d8565b6001600160a01b039485168152929093166020830152600290810b60408301529190910b606082015260800190565b6001600160801b0381168114612f0357600080fd5b60006020828403121561555a57600080fd5b81516106cc81615533565b60006020828403121561557757600080fd5b81356106cc81615533565b803561558d816154d8565b60020b825260208101356155a0816154d8565b60020b602083015260408101356155b6816153dd565b62ffffff81166040840152505050565b6000608082016080835280855480835260a08501915086600052602092508260002060005b82811015615626578154600281810b8652601882901c900b8686015260301c62ffffff166040850152606090930192600191820191016155eb565b5050508092505061563981840185615582565b509392505050565b8015158114612f0357600080fd5b6000806040838503121561566257600080fd5b825161566d81615641565b6020939093015192949293505050565b60008282101561568f5761568f615277565b500390565b634e487b7160e01b600052603160045260246000fd5b60008235609e198336030181126156c057600080fd5b9190910192915050565b6000602082840312156156dc57600080fd5b5051919050565b6000808335601e198436030181126156fa57600080fd5b8301803591506001600160401b0382111561571457600080fd5b602001915036819003821315614f4457600080fd5b8183823760009101908152919050565b80356145e281615641565b60006020828403121561575657600080fd5b81356106cc81615641565b60208082526002908201526129a360f11b604082015260600190565b6000808335601e1984360301811261579457600080fd5b83016020810192503590506001600160401b038111156157b357600080fd5b8060071b3603831315614f4457600080fd5b8183526000602080850194508260005b858110156158145781356157e881615533565b6001600160801b03168752615801838801838501615582565b60809687019691909101906001016157d5565b509495945050505050565b81835281816020850137506000828201602090810191909152601f909101601f19169091010190565b60008135601e1983360301811261585e57600080fd5b820180356001600160401b0381111561587657600080fd5b80360384131561588557600080fd5b60a0855261589a60a08601826020850161581f565b9150506158a960208401614e04565b6158b66020860182614e58565b5060408301356040850152606083013560608501526158d760808401615739565b8015156080860152615639565b60006158f0828361577d565b60e0855261590260e0860182846157c5565b915050615912602084018461577d565b85830360208701526159258382846157c5565b925050506040830135609e1984360301811261594057600080fd5b848203604086015261595482858301615848565b915050606083013560608501526080830135608085015260a083013560a085015260c083013560c08501528091505092915050565b60608152600061599c60608301866158e4565b60208301949094525060400152919050565b6020808252600190820152600560fc1b604082015260600190565b6001600160a01b0383168152608081016106cc6020830184615582565b6000602082840312156159f857600080fd5b81516106cc81615641565b8135615a0e816154d8565b815462ffffff82811662ffffff1983161784556020850135615a2f816154d8565b8060181b9050818416935065ffffff00000091508082168465ffffffffffff198516171785556040860135615a63816153dd565b91166001600160481b0319929092169092171760309190911b62ffffff60301b1617905550565b6001600160a01b03949094168452600292830b6020850152910b60408301526001600160801b0316606082015260a06080820181905260009082015260c00190565b60008060408385031215615adf57600080fd5b505080516020909101519092909150565b6060808252845160a083830152805161010084018190526000929160209190820190610120860190855b81811015615b3d57615b2d838551614f8c565b9284019291850191600101615b1a565b5050828901519150615b526080870183614e58565b60408901519150615b6660a0870183614e58565b9288015192615b7860c0870185614e58565b60808901519350615b8c60e0870185614e58565b91850196909652604090930193909352509392505050565b6001600160a01b03929092168252602082015260400190565b6000808335601e19843603018112615bd457600080fd5b8301803591506001600160401b03821115615bee57600080fd5b6020019150600581901b3603821315614f4457600080fd5b600293840b81529190920b60208201526001600160801b03909116604082015260600190565b6000816000190483118215151615615c4657615c46615277565b500290565b634e487b7160e01b600052601260045260246000fd5b600082615c7e57634e487b7160e01b600052601260045260246000fd5b500490565b6020808252602e908201527f496e697469616c697a61626c653a20636f6e747261637420697320616c72656160408201526d191e481a5b9a5d1a585b1a5e995960921b606082015260800190565b6020808252602b908201527f496e697469616c697a61626c653a20636f6e7472616374206973206e6f74206960408201526a6e697469616c697a696e6760a81b606082015260800190565b60008060408385031215615d2f57600080fd5b8251615d3a81615533565b60208401519092506150a181615533565b600082516156c0818460208701614d9056fedbbb3a796242c9562af701570b096cb2478cd507fcd2d4080025883b10a623a5ddf252ad1be2c89b69c2b068fc378daa952ba7f163c4a11628f55a4df523b3efa264697066735822122055d96bde743f12eee16348183aa6c06ff2e567eb674d8556096d392b7711004e64736f6c634300080d0033",
  "deployedBytecode": "0x608060405234801561001057600080fd5b50600436106102345760003560e01c80638712e49711610131578063ccdf7a02116100b3578063ccdf7a02146104a9578063d0ebdbe7146104ca578063d0fb0203146104dd578063d21220a7146104f0578063d348799714610503578063dd62ed3e14610516578063e4fadbce14610529578063f2eb3e341461053c578063f2fde38b14610545578063f88c31ce14610558578063fcd3533c1461056057600080fd5b80638712e497146103d05780638da5cb5b146103e357806392e49dfd146103eb57806394bf804d146103fe57806395d89b4114610426578063a457c2d71461042e578063a5ff1dc714610441578063a9059cbb14610454578063c45a015514610467578063c7a4ae171461048e578063c8796572146104a157600080fd5b806342fb9d44116101ba57806342fb9d441461031b578063472d35b9146103245780634794c84a14610337578063481c6a751461034a5780634b1641401461035d578063617a341914610370578063673a2a1f1461038557806370a082311461039a578063715018a6146103ad5780637ecd6717146103b557806386ac1cb9146103bd57600080fd5b8063065756db1461023957806306fdde0314610255578063095ea7b31461026a5780630d6e66311461028d5780630dfe1681146102a257806314b80630146102c257806318160ddd146102cb57806323b872dd146102d3578063313ce567146102e657806339509351146102f55780633f7b613514610308575b600080fd5b61024260ce5481565b6040519081526020015b60405180910390f35b61025d610573565b60405161024c9190614dbc565b61027d610278366004614e0f565b610605565b604051901515815260200161024c565b6102a061029b366004614e3b565b61061f565b005b60c9546102b5906001600160a01b031681565b60405161024c9190614e65565b61024260cb5481565b606754610242565b61027d6102e1366004614e79565b6106ad565b6040516012815260200161024c565b61027d610303366004614e0f565b6106d3565b6102a0610316366004614eba565b6106f5565b61024260cf5481565b6102a0610332366004614e3b565b6107df565b6102a0610345366004614edc565b610857565b60d0546102b5906001600160a01b031681565b6102a061036b366004614f4b565b610918565b610378610a38565b60405161024c9190614fb3565b61038d610ab8565b60405161024c9190615001565b6102426103a8366004614e3b565b610b67565b6102a0610b82565b6102a0610881565b6102a06103cb366004614f4b565b610bc4565b6102a06103de366004615042565b610c44565b6102b5611e3e565b6102a06103f9366004614f4b565b611e4d565b61041161040c36600461507c565b611f59565b6040805192835260208301919091520161024c565b61025d61271b565b61027d61043c366004614e0f565b61272a565b6102a061044f366004614f4b565b6127b0565b61027d610462366004614e0f565b6127ed565b6102b57f000000000000000000000000000000000000000000000000000000000000000081565b60d1546102b5906001600160a01b031681565b6102a06127fb565b60cd546104b79061ffff1681565b60405161ffff909116815260200161024c565b6102a06104d8366004614e3b565b61290e565b60d2546102b5906001600160a01b031681565b60ca546102b5906001600160a01b031681565b6102a06105113660046150ed565b6129b7565b61024261052436600461513f565b6129c7565b6102a061053736600461516d565b6129f2565b61024260cc5481565b6102a0610553366004614e3b565b612e66565b61038d612f06565b61041161056e36600461507c565b612fae565b60606068805461058290615208565b80601f01602080910402602001604051908101604052809291908181526020018280546105ae90615208565b80156105fb5780601f106105d0576101008083540402835291602001916105fb565b820191906000526020600020905b8154815290600101906020018083116105de57829003601f168201915b5050505050905090565b6000336106138185856135f6565b60019150505b92915050565b33610628611e3e565b6001600160a01b0316146106575760405162461bcd60e51b815260040161064e90615242565b60405180910390fd5b60d180546001600160a01b0319166001600160a01b0383161790556040517f6b7f177e85ebe3aabaf1339b9a445ac908b2bef730372180fa280958e2414ee3906106a2908390614e65565b60405180910390a150565b6000336106bb85828561371a565b6106c685858561378e565b60019150505b9392505050565b6000336106138185856106e683836129c7565b6106f0919061528d565b6135f6565b60008211806107045750600081115b6107205760405162461bcd60e51b815260040161064e906152a5565b606754156107405760405162461bcd60e51b815260040161064e906152c0565b60d1546000906001600160a01b0316156107655760d1546001600160a01b031661076d565b61076d611e3e565b9050336001600160a01b038216146107975760405162461bcd60e51b815260040161064e906152dc565b60cb83905560cc82905560408051848152602081018490527ff8966e026442bb0adb17149a6d44e394d2b6eb3c5cc1dc71b3c0698000548ae6910160405180910390a1505050565b336107e8611e3e565b6001600160a01b03161461080e5760405162461bcd60e51b815260040161064e90615242565b6002609754036108305760405162461bcd60e51b815260040161064e906152f7565b60d280546001600160a01b0319166001600160a01b03929092169190911790556001609755565b60d0546001600160a01b031633146108815760405162461bcd60e51b815260040161064e9061532e565b6002609754036108a35760405162461bcd60e51b815260040161064e906152f7565b600260975560405162461bcd60e51b815260206004820152602f60248201527f5468697320666561747572652069732064697361626c656420696e207468652060448201526e31bab93932b73a103b32b939b4b7b760891b606482015260840161064e565b60405180910390a1506001609755565b33610921611e3e565b6001600160a01b0316146109475760405162461bcd60e51b815260040161064e90615242565b60005b818110156109fa576109848383838181106109675761096761534a565b905060200201602081019061097c9190614e3b565b60d490613b4c565b6109b55760405162461bcd60e51b815260206004820152600260248201526104e560f41b604482015260640161064e565b6109e78383838181106109ca576109ca61534a565b90506020020160208101906109df9190614e3b565b60d490613b6e565b50806109f281615360565b91505061094a565b507f024551cce253d1a442bfe99dae530a00a492fb8c67c4456cce3c9d23eecd39618282604051610a2c929190615379565b60405180910390a15050565b606060d3805480602002602001604051908101604052809291908181526020016000905b82821015610aaf5760008481526020908190206040805160608101825291850154600281810b845263010000008204900b83850152600160301b900462ffffff1690820152825260019092019101610a5c565b50505050905090565b60606000610ac660d4613b83565b90506000816001600160401b03811115610ae257610ae26153c7565b604051908082528060200260200182016040528015610b0b578160200160208202803683370190505b50905060005b82811015610b6057610b2460d482613b8d565b828281518110610b3657610b3661534a565b6001600160a01b039092166020928302919091019091015280610b5881615360565b915050610b11565b5092915050565b6001600160a01b031660009081526065602052604090205490565b33610b8b611e3e565b6001600160a01b031614610bb15760405162461bcd60e51b815260040161064e90615242565b610bbb6000613b99565b565b6001609755565b33610bcd611e3e565b6001600160a01b031614610bf35760405162461bcd60e51b815260040161064e90615242565b60c95460ca54610c1391849184916001600160a01b039081169116613d3e565b7f1b402611d70c7735d942445aaa3ebbf878149bece6b797870b44a581c5f7f4c98282604051610a2c9291906153ee565b60d0546001600160a01b03163314610c6e5760405162461bcd60e51b815260040161064e9061532e565b600260975403610c905760405162461bcd60e51b815260040161064e906152f7565b600260975560c95460ca547f0000000000000000000000000000000000000000000000000000000000000000916001600160a01b039081169116610cd26127fb565b610cda614c96565b60005b610ce7868061542d565b90508110156111c65760006001600160a01b038616631698ee828686610d0d8b8061542d565b87818110610d1d57610d1d61534a565b610d34926080918202019081019150606001615476565b6040518463ffffffff1660e01b8152600401610d5293929190615493565b602060405180830381865afa158015610d6f573d6000803e3d6000fd5b505050506040513d601f19601f82011682018060405250810190610d9391906154bb565b9050600073__$b131e44167300e1b6d47510635310686a7$__635f49415b8330610dbd8c8061542d565b88818110610dcd57610dcd61534a565b610de692604060809092020190810191506020016154e7565b610df08d8061542d565b89818110610e0057610e0061534a565b610e1992606060809092020190810191506040016154e7565b6040518563ffffffff1660e01b8152600401610e389493929190615504565b602060405180830381865af4158015610e55573d6000803e3d6000fd5b505050506040513d601f19601f82011682018060405250810190610e799190615548565b9050806001600160801b0316600003610e935750506111b4565b60006001600160801b03610ea78a8061542d565b86818110610eb757610eb761534a565b610ecd9260206080909202019081019150615565565b6001600160801b031603610ee2575080610f15565b610eec898061542d565b85818110610efc57610efc61534a565b610f129260206080909202019081019150615565565b90505b6000610f8784610f258c8061542d565b88818110610f3557610f3561534a565b610f4e92604060809092020190810191506020016154e7565b610f588d8061542d565b89818110610f6857610f6861534a565b610f8192606060809092020190810191506040016154e7565b85613e8e565b9050826001600160801b0316826001600160801b0316036111505760008073__$b131e44167300e1b6d47510635310686a7$__630c3c0bfc60d3610fcb8f8061542d565b8b818110610fdb57610fdb61534a565b9050608002016020016040518363ffffffff1660e01b81526004016110019291906155c6565b6040805180830381865af415801561101d573d6000803e3d6000fd5b505050506040513d601f19601f82011682018060405250810190611041919061564f565b915091508161107b5760405162461bcd60e51b815260040161064e9060208082526004908201526352524e4560e01b604082015260600190565b60d3805461108b9060019061567d565b8154811061109b5761109b61534a565b9060005260206000200160d382815481106110b8576110b861534a565b6000918252602090912082549101805462ffffff92831662ffffff19821681178355845463010000009081900485160265ffffffffffff1990921617178082559254600160301b9081900490921690910262ffffff60301b1990921691909117905560d380548061112b5761112b615694565b600082815260209020810160001990810180546001600160481b031916905501905550505b80518651879061116190839061528d565b905250602080820151908701805161117a90839061528d565b905250604080820151908701805161119390839061528d565b90525060608082015190870180516111ac90839061528d565b905250505050505b806111be81615360565b915050610cdd565b508051606086013511156112015760405162461bcd60e51b8152602060048201526002602482015261042360f41b604482015260640161064e565b84608001358160200151101561123e5760405162461bcd60e51b8152602060048201526002602482015261423160f01b604482015260640161064e565b600081604001511180611255575060008160600151115b1561129b5761126c81604001518260600151613f52565b604080820151606083015182519182526020820152600080516020615d5e833981519152910160405180910390a15b5060006112ab60408601866156aa565b6040013511156117c3576112de6112c560408601866156aa565b6112d6906040810190602001614e3b565b60d690613b4c565b61130f5760405162461bcd60e51b8152602060048201526002602482015261272960f11b604482015260640161064e565b6040516370a0823160e01b81526000906001600160a01b038416906370a082319061133e903090600401614e65565b602060405180830381865afa15801561135b573d6000803e3d6000fd5b505050506040513d601f19601f8201168201806040525081019061137f91906156ca565b90506000826001600160a01b03166370a08231306040518263ffffffff1660e01b81526004016113af9190614e65565b602060405180830381865afa1580156113cc573d6000803e3d6000fd5b505050506040513d601f19601f820116820180604052508101906113f091906156ca565b905061142561140260408801886156aa565b611413906040810190602001614e3b565b6001600160a01b038616906000613fbd565b61145861143560408801886156aa565b611446906040810190602001614e3b565b6001600160a01b038516906000613fbd565b61148a61146860408801886156aa565b611479906040810190602001614e3b565b6001600160a01b0386169084613fbd565b6114bc61149a60408801886156aa565b6114ab906040810190602001614e3b565b6001600160a01b0385169083613fbd565b60006114cb60408801886156aa565b6114dc906040810190602001614e3b565b6001600160a01b03166114f260408901896156aa565b6114fc90806156e3565b60405161150a929190615729565b6000604051808303816000865af19150503d8060008114611547576040519150601f19603f3d011682016040523d82523d6000602084013e61154c565b606091505b50509050806115825760405162461bcd60e51b8152602060048201526002602482015261534360f01b604482015260640161064e565b6040516370a0823160e01b81526000906001600160a01b038716906370a08231906115b1903090600401614e65565b602060405180830381865afa1580156115ce573d6000803e3d6000fd5b505050506040513d601f19601f820116820180604052508101906115f291906156ca565b90506000856001600160a01b03166370a08231306040518263ffffffff1660e01b81526004016116229190614e65565b602060405180830381865afa15801561163f573d6000803e3d6000fd5b505050506040513d601f19601f8201168201806040525081019061166391906156ca565b905061167260408a018a6156aa565b6116839060a0810190608001615744565b156117055761169560408a018a6156aa565b6116a390606001358561528d565b81101580156116cc57506116ba60408a018a6156aa565b6116c890604001358661567d565b8210155b6116e85760405162461bcd60e51b815260040161064e90615761565b6116f2828661567d565b91506116fe848261567d565b905061177e565b61171260408a018a6156aa565b61172090606001358661528d565b8210158015611749575061173760408a018a6156aa565b61174590604001358561567d565b8110155b6117655760405162461bcd60e51b815260040161064e90615761565b61176f858361567d565b915061177b818561567d565b90505b7fab3abe7e2ad787892344ed4ada44aad53c7d53e9d6b5ee91f20bd30ed39540b78983836040516117b193929190615989565b60405180910390a15050505050611800565b7fab3abe7e2ad787892344ed4ada44aad53c7d53e9d6b5ee91f20bd30ed39540b7846000806040516117f793929190615989565b60405180910390a15b60008060005b611813602088018861542d565b9050811015611c6e57600073__$b131e44167300e1b6d47510635310686a7$__630c3c0bfc60d361184760208c018c61542d565b868181106118575761185761534a565b9050608002016020016040518363ffffffff1660e01b815260040161187d9291906155c6565b6040805180830381865af4158015611899573d6000803e3d6000fd5b505050506040513d601f19601f820116820180604052508101906118bd919061564f565b5060c95460ca549192506000916001600160a01b037f0000000000000000000000000000000000000000000000000000000000000000811692631698ee8292908216911661190e60208e018e61542d565b8881811061191e5761191e61534a565b611935926080918202019081019150606001615476565b6040518463ffffffff1660e01b815260040161195393929190615493565b602060405180830381865afa158015611970573d6000803e3d6000fd5b505050506040513d601f19601f8201168201806040525081019061199491906154bb565b905081611b21576001600160a01b0381166119d75760405162461bcd60e51b815260206004820152600360248201526204e55560ec1b604482015260640161064e565b6119e260d482613b4c565b6119fe5760405162461bcd60e51b815260040161064e906159ae565b73__$57c880716d25c772e0b1e547659075b66d$__636b01882082611a2660208d018d61542d565b87818110611a3657611a3661534a565b9050608002016020016040518363ffffffff1660e01b8152600401611a5c9291906159c9565b602060405180830381865af4158015611a79573d6000803e3d6000fd5b505050506040513d601f19601f82011682018060405250810190611a9d91906159e6565b611acf5760405162461bcd60e51b815260206004820152600360248201526252545360e81b604482015260640161064e565b60d3611ade60208b018b61542d565b85818110611aee57611aee61534a565b8354600181018555600094855260209485902060809092029390930193909301929091019050611b1e8282615a03565b50505b6000806001600160a01b038316633c8a7d8d30611b4160208f018f61542d565b89818110611b5157611b5161534a565b611b6a92604060809092020190810191506020016154e7565b8e8060200190611b7a919061542d565b8a818110611b8a57611b8a61534a565b611ba392606060809092020190810191506040016154e7565b8f8060200190611bb3919061542d565b8b818110611bc357611bc361534a565b611bd99260206080909202019081019150615565565b6040518563ffffffff1660e01b8152600401611bf89493929190615a8a565b60408051808303816000875af1158015611c16573d6000803e3d6000fd5b505050506040513d601f19601f82011682018060405250810190611c3a9190615acc565b9092509050611c49828861528d565b9650611c55818761528d565b9550505050508080611c6690615360565b915050611806565b508560a00135821015611ca85760405162461bcd60e51b8152602060048201526002602482015261044360f41b604482015260640161064e565b8560c00135811015611ce15760405162461bcd60e51b8152602060048201526002602482015261443160f01b604482015260640161064e565b60ce5460c9546040516370a0823160e01b81526001600160a01b03909116906370a0823190611d14903090600401614e65565b602060405180830381865afa158015611d31573d6000803e3d6000fd5b505050506040513d601f19601f82011682018060405250810190611d5591906156ca565b1015611d895760405162461bcd60e51b815260206004820152600360248201526204d42360ec1b604482015260640161064e565b60cf5460ca546040516370a0823160e01b81526001600160a01b03909116906370a0823190611dbc903090600401614e65565b602060405180830381865afa158015611dd9573d6000803e3d6000fd5b505050506040513d601f19601f82011682018060405250810190611dfd91906156ca565b1015611e315760405162461bcd60e51b81526020600482015260036024820152624d423160e81b604482015260640161064e565b5050600160975550505050565b6033546001600160a01b031690565b33611e56611e3e565b6001600160a01b031614611e7c5760405162461bcd60e51b815260040161064e90615242565b60005b81811015611f2757611eb1838383818110611e9c57611e9c61534a565b90506020020160208101906112d69190614e3b565b611ee25760405162461bcd60e51b8152602060048201526002602482015261525760f01b604482015260640161064e565b611f14838383818110611ef757611ef761534a565b9050602002016020810190611f0c9190614e3b565b60d690613b6e565b5080611f1f81615360565b915050611e7f565b507fbe6c83115c5bf7fd07e41c6002394841bd7dc0348f3b7c58645e8950f604f5c48282604051610a2c929190615379565b600080600260975403611f7e5760405162461bcd60e51b815260040161064e906152f7565b600260975583611fb55760405162461bcd60e51b81526020600482015260026024820152614d4160f01b604482015260640161064e565b60d1546001600160a01b03161580611fd7575060d1546001600160a01b031633145b611ff35760405162461bcd60e51b815260040161064e906152dc565b306000611fff60675490565b905080151561200c6127fb565b60d254604051630ad0753560e11b81526001600160a01b03909116906315a0ea6a9061203c908990600401614e65565b600060405180830381600087803b15801561205657600080fd5b505af115801561206a573d6000803e3d6000fd5b5050505080156121d65773__$3d23d8578387a47facd93bb77f6fe6e81b$__6383d7ba9f6040518060a0016040528060d3805480602002602001604051908101604052809291908181526020016000905b8282101561210e5760008481526020908190206040805160608101825291850154600281810b845263010000008204900b83850152600160301b900462ffffff16908201528252600190920191016120bb565b505050908252506001600160a01b037f00000000000000000000000000000000000000000000000000000000000000008116602083015260c954811660408084019190915260ca5482166060840152908816608090920191909152516001600160e01b031960e084901b16815261218c91908b908790600401615af0565b6040805180830381865af41580156121a8573d6000803e3d6000fd5b505050506040513d601f19601f820116820180604052508101906121cc9190615acc565b90955093506122b8565b60cb5460cc54670de0b6b3a764000091906121f28a83856140fd565b97506121ff8a82856140fd565b965061220c8a8385614146565b60000361221857600097505b6122238a8285614146565b60000361222f57600096505b6000826000036122415760001961224c565b61224c898585614146565b90506000826000036122605760001961226b565b61226b898685614146565b90508b81831061227b578161227d565b825b146122b25760405162461bcd60e51b8152602060048201526005602482015264413026413160d81b604482015260640161064e565b50505050505b6122c286886141f4565b60d2546001600160a01b0316634158e3e3876123d36122e082610b67565b60d260009054906101000a90046001600160a01b03166001600160a01b031663061960aa6040518163ffffffff1660e01b8152600401602060405180830381865afa158015612333573d6000803e3d6000fd5b505050506040513d601f19601f8201168201806040525081019061235791906156ca565b60d260009054906101000a90046001600160a01b03166001600160a01b03166386b3cd266040518163ffffffff1660e01b8152600401602060405180830381865afa1580156123aa573d6000803e3d6000fd5b505050506040513d601f19601f820116820180604052508101906123ce91906156ca565b614146565b6040518363ffffffff1660e01b81526004016123f0929190615ba4565b600060405180830381600087803b15801561240a57600080fd5b505af115801561241e573d6000803e3d6000fd5b5050505060008511156124435760c954612443906001600160a01b03163385886142c1565b83156124615760ca54612461906001600160a01b03163385876142c1565b80156126be5760005b60d3548110156126bc57600060d382815481106124895761248961534a565b60009182526020808320604080516060810182529390910154600281810b855263010000008204900b92840192909252600160301b90910462ffffff1682820181905260c95460ca549251630b4c774160e11b81529395507f00000000000000000000000000000000000000000000000000000000000000006001600160a01b0390811694631698ee8294612528949383169392169190600401615493565b602060405180830381865afa158015612545573d6000803e3d6000fd5b505050506040513d601f19601f8201168201806040525081019061256991906154bb565b82516020840151604051635f49415b60e01b815292935060009273__$b131e44167300e1b6d47510635310686a7$__92635f49415b926125b19287928d929091600401615504565b602060405180830381865af41580156125ce573d6000803e3d6000fd5b505050506040513d601f19601f820116820180604052508101906125f29190615548565b905061261061260b826001600160801b03168d89614146565b6142f9565b9050806001600160801b031660000361262b575050506126aa565b82516020840151604051633c8a7d8d60e01b81526001600160a01b03851692633c8a7d8d92612662928c9291908790600401615a8a565b60408051808303816000875af1158015612680573d6000803e3d6000fd5b505050506040513d601f19601f820116820180604052508101906126a49190615acc565b50505050505b806126b481615360565b91505061246a565b505b60408051888152602081018790529081018590526001600160a01b038716907f5f11830295067c4bcc7d02d4e3b048cd7427be50a3aeb6afc9d3d559ee64bcfa9060600160405180910390a2505060016097555090939092509050565b60606069805461058290615208565b6000338161273882866129c7565b9050838110156127985760405162461bcd60e51b815260206004820152602560248201527f45524332303a2064656372656173656420616c6c6f77616e63652062656c6f77604482015264207a65726f60d81b606482015260840161064e565b6127a582868684036135f6565b506001949350505050565b336127b9611e3e565b6001600160a01b0316146127df5760405162461bcd60e51b815260040161064e90615242565b6127e98282614366565b5050565b60003361061381858561378e565b60d2546001600160a01b03166128395760405162461bcd60e51b81526020600482015260036024820152624e464d60e81b604482015260640161064e565b60675460000361284557565b60008061285061394a565b60d25460c954929450909250612873916001600160a01b03908116911684613fbd565b60d25460ca54612890916001600160a01b03918216911683613fbd565b60d25460c95460ca546040516375a9f56d60e01b81526001600160a01b039283166004820152602481018690529082166044820152606481018490529116906375a9f56d90608401600060405180830381600087803b1580156128f257600080fd5b505af1158015612906573d6000803e3d6000fd5b505050505050565b33612917611e3e565b6001600160a01b03161461293d5760405162461bcd60e51b815260040161064e90615242565b60026097540361295f5760405162461bcd60e51b815260040161064e906152f7565b600260975561296c613beb565b60d080546001600160a01b0319166001600160a01b0383161790556040517f9b6ffaf4cbfd923495440b7f17ced9394289f001b3ead53ab67e2c3f3e39b0f590610908908390614e65565b6129c184846144e4565b50505050565b6001600160a01b03918216600090815260666020908152604080832093909416825291909152205490565b60006129fe600161455a565b90508015612a16576000805461ff0019166101001790555b6000612a228380615bbd565b905011612a575760405162461bcd60e51b815260206004820152600360248201526213919560ea1b604482015260640161064e565b6000612a696040840160208501614e3b565b6001600160a01b031603612aa45760405162461bcd60e51b8152602060048201526002602482015261054360f41b604482015260640161064e565b612ab46060830160408401614e3b565b6001600160a01b0316612acd6040840160208501614e3b565b6001600160a01b031610612b095760405162461bcd60e51b815260206004820152600360248201526257544f60e81b604482015260640161064e565b6000612b1b6080840160608501614e3b565b6001600160a01b031603612b575760405162461bcd60e51b815260206004820152600360248201526227a0ad60e91b604482015260640161064e565b6000612b6960e0840160c08501614e3b565b6001600160a01b031603612ba55760405162461bcd60e51b815260206004820152600360248201526226a0ad60e91b604482015260640161064e565b600082608001351180612bbc575060008260a00135115b612bd85760405162461bcd60e51b815260040161064e906152a5565b612c4b86868080601f01602080910402602001604051908101604052809392919081815260200183838082843760009201919091525050604080516020601f8a0181900481028201810190925288815292508891508790819084018382808284376000920191909152506145e792505050565b612c53614618565b612c85612c608380615bbd565b612c706040860160208701614e3b565b612c806060870160408801614e3b565b613d3e565b612c956040830160208401614e3b565b60c980546001600160a01b0319166001600160a01b0392909216919091179055612cc56060830160408401614e3b565b60ca80546001600160a01b0319166001600160a01b0392909216919091179055612cfa612cf560e0840184615bbd565b614366565b612d12612d0d6080840160608501614e3b565b613b99565b612d2260e0830160c08401614e3b565b60d080546001600160a01b0319166001600160a01b0392909216919091179055608082013560cb5560a082013560cc557f1b402611d70c7735d942445aaa3ebbf878149bece6b797870b44a581c5f7f4c9612d7d8380615bbd565b604051612d8b9291906153ee565b60405180910390a1604080516080840135815260a084013560208201527ff8966e026442bb0adb17149a6d44e394d2b6eb3c5cc1dc71b3c0698000548ae6910160405180910390a17f9b6ffaf4cbfd923495440b7f17ced9394289f001b3ead53ab67e2c3f3e39b0f5612e0460e0840160c08501614e3b565b604051612e119190614e65565b60405180910390a18015612906576000805461ff0019169055604051600181527f7f26b83ff96e1f2b6a682f133852f6798a09c465da95921460cefb38474024989060200160405180910390a1505050505050565b33612e6f611e3e565b6001600160a01b031614612e955760405162461bcd60e51b815260040161064e90615242565b6001600160a01b038116612efa5760405162461bcd60e51b815260206004820152602660248201527f4f776e61626c653a206e6577206f776e657220697320746865207a65726f206160448201526564647265737360d01b606482015260840161064e565b612f0381613b99565b50565b60606000612f1460d6613b83565b90506000816001600160401b03811115612f3057612f306153c7565b604051908082528060200260200182016040528015612f59578160200160208202803683370190505b50905060005b82811015610b6057612f7260d682613b8d565b828281518110612f8457612f8461534a565b6001600160a01b039092166020928302919091019091015280612fa681615360565b915050612f5f565b600080600260975403612fd35760405162461bcd60e51b815260040161064e906152f7565b60026097558361300a5760405162461bcd60e51b8152602060048201526002602482015261424160f01b604482015260640161064e565b600061301560675490565b9050600081116130375760405162461bcd60e51b815260040161064e906152c0565b61303f6127fb565b60d254604051630ad0753560e11b81526001600160a01b03909116906315a0ea6a9061306f903390600401614e65565b600060405180830381600087803b15801561308957600080fd5b505af115801561309d573d6000803e3d6000fd5b505050506130ab3386614647565b60d2546001600160a01b0316634158e3e3336130c96122e082610b67565b6040518363ffffffff1660e01b81526004016130e6929190615ba4565b600060405180830381600087803b15801561310057600080fd5b505af1158015613114573d6000803e3d6000fd5b50505050613120614c96565b60005b60d35481101561336d57600060d382815481106131425761314261534a565b60009182526020808320604080516060810182529390910154600281810b855263010000008204900b92840192909252600160301b90910462ffffff1682820181905260c95460ca549251630b4c774160e11b81529395507f00000000000000000000000000000000000000000000000000000000000000006001600160a01b0390811694631698ee82946131e1949383169392169190600401615493565b602060405180830381865afa1580156131fe573d6000803e3d6000fd5b505050506040513d601f19601f8201168201806040525081019061322291906154bb565b82516020840151604051635f49415b60e01b815292935060009273__$b131e44167300e1b6d47510635310686a7$__92635f49415b9261326a92879230929091600401615504565b602060405180830381865af4158015613287573d6000803e3d6000fd5b505050506040513d601f19601f820116820180604052508101906132ab9190615548565b90506132c461260b826001600160801b03168c89614146565b9050806001600160801b03166000036132df5750505061335b565b60006132f5838560000151866020015185613e8e565b905080604001518660400181815161330d919061528d565b905250606080820151908701805161332690839061528d565b90525080518651879061333a90839061528d565b905250602080820151908701805161335390839061528d565b905250505050505b8061336581615360565b915050613123565b508186036133815761338160d36000614cbe565b61339381604001518260600151613f52565b805160ce5460c9546040516370a0823160e01b815260009392916001600160a01b0316906370a08231906133cb903090600401614e65565b602060405180830381865afa1580156133e8573d6000803e3d6000fd5b505050506040513d601f19601f8201168201806040525081019061340c91906156ca565b613416919061567d565b613420919061567d565b602083015160cf5460ca546040516370a0823160e01b81529394506000936001600160a01b03909116906370a082319061345e903090600401614e65565b602060405180830381865afa15801561347b573d6000803e3d6000fd5b505050506040513d601f19601f8201168201806040525081019061349f91906156ca565b6134a9919061567d565b6134b3919061567d565b90506134c0828986614146565b95506134cd818986614146565b83519095506134dc908761528d565b95508260200151856134ee919061528d565b9450851561350d5760c95461350d906001600160a01b03168888614783565b841561352a5760ca5461352a906001600160a01b03168887614783565b8251602080850151604080519384529183015233917fbcc5876d59ecdf66ef7ccae24657b11650939218782f8d741e78fd3c35d285a3910160405180910390a2604080840151606085015182519182526020820152600080516020615d5e833981519152910160405180910390a160408051898152602081018890529081018690526001600160a01b038816907f86dacd5ce62967ebd3d915a82b22ad7e159538e50c7ba451e073fec048d9f1279060600160405180910390a250506001609755509194909350915050565b6001600160a01b0383166136585760405162461bcd60e51b8152602060048201526024808201527f45524332303a20617070726f76652066726f6d20746865207a65726f206164646044820152637265737360e01b606482015260840161064e565b6001600160a01b0382166136b95760405162461bcd60e51b815260206004820152602260248201527f45524332303a20617070726f766520746f20746865207a65726f206164647265604482015261737360f01b606482015260840161064e565b6001600160a01b0383811660008181526066602090815260408083209487168084529482529182902085905590518481527f8c5be1e5ebec7d5bd14f71427d1e84f3dd0314c0f7b2291e5b200ac8c7c3b925910160405180910390a3505050565b600061372684846129c7565b905060001981146129c157818110156137815760405162461bcd60e51b815260206004820152601d60248201527f45524332303a20696e73756666696369656e7420616c6c6f77616e6365000000604482015260640161064e565b6129c184848484036135f6565b6001600160a01b0383166137f25760405162461bcd60e51b815260206004820152602560248201527f45524332303a207472616e736665722066726f6d20746865207a65726f206164604482015264647265737360d81b606482015260840161064e565b6001600160a01b0382166138545760405162461bcd60e51b815260206004820152602360248201527f45524332303a207472616e7366657220746f20746865207a65726f206164647260448201526265737360e81b606482015260840161064e565b6001600160a01b038316600090815260656020526040902054818110156138cc5760405162461bcd60e51b815260206004820152602660248201527f45524332303a207472616e7366657220616d6f756e7420657863656564732062604482015265616c616e636560d01b606482015260840161064e565b6001600160a01b0380851660009081526065602052604080822085850390559185168152908120805484929061390390849061528d565b92505081905550826001600160a01b0316846001600160a01b0316600080516020615d7e8339815191528460405161393d91815260200190565b60405180910390a36129c1565b60008060005b60d354811015613b1657600060d3828154811061396f5761396f61534a565b60009182526020808320604080516060810182529390910154600281810b855263010000008204900b92840192909252600160301b90910462ffffff1682820181905260c95460ca549251630b4c774160e11b81529395507f00000000000000000000000000000000000000000000000000000000000000006001600160a01b0390811694631698ee8294613a0e949383169392169190600401615493565b602060405180830381865afa158015613a2b573d6000803e3d6000fd5b505050506040513d601f19601f82011682018060405250810190613a4f91906154bb565b8251602084015160405163a34123a760e01b81529293506001600160a01b0384169263a34123a792613a88929091600090600401615c06565b60408051808303816000875af1158015613aa6573d6000803e3d6000fd5b505050506040513d601f19601f82011682018060405250810190613aca9190615acc565b5050600080613ae283856000015186602001516147a2565b9092509050613af1828861528d565b9650613afd818761528d565b9550505050508080613b0e90615360565b915050613950565b50613b218282613f52565b6040805183815260208101839052600080516020615d5e833981519152910160405180910390a19091565b6001600160a01b038116600090815260018301602052604081205415156106cc565b60006106cc836001600160a01b03841661484d565b6000610619825490565b60006106cc8383614940565b603380546001600160a01b038381166001600160a01b0319831681179093556040519116919082907f8be0079c531659141344cd1fd0a4f28419497f9722a3daafe3b4186f6b6457e090600090a35050565b60ce805460cf8054600093849055929055908115613c835760c95460d05460405163a9059cbb60e01b81526001600160a01b039283169263a9059cbb92613c39929116908690600401615ba4565b6020604051808303816000875af1925050508015613c74575060408051601f3d908101601f19168201909252613c71918101906159e6565b60015b613c815760009150613c83565b505b8015613d085760ca5460d05460405163a9059cbb60e01b81526001600160a01b039283169263a9059cbb92613cbf929116908590600401615ba4565b6020604051808303816000875af1925050508015613cfa575060408051601f3d908101601f19168201909252613cf7918101906159e6565b60015b613d0657506000613d08565b505b60408051838152602081018390527fa292e28c648da34e20b372054caab5f0359198b3b4d5f0ef9945d4616e15dc979101610a2c565b60005b83811015613e875760007f00000000000000000000000000000000000000000000000000000000000000006001600160a01b0316631698ee828585898987818110613d8e57613d8e61534a565b9050602002016020810190613da39190615476565b6040518463ffffffff1660e01b8152600401613dc193929190615493565b602060405180830381865afa158015613dde573d6000803e3d6000fd5b505050506040513d601f19601f82011682018060405250810190613e0291906154bb565b90506001600160a01b038116613e3f5760405162461bcd60e51b81526020600482015260026024820152615a4160f01b604482015260640161064e565b613e4a60d482613b4c565b15613e675760405162461bcd60e51b815260040161064e906159ae565b613e7260d48261496a565b50508080613e7f90615360565b915050613d41565b5050505050565b613e96614c96565b60405163a34123a760e01b81526001600160a01b0386169063a34123a790613ec690879087908790600401615c06565b60408051808303816000875af1158015613ee4573d6000803e3d6000fd5b505050506040513d601f19601f82011682018060405250810190613f089190615acc565b60208301528152600080613f1d8787876147a2565b84519193509150613f2e908361567d565b60408401526020830151613f42908261567d565b6060840152509095945050505050565b60cd5461ffff16612710613f668285615c2c565b613f709190615c61565b60ce6000828254613f81919061528d565b909155506127109050613f9861ffff831684615c2c565b613fa29190615c61565b60cf6000828254613fb3919061528d565b9091555050505050565b8015806140375750604051636eb1769f60e11b81523060048201526001600160a01b03838116602483015284169063dd62ed3e90604401602060405180830381865afa158015614011573d6000803e3d6000fd5b505050506040513d601f19601f8201168201806040525081019061403591906156ca565b155b6140a25760405162461bcd60e51b815260206004820152603660248201527f5361666545524332303a20617070726f76652066726f6d206e6f6e2d7a65726f60448201527520746f206e6f6e2d7a65726f20616c6c6f77616e636560501b606482015260840161064e565b6140f88363095ea7b360e01b84846040516024016140c1929190615ba4565b60408051601f198184030181529190526020810180516001600160e01b03166001600160e01b03199093169290921790915261497f565b505050565b600061410a848484614146565b90506000828061411c5761411c615c4b565b84860911156106cc57600019811061413357600080fd5b8061413d81615360565b95945050505050565b600080806000198587098587029250828110838203039150508060000361417f576000841161417457600080fd5b5082900490506106cc565b80841161418b57600080fd5b60008486880960026001871981018816978890046003810283188082028403028082028403028082028403028082028403028082028403029081029092039091026000889003889004909101858311909403939093029303949094049190911702949350505050565b6001600160a01b03821661424a5760405162461bcd60e51b815260206004820152601f60248201527f45524332303a206d696e7420746f20746865207a65726f206164647265737300604482015260640161064e565b806067600082825461425c919061528d565b90915550506001600160a01b0382166000908152606560205260408120805483929061428990849061528d565b90915550506040518181526001600160a01b03831690600090600080516020615d7e8339815191529060200160405180910390a35050565b6040516001600160a01b03808516602483015283166044820152606481018290526129c19085906323b872dd60e01b906084016140c1565b60006001600160801b038211156143625760405162461bcd60e51b815260206004820152602760248201527f53616665436173743a2076616c756520646f65736e27742066697420696e20316044820152663238206269747360c81b606482015260840161064e565b5090565b60005b818110156144b25760c9546001600160a01b031683838381811061438f5761438f61534a565b90506020020160208101906143a49190614e3b565b6001600160a01b0316141580156143f5575060ca546001600160a01b03168383838181106143d4576143d461534a565b90506020020160208101906143e99190614e3b565b6001600160a01b031614155b6144265760405162461bcd60e51b8152602060048201526002602482015261149560f21b604482015260640161064e565b61443b838383818110611e9c57611e9c61534a565b1561446d5760405162461bcd60e51b815260206004820152600260248201526121a960f11b604482015260640161064e565b61449f8383838181106144825761448261534a565b90506020020160208101906144979190614e3b565b60d69061496a565b50806144aa81615360565b915050614369565b507f102656122b5bfb41d864259a385db02d34584f3a71b6c6c35c14cbdaf9038fe68282604051610a2c929190615379565b6144ef60d433613b4c565b6145205760405162461bcd60e51b8152602060048201526002602482015261434360f01b604482015260640161064e565b811561453d5760c95461453d906001600160a01b03163384614783565b80156127e95760ca546127e9906001600160a01b03163383614783565b60008054610100900460ff16156145a1578160ff16600114801561457d5750303b155b6145995760405162461bcd60e51b815260040161064e90615c83565b506000919050565b60005460ff8084169116106145c85760405162461bcd60e51b815260040161064e90615c83565b506000805460ff191660ff92909216919091179055600190565b919050565b600054610100900460ff1661460e5760405162461bcd60e51b815260040161064e90615cd1565b6127e98282614a51565b600054610100900460ff1661463f5760405162461bcd60e51b815260040161064e90615cd1565b610bbb614a9f565b6001600160a01b0382166146a75760405162461bcd60e51b815260206004820152602160248201527f45524332303a206275726e2066726f6d20746865207a65726f206164647265736044820152607360f81b606482015260840161064e565b6001600160a01b0382166000908152606560205260409020548181101561471b5760405162461bcd60e51b815260206004820152602260248201527f45524332303a206275726e20616d6f756e7420657863656564732062616c616e604482015261636560f01b606482015260840161064e565b6001600160a01b038316600090815260656020526040812083830390556067805484929061474a90849061567d565b90915550506040518281526000906001600160a01b03851690600080516020615d7e8339815191529060200160405180910390a3505050565b6140f88363a9059cbb60e01b84846040516024016140c1929190615ba4565b6040516309e3d67b60e31b8152306004820152600283810b602483015282900b60448201526001600160801b0360648201819052608482015260009081906001600160a01b03861690634f1eb3d89060a40160408051808303816000875af1158015614812573d6000803e3d6000fd5b505050506040513d601f19601f820116820180604052508101906148369190615d1c565b6001600160801b0391821697911695509350505050565b6000818152600183016020526040812054801561493657600061487160018361567d565b85549091506000906148859060019061567d565b90508181146148ea5760008660000182815481106148a5576148a561534a565b90600052602060002001549050808760000184815481106148c8576148c861534a565b6000918252602080832090910192909255918252600188019052604090208390555b85548690806148fb576148fb615694565b600190038181906000526020600020016000905590558560010160008681526020019081526020016000206000905560019350505050610619565b6000915050610619565b60008260000182815481106149575761495761534a565b9060005260206000200154905092915050565b60006106cc836001600160a01b038416614ac6565b60006149d4826040518060400160405280602081526020017f5361666545524332303a206c6f772d6c6576656c2063616c6c206661696c6564815250856001600160a01b0316614b159092919063ffffffff16565b8051909150156140f857808060200190518101906149f291906159e6565b6140f85760405162461bcd60e51b815260206004820152602a60248201527f5361666545524332303a204552433230206f7065726174696f6e20646964206e6044820152691bdd081cdd58d8d9595960b21b606482015260840161064e565b600054610100900460ff16614a785760405162461bcd60e51b815260040161064e90615cd1565b8151614a8b906068906020850190614cdc565b5080516140f8906069906020840190614cdc565b600054610100900460ff16610bbd5760405162461bcd60e51b815260040161064e90615cd1565b6000818152600183016020526040812054614b0d57508154600181810184556000848152602080822090930184905584548482528286019093526040902091909155610619565b506000610619565b6060614b248484600085614b2c565b949350505050565b606082471015614b8d5760405162461bcd60e51b815260206004820152602660248201527f416464726573733a20696e73756666696369656e742062616c616e636520666f6044820152651c8818d85b1b60d21b606482015260840161064e565b6001600160a01b0385163b614be45760405162461bcd60e51b815260206004820152601d60248201527f416464726573733a2063616c6c20746f206e6f6e2d636f6e7472616374000000604482015260640161064e565b600080866001600160a01b03168587604051614c009190615d4b565b60006040518083038185875af1925050503d8060008114614c3d576040519150601f19603f3d011682016040523d82523d6000602084013e614c42565b606091505b5091509150614c52828286614c5d565b979650505050505050565b60608315614c6c5750816106cc565b825115614c7c5782518084602001fd5b8160405162461bcd60e51b815260040161064e9190614dbc565b6040518060800160405280600081526020016000815260200160008152602001600081525090565b5080546000825590600052602060002090810190612f039190614d5c565b828054614ce890615208565b90600052602060002090601f016020900481019282614d0a5760008555614d50565b82601f10614d2357805160ff1916838001178555614d50565b82800160010185558215614d50579182015b82811115614d50578251825591602001919060010190614d35565b50614362929150614d7b565b5b808211156143625780546001600160481b0319168155600101614d5d565b5b808211156143625760008155600101614d7c565b60005b83811015614dab578181015183820152602001614d93565b838111156129c15750506000910152565b6020815260008251806020840152614ddb816040850160208701614d90565b601f01601f19169190910160400192915050565b6001600160a01b0381168114612f0357600080fd5b80356145e281614def565b60008060408385031215614e2257600080fd5b8235614e2d81614def565b946020939093013593505050565b600060208284031215614e4d57600080fd5b81356106cc81614def565b6001600160a01b03169052565b6001600160a01b0391909116815260200190565b600080600060608486031215614e8e57600080fd5b8335614e9981614def565b92506020840135614ea981614def565b929592945050506040919091013590565b60008060408385031215614ecd57600080fd5b50508035926020909101359150565b600060208284031215614eee57600080fd5b813561ffff811681146106cc57600080fd5b60008083601f840112614f1257600080fd5b5081356001600160401b03811115614f2957600080fd5b6020830191508360208260051b8501011115614f4457600080fd5b9250929050565b60008060208385031215614f5e57600080fd5b82356001600160401b03811115614f7457600080fd5b614f8085828601614f00565b90969095509350505050565b805160020b8252602081015160020b602083015262ffffff60408201511660408301525050565b6020808252825182820181905260009190848201906040850190845b81811015614ff557614fe2838551614f8c565b9284019260609290920191600101614fcf565b50909695505050505050565b6020808252825182820181905260009190848201906040850190845b81811015614ff55783516001600160a01b03168352928401929184019160010161501d565b60006020828403121561505457600080fd5b81356001600160401b0381111561506a57600080fd5b820160e081850312156106cc57600080fd5b6000806040838503121561508f57600080fd5b8235915060208301356150a181614def565b809150509250929050565b60008083601f8401126150be57600080fd5b5081356001600160401b038111156150d557600080fd5b602083019150836020828501011115614f4457600080fd5b6000806000806060858703121561510357600080fd5b843593506020850135925060408501356001600160401b0381111561512757600080fd5b615133878288016150ac565b95989497509550505050565b6000806040838503121561515257600080fd5b823561515d81614def565b915060208301356150a181614def565b60008060008060006060868803121561518557600080fd5b85356001600160401b038082111561519c57600080fd5b6151a889838a016150ac565b909750955060208801359150808211156151c157600080fd5b6151cd89838a016150ac565b909550935060408801359150808211156151e657600080fd5b50860161010081890312156151fa57600080fd5b809150509295509295909350565b600181811c9082168061521c57607f821691505b60208210810361523c57634e487b7160e01b600052602260045260246000fd5b50919050565b6020808252818101527f4f776e61626c653a2063616c6c6572206973206e6f7420746865206f776e6572604082015260600190565b634e487b7160e01b600052601160045260246000fd5b600082198211156152a0576152a0615277565b500190565b6020808252600190820152604960f81b604082015260600190565b602080825260029082015261545360f01b604082015260600190565b6020808252600190820152602960f91b604082015260600190565b6020808252601f908201527f5265656e7472616e637947756172643a207265656e7472616e742063616c6c00604082015260600190565b6020808252600290820152614e4d60f01b604082015260600190565b634e487b7160e01b600052603260045260246000fd5b60006001820161537257615372615277565b5060010190565b60208082528181018390526000908460408401835b868110156153bc5782356153a181614def565b6001600160a01b03168252918301919083019060010161538e565b509695505050505050565b634e487b7160e01b600052604160045260246000fd5b62ffffff81168114612f0357600080fd5b60208082528181018390526000908460408401835b868110156153bc578235615416816153dd565b62ffffff1682529183019190830190600101615403565b6000808335601e1984360301811261544457600080fd5b8301803591506001600160401b0382111561545e57600080fd5b6020019150600781901b3603821315614f4457600080fd5b60006020828403121561548857600080fd5b81356106cc816153dd565b6001600160a01b03938416815291909216602082015262ffffff909116604082015260600190565b6000602082840312156154cd57600080fd5b81516106cc81614def565b8060020b8114612f0357600080fd5b6000602082840312156154f957600080fd5b81356106cc816154d8565b6001600160a01b039485168152929093166020830152600290810b60408301529190910b606082015260800190565b6001600160801b0381168114612f0357600080fd5b60006020828403121561555a57600080fd5b81516106cc81615533565b60006020828403121561557757600080fd5b81356106cc81615533565b803561558d816154d8565b60020b825260208101356155a0816154d8565b60020b602083015260408101356155b6816153dd565b62ffffff81166040840152505050565b6000608082016080835280855480835260a08501915086600052602092508260002060005b82811015615626578154600281810b8652601882901c900b8686015260301c62ffffff166040850152606090930192600191820191016155eb565b5050508092505061563981840185615582565b509392505050565b8015158114612f0357600080fd5b6000806040838503121561566257600080fd5b825161566d81615641565b6020939093015192949293505050565b60008282101561568f5761568f615277565b500390565b634e487b7160e01b600052603160045260246000fd5b60008235609e198336030181126156c057600080fd5b9190910192915050565b6000602082840312156156dc57600080fd5b5051919050565b6000808335601e198436030181126156fa57600080fd5b8301803591506001600160401b0382111561571457600080fd5b602001915036819003821315614f4457600080fd5b8183823760009101908152919050565b80356145e281615641565b60006020828403121561575657600080fd5b81356106cc81615641565b60208082526002908201526129a360f11b604082015260600190565b6000808335601e1984360301811261579457600080fd5b83016020810192503590506001600160401b038111156157b357600080fd5b8060071b3603831315614f4457600080fd5b8183526000602080850194508260005b858110156158145781356157e881615533565b6001600160801b03168752615801838801838501615582565b60809687019691909101906001016157d5565b509495945050505050565b81835281816020850137506000828201602090810191909152601f909101601f19169091010190565b60008135601e1983360301811261585e57600080fd5b820180356001600160401b0381111561587657600080fd5b80360384131561588557600080fd5b60a0855261589a60a08601826020850161581f565b9150506158a960208401614e04565b6158b66020860182614e58565b5060408301356040850152606083013560608501526158d760808401615739565b8015156080860152615639565b60006158f0828361577d565b60e0855261590260e0860182846157c5565b915050615912602084018461577d565b85830360208701526159258382846157c5565b925050506040830135609e1984360301811261594057600080fd5b848203604086015261595482858301615848565b915050606083013560608501526080830135608085015260a083013560a085015260c083013560c08501528091505092915050565b60608152600061599c60608301866158e4565b60208301949094525060400152919050565b6020808252600190820152600560fc1b604082015260600190565b6001600160a01b0383168152608081016106cc6020830184615582565b6000602082840312156159f857600080fd5b81516106cc81615641565b8135615a0e816154d8565b815462ffffff82811662ffffff1983161784556020850135615a2f816154d8565b8060181b9050818416935065ffffff00000091508082168465ffffffffffff198516171785556040860135615a63816153dd565b91166001600160481b0319929092169092171760309190911b62ffffff60301b1617905550565b6001600160a01b03949094168452600292830b6020850152910b60408301526001600160801b0316606082015260a06080820181905260009082015260c00190565b60008060408385031215615adf57600080fd5b505080516020909101519092909150565b6060808252845160a083830152805161010084018190526000929160209190820190610120860190855b81811015615b3d57615b2d838551614f8c565b9284019291850191600101615b1a565b5050828901519150615b526080870183614e58565b60408901519150615b6660a0870183614e58565b9288015192615b7860c0870185614e58565b60808901519350615b8c60e0870185614e58565b91850196909652604090930193909352509392505050565b6001600160a01b03929092168252602082015260400190565b6000808335601e19843603018112615bd457600080fd5b8301803591506001600160401b03821115615bee57600080fd5b6020019150600581901b3603821315614f4457600080fd5b600293840b81529190920b60208201526001600160801b03909116604082015260600190565b6000816000190483118215151615615c4657615c46615277565b500290565b634e487b7160e01b600052601260045260246000fd5b600082615c7e57634e487b7160e01b600052601260045260246000fd5b500490565b6020808252602e908201527f496e697469616c697a61626c653a20636f6e747261637420697320616c72656160408201526d191e481a5b9a5d1a585b1a5e995960921b606082015260800190565b6020808252602b908201527f496e697469616c697a61626c653a20636f6e7472616374206973206e6f74206960408201526a6e697469616c697a696e6760a81b606082015260800190565b60008060408385031215615d2f57600080fd5b8251615d3a81615533565b60208401519092506150a181615533565b600082516156c0818460208701614d9056fedbbb3a796242c9562af701570b096cb2478cd507fcd2d4080025883b10a623a5ddf252ad1be2c89b69c2b068fc378daa952ba7f163c4a11628f55a4df523b3efa264697066735822122055d96bde743f12eee16348183aa6c06ff2e567eb674d8556096d392b7711004e64736f6c634300080d0033",
  "libraries": {
    "Pool": "0x0df69f1e26a5fAC05747Fa54b3147B4b26d09343",
    "Position": "0x64b8bE0ECEf7741b2aE8E04E4C6443aD53138cdc",
    "Underlying": "0xbea63eC53A49b4176DD540042DD6fb60CB3f1888"
  },
  "devdoc": {
    "author": "Arrakis Finance",
    "details": "DO NOT ADD STATE VARIABLES - APPEND THEM TO ArrakisV2Storage",
    "kind": "dev",
    "methods": {
      "addPools(uint24[])": {
        "details": "only callable by owner.",
        "params": {
          "feeTiers_": "list of fee tiers associated to pools to whitelist."
        }
      },
      "allowance(address,address)": {
        "details": "See {IERC20-allowance}."
      },
      "approve(address,uint256)": {
        "details": "See {IERC20-approve}. NOTE: If `amount` is the maximum `uint256`, the allowance is not updated on `transferFrom`. This is semantically equivalent to an infinite approval. Requirements: - `spender` cannot be the zero address."
      },
      "balanceOf(address)": {
        "details": "See {IERC20-balanceOf}."
      },
      "blacklistRouters(address[])": {
        "details": "only callable by owner.",
        "params": {
          "routers_": "list of routers addresses to blacklist."
        }
      },
      "burn(uint256,address)": {
        "params": {
          "burnAmount_": "amount of vault shares to burn.",
          "receiver_": "address to receive underlying tokens withdrawn."
        },
        "returns": {
          "amount0": "amount of token0 sent to receiver",
          "amount1": "amount of token1 sent to receiver"
        }
      },
      "decimals()": {
        "details": "Returns the number of decimals used to get its user representation. For example, if `decimals` equals `2`, a balance of `505` tokens should be displayed to a user as `5.05` (`505 / 10 ** 2`). Tokens usually opt for a value of 18, imitating the relationship between Ether and Wei. This is the value {ERC20} uses, unless this function is overridden; NOTE: This information is only used for _display_ purposes: it in no way affects any of the arithmetic of the contract, including {IERC20-balanceOf} and {IERC20-transfer}."
      },
      "decreaseAllowance(address,uint256)": {
        "details": "Atomically decreases the allowance granted to `spender` by the caller. This is an alternative to {approve} that can be used as a mitigation for problems described in {IERC20-approve}. Emits an {Approval} event indicating the updated allowance. Requirements: - `spender` cannot be the zero address. - `spender` must have allowance for the caller of at least `subtractedValue`."
      },
      "getRanges()": {
        "returns": {
          "_0": "ranges list of ranges"
        }
      },
      "increaseAllowance(address,uint256)": {
        "details": "Atomically increases the allowance granted to `spender` by the caller. This is an alternative to {approve} that can be used as a mitigation for problems described in {IERC20-approve}. Emits an {Approval} event indicating the updated allowance. Requirements: - `spender` cannot be the zero address."
      },
      "mint(uint256,address)": {
        "params": {
          "mintAmount_": "represent the amount of Arrakis V2 shares to mint.",
          "receiver_": "address that will receive Arrakis V2 shares."
        },
        "returns": {
          "amount0": "amount of token0 needed to mint mintAmount_ of shares.",
          "amount1": "amount of token1 needed to mint mintAmount_ of shares."
        }
      },
      "name()": {
        "details": "Returns the name of the token."
      },
      "owner()": {
        "details": "Returns the address of the current owner."
      },
      "rebalance(((uint128,(int24,int24,uint24))[],(uint128,(int24,int24,uint24))[],(bytes,address,uint256,uint256,bool),uint256,uint256,uint256,uint256))": {
        "details": "only Manager contract can call this function.",
        "params": {
          "rebalanceParams_": "rebalance params, containing ranges where we need to collect tokens and ranges where we need to mint liquidity. Also contain swap payload to changes token0/token1 proportion."
        }
      },
      "removePools(address[])": {
        "details": "only callable by owner.",
        "params": {
          "pools_": "list of pools to remove from whitelist."
        }
      },
      "renounceOwnership()": {
        "details": "Leaves the contract without owner. It will not be possible to call `onlyOwner` functions anymore. Can only be called by the current owner. NOTE: Renouncing ownership will leave the contract without an owner, thereby removing any functionality that is only available to the owner."
      },
      "setFeeManager(address)": {
        "details": "only callable by owner.",
        "params": {
          "feeManager_": "fee manager address."
        }
      },
      "setInits(uint256,uint256)": {
        "details": "only callable by restrictedMint or by owner if restrictedMint is unset.",
        "params": {
          "init0_": "initial virtual allocation of token 0.",
          "init1_": "initial virtual allocation of token 1."
        }
      },
      "setManager(address)": {
        "details": "only callable by owner.",
        "params": {
          "manager_": "manager address."
        }
      },
      "setManagerFeeBPS(uint16)": {
        "details": "only callable by manager.",
        "params": {
          "managerFeeBPS_": "manager fee in basis points."
        }
      },
      "setRestrictedMint(address)": {
        "details": "only callable by owner.",
        "params": {
          "minter_": "address of restricted minter."
        }
      },
      "symbol()": {
        "details": "Returns the symbol of the token, usually a shorter version of the name."
      },
      "totalSupply()": {
        "details": "See {IERC20-totalSupply}."
      },
      "transfer(address,uint256)": {
        "details": "See {IERC20-transfer}. Requirements: - `to` cannot be the zero address. - the caller must have a balance of at least `amount`."
      },
      "transferFrom(address,address,uint256)": {
        "details": "See {IERC20-transferFrom}. Emits an {Approval} event indicating the updated allowance. This is not required by the EIP. See the note at the beginning of {ERC20}. NOTE: Does not update the allowance if the current allowance is the maximum `uint256`. Requirements: - `from` and `to` cannot be the zero address. - `from` must have a balance of at least `amount`. - the caller must have allowance for ``from``'s tokens of at least `amount`."
      },
      "transferOwnership(address)": {
        "details": "Transfers ownership of the contract to a new account (`newOwner`). Can only be called by the current owner."
      },
      "whitelistRouters(address[])": {
        "details": "only callable by owner.",
        "params": {
          "routers_": "list of router addresses to whitelist."
        }
      },
      "withdrawManagerBalance()": {
        "details": "anyone can call this function"
      }
    },
    "title": "ArrakisV2 LP vault version 2",
    "version": 1
  },
  "userdoc": {
    "kind": "user",
    "methods": {
      "addPools(uint24[])": {
        "notice": "whitelist pools"
      },
      "blacklistRouters(address[])": {
        "notice": "blacklist routers"
      },
      "burn(uint256,address)": {
        "notice": "burn Arrakis V2 shares and withdraw underlying."
      },
      "getRanges()": {
        "notice": "get full list of ranges, guaranteed to contain all active vault LP Positions."
      },
      "mint(uint256,address)": {
        "notice": "mint Arrakis V2 shares by depositing underlying"
      },
      "rebalance(((uint128,(int24,int24,uint24))[],(uint128,(int24,int24,uint24))[],(bytes,address,uint256,uint256,bool),uint256,uint256,uint256,uint256))": {
        "notice": "rebalance ArrakisV2 vault's UniswapV3 positions"
      },
      "removePools(address[])": {
        "notice": "unwhitelist pools"
      },
      "setFeeManager(address)": {
        "notice": "set fee manager"
      },
      "setInits(uint256,uint256)": {
        "notice": "set initial virtual allocation of token0 and token1"
      },
      "setManager(address)": {
        "notice": "set manager"
      },
      "setManagerFeeBPS(uint16)": {
        "notice": "set manager fee bps"
      },
      "setRestrictedMint(address)": {
        "notice": "set restricted minter"
      },
      "uniswapV3MintCallback(uint256,uint256,bytes)": {
        "notice": "Uniswap V3 callback fn, called back on pool.mint"
      },
      "whitelistRouters(address[])": {
        "notice": "whitelist routers"
      },
      "withdrawManagerBalance()": {
        "notice": "will send manager fees to manager"
      }
    },
    "notice": "Smart contract managing liquidity providing strategy for a given token pair using multiple Uniswap V3 LP positions on multiple fee tiers.",
    "version": 1
  },
  "storageLayout": {
    "storage": [
      {
        "astId": 1594,
        "contract": "contracts/ArrakisV2.sol:ArrakisV2",
        "label": "_initialized",
        "offset": 0,
        "slot": "0",
        "type": "t_uint8"
      },
      {
        "astId": 1597,
        "contract": "contracts/ArrakisV2.sol:ArrakisV2",
        "label": "_initializing",
        "offset": 1,
        "slot": "0",
        "type": "t_bool"
      },
      {
        "astId": 2786,
        "contract": "contracts/ArrakisV2.sol:ArrakisV2",
        "label": "__gap",
        "offset": 0,
        "slot": "1",
        "type": "t_array(t_uint256)50_storage"
      },
      {
        "astId": 1474,
        "contract": "contracts/ArrakisV2.sol:ArrakisV2",
        "label": "_owner",
        "offset": 0,
        "slot": "51",
        "type": "t_address"
      },
      {
        "astId": 1586,
        "contract": "contracts/ArrakisV2.sol:ArrakisV2",
        "label": "__gap",
        "offset": 0,
        "slot": "52",
        "type": "t_array(t_uint256)49_storage"
      },
      {
        "astId": 1807,
        "contract": "contracts/ArrakisV2.sol:ArrakisV2",
        "label": "_balances",
        "offset": 0,
        "slot": "101",
        "type": "t_mapping(t_address,t_uint256)"
      },
      {
        "astId": 1813,
        "contract": "contracts/ArrakisV2.sol:ArrakisV2",
        "label": "_allowances",
        "offset": 0,
        "slot": "102",
        "type": "t_mapping(t_address,t_mapping(t_address,t_uint256))"
      },
      {
        "astId": 1815,
        "contract": "contracts/ArrakisV2.sol:ArrakisV2",
        "label": "_totalSupply",
        "offset": 0,
        "slot": "103",
        "type": "t_uint256"
      },
      {
        "astId": 1817,
        "contract": "contracts/ArrakisV2.sol:ArrakisV2",
        "label": "_name",
        "offset": 0,
        "slot": "104",
        "type": "t_string_storage"
      },
      {
        "astId": 1819,
        "contract": "contracts/ArrakisV2.sol:ArrakisV2",
        "label": "_symbol",
        "offset": 0,
        "slot": "105",
        "type": "t_string_storage"
      },
      {
        "astId": 2398,
        "contract": "contracts/ArrakisV2.sol:ArrakisV2",
        "label": "__gap",
        "offset": 0,
        "slot": "106",
        "type": "t_array(t_uint256)45_storage"
      },
      {
        "astId": 1743,
        "contract": "contracts/ArrakisV2.sol:ArrakisV2",
        "label": "_status",
        "offset": 0,
        "slot": "151",
        "type": "t_uint256"
      },
      {
        "astId": 1787,
        "contract": "contracts/ArrakisV2.sol:ArrakisV2",
        "label": "__gap",
        "offset": 0,
        "slot": "152",
        "type": "t_array(t_uint256)49_storage"
      },
      {
        "astId": 10509,
        "contract": "contracts/ArrakisV2.sol:ArrakisV2",
        "label": "token0",
        "offset": 0,
        "slot": "201",
        "type": "t_contract(IERC20)3870"
      },
      {
        "astId": 10512,
        "contract": "contracts/ArrakisV2.sol:ArrakisV2",
        "label": "token1",
        "offset": 0,
        "slot": "202",
        "type": "t_contract(IERC20)3870"
      },
      {
        "astId": 10514,
        "contract": "contracts/ArrakisV2.sol:ArrakisV2",
        "label": "init0",
        "offset": 0,
        "slot": "203",
        "type": "t_uint256"
      },
      {
        "astId": 10516,
        "contract": "contracts/ArrakisV2.sol:ArrakisV2",
        "label": "init1",
        "offset": 0,
        "slot": "204",
        "type": "t_uint256"
      },
      {
        "astId": 10518,
        "contract": "contracts/ArrakisV2.sol:ArrakisV2",
        "label": "managerFeeBPS",
        "offset": 0,
        "slot": "205",
        "type": "t_uint16"
      },
      {
        "astId": 10520,
        "contract": "contracts/ArrakisV2.sol:ArrakisV2",
        "label": "managerBalance0",
        "offset": 0,
        "slot": "206",
        "type": "t_uint256"
      },
      {
        "astId": 10522,
        "contract": "contracts/ArrakisV2.sol:ArrakisV2",
        "label": "managerBalance1",
        "offset": 0,
        "slot": "207",
        "type": "t_uint256"
      },
      {
        "astId": 10524,
        "contract": "contracts/ArrakisV2.sol:ArrakisV2",
        "label": "manager",
        "offset": 0,
        "slot": "208",
        "type": "t_address"
      },
      {
        "astId": 10526,
        "contract": "contracts/ArrakisV2.sol:ArrakisV2",
        "label": "restrictedMint",
        "offset": 0,
        "slot": "209",
        "type": "t_address"
      },
      {
        "astId": 10529,
        "contract": "contracts/ArrakisV2.sol:ArrakisV2",
        "label": "feeManager",
        "offset": 0,
        "slot": "210",
        "type": "t_contract(IFeeManager)12291"
      },
      {
        "astId": 10533,
        "contract": "contracts/ArrakisV2.sol:ArrakisV2",
        "label": "_ranges",
        "offset": 0,
        "slot": "211",
        "type": "t_array(t_struct(Range)13630_storage)dyn_storage"
      },
      {
        "astId": 10536,
        "contract": "contracts/ArrakisV2.sol:ArrakisV2",
        "label": "_pools",
        "offset": 0,
        "slot": "212",
        "type": "t_struct(AddressSet)5201_storage"
      },
      {
        "astId": 10539,
        "contract": "contracts/ArrakisV2.sol:ArrakisV2",
        "label": "_routers",
        "offset": 0,
        "slot": "214",
        "type": "t_struct(AddressSet)5201_storage"
      }
    ],
    "types": {
      "t_address": {
        "encoding": "inplace",
        "label": "address",
        "numberOfBytes": "20"
      },
      "t_array(t_bytes32)dyn_storage": {
        "base": "t_bytes32",
        "encoding": "dynamic_array",
        "label": "bytes32[]",
        "numberOfBytes": "32"
      },
      "t_array(t_struct(Range)13630_storage)dyn_storage": {
        "base": "t_struct(Range)13630_storage",
        "encoding": "dynamic_array",
        "label": "struct Range[]",
        "numberOfBytes": "32"
      },
      "t_array(t_uint256)45_storage": {
        "base": "t_uint256",
        "encoding": "inplace",
        "label": "uint256[45]",
        "numberOfBytes": "1440"
      },
      "t_array(t_uint256)49_storage": {
        "base": "t_uint256",
        "encoding": "inplace",
        "label": "uint256[49]",
        "numberOfBytes": "1568"
      },
      "t_array(t_uint256)50_storage": {
        "base": "t_uint256",
        "encoding": "inplace",
        "label": "uint256[50]",
        "numberOfBytes": "1600"
      },
      "t_bool": {
        "encoding": "inplace",
        "label": "bool",
        "numberOfBytes": "1"
      },
      "t_bytes32": {
        "encoding": "inplace",
        "label": "bytes32",
        "numberOfBytes": "32"
      },
      "t_contract(IERC20)3870": {
        "encoding": "inplace",
        "label": "contract IERC20",
        "numberOfBytes": "20"
      },
      "t_contract(IFeeManager)12291": {
        "encoding": "inplace",
        "label": "contract IFeeManager",
        "numberOfBytes": "20"
      },
      "t_int24": {
        "encoding": "inplace",
        "label": "int24",
        "numberOfBytes": "3"
      },
      "t_mapping(t_address,t_mapping(t_address,t_uint256))": {
        "encoding": "mapping",
        "key": "t_address",
        "label": "mapping(address => mapping(address => uint256))",
        "numberOfBytes": "32",
        "value": "t_mapping(t_address,t_uint256)"
      },
      "t_mapping(t_address,t_uint256)": {
        "encoding": "mapping",
        "key": "t_address",
        "label": "mapping(address => uint256)",
        "numberOfBytes": "32",
        "value": "t_uint256"
      },
      "t_mapping(t_bytes32,t_uint256)": {
        "encoding": "mapping",
        "key": "t_bytes32",
        "label": "mapping(bytes32 => uint256)",
        "numberOfBytes": "32",
        "value": "t_uint256"
      },
      "t_string_storage": {
        "encoding": "bytes",
        "label": "string",
        "numberOfBytes": "32"
      },
      "t_struct(AddressSet)5201_storage": {
        "encoding": "inplace",
        "label": "struct EnumerableSet.AddressSet",
        "members": [
          {
            "astId": 5200,
            "contract": "contracts/ArrakisV2.sol:ArrakisV2",
            "label": "_inner",
            "offset": 0,
            "slot": "0",
            "type": "t_struct(Set)4900_storage"
          }
        ],
        "numberOfBytes": "64"
      },
      "t_struct(Range)13630_storage": {
        "encoding": "inplace",
        "label": "struct Range",
        "members": [
          {
            "astId": 13625,
            "contract": "contracts/ArrakisV2.sol:ArrakisV2",
            "label": "lowerTick",
            "offset": 0,
            "slot": "0",
            "type": "t_int24"
          },
          {
            "astId": 13627,
            "contract": "contracts/ArrakisV2.sol:ArrakisV2",
            "label": "upperTick",
            "offset": 3,
            "slot": "0",
            "type": "t_int24"
          },
          {
            "astId": 13629,
            "contract": "contracts/ArrakisV2.sol:ArrakisV2",
            "label": "feeTier",
            "offset": 6,
            "slot": "0",
            "type": "t_uint24"
          }
        ],
        "numberOfBytes": "32"
      },
      "t_struct(Set)4900_storage": {
        "encoding": "inplace",
        "label": "struct EnumerableSet.Set",
        "members": [
          {
            "astId": 4895,
            "contract": "contracts/ArrakisV2.sol:ArrakisV2",
            "label": "_values",
            "offset": 0,
            "slot": "0",
            "type": "t_array(t_bytes32)dyn_storage"
          },
          {
            "astId": 4899,
            "contract": "contracts/ArrakisV2.sol:ArrakisV2",
            "label": "_indexes",
            "offset": 0,
            "slot": "1",
            "type": "t_mapping(t_bytes32,t_uint256)"
          }
        ],
        "numberOfBytes": "64"
      },
      "t_uint16": {
        "encoding": "inplace",
        "label": "uint16",
        "numberOfBytes": "2"
      },
      "t_uint24": {
        "encoding": "inplace",
        "label": "uint24",
        "numberOfBytes": "3"
      },
      "t_uint256": {
        "encoding": "inplace",
        "label": "uint256",
        "numberOfBytes": "32"
      },
      "t_uint8": {
        "encoding": "inplace",
        "label": "uint8",
        "numberOfBytes": "1"
      }
    }
  }
}