{
  "address": "0x8bb175D22cD1B7A86f9D2480fD6B8B7e96fc1B4A",
  "abi": [
    {
      "inputs": [
        {
          "internalType": "address",
          "name": "vault_",
          "type": "address"
        },
        {
          "internalType": "address",
          "name": "usdc_",
          "type": "address"
        },
        {
          "internalType": "address",
          "name": "uniSwapRouter_",
          "type": "address"
        },
        {
          "internalType": "uint24",
          "name": "feeTier_",
          "type": "uint24"
        }
      ],
      "stateMutability": "nonpayable",
      "type": "constructor"
    },
    {
      "anonymous": false,
      "inputs": [
        {
          "indexed": true,
          "internalType": "address",
          "name": "previousOwner",
          "type": "address"
        },
        {
          "indexed": true,
          "internalType": "address",
          "name": "newOwner",
          "type": "address"
        }
      ],
      "name": "OwnershipTransferred",
      "type": "event"
    },
    {
      "inputs": [],
      "name": "REWARDS_PRECISION",
      "outputs": [
        {
          "internalType": "uint256",
          "name": "",
          "type": "uint256"
        }
      ],
      "stateMutability": "view",
      "type": "function"
    },
    {
      "inputs": [],
      "name": "accumulatedRewardsPerShare",
      "outputs": [
        {
          "internalType": "uint256",
          "name": "",
          "type": "uint256"
        }
      ],
      "stateMutability": "view",
      "type": "function"
    },
    {
      "inputs": [
        {
          "internalType": "address",
          "name": "claimer",
          "type": "address"
        }
      ],
      "name": "claimFees",
      "outputs": [],
      "stateMutability": "nonpayable",
      "type": "function"
    },
    {
      "inputs": [
        {
          "internalType": "address",
          "name": "token0",
          "type": "address"
        },
        {
          "internalType": "uint256",
          "name": "fees0",
          "type": "uint256"
        },
        {
          "internalType": "address",
          "name": "token1",
          "type": "address"
        },
        {
          "internalType": "uint256",
          "name": "fees1",
          "type": "uint256"
        }
      ],
      "name": "depositFees",
      "outputs": [],
      "stateMutability": "nonpayable",
      "type": "function"
    },
    {
      "inputs": [],
      "name": "feeTier",
      "outputs": [
        {
          "internalType": "uint24",
          "name": "",
          "type": "uint24"
        }
      ],
      "stateMutability": "view",
      "type": "function"
    },
    {
      "inputs": [],
      "name": "owner",
      "outputs": [
        {
          "internalType": "address",
          "name": "",
          "type": "address"
        }
      ],
      "stateMutability": "view",
      "type": "function"
    },
    {
      "inputs": [],
      "name": "renounceOwnership",
      "outputs": [],
      "stateMutability": "nonpayable",
      "type": "function"
    },
    {
      "inputs": [
        {
          "internalType": "address",
          "name": "",
          "type": "address"
        }
      ],
      "name": "rewardDebt",
      "outputs": [
        {
          "internalType": "uint256",
          "name": "",
          "type": "uint256"
        }
      ],
      "stateMutability": "view",
      "type": "function"
    },
    {
      "inputs": [],
      "name": "router",
      "outputs": [
        {
          "internalType": "contract ISwapRouter02",
          "name": "",
          "type": "address"
        }
      ],
      "stateMutability": "view",
      "type": "function"
    },
    {
      "inputs": [
        {
          "internalType": "address",
          "name": "_user",
          "type": "address"
        },
        {
          "internalType": "uint256",
          "name": "_amount",
          "type": "uint256"
        }
      ],
      "name": "setRewardDebt",
      "outputs": [],
      "stateMutability": "nonpayable",
      "type": "function"
    },
    {
      "inputs": [
        {
          "internalType": "address",
          "name": "newOwner",
          "type": "address"
        }
      ],
      "name": "transferOwnership",
      "outputs": [],
      "stateMutability": "nonpayable",
      "type": "function"
    },
    {
      "inputs": [],
      "name": "usdc",
      "outputs": [
        {
          "internalType": "contract IERC20",
          "name": "",
          "type": "address"
        }
      ],
      "stateMutability": "view",
      "type": "function"
    },
    {
      "inputs": [],
      "name": "vault",
      "outputs": [
        {
          "internalType": "contract IERC20",
          "name": "",
          "type": "address"
        }
      ],
      "stateMutability": "view",
      "type": "function"
    },
    {
      "inputs": [],
      "name": "withdrawEmergency",
      "outputs": [],
      "stateMutability": "nonpayable",
      "type": "function"
    }
  ],
  "transactionHash": "0xf822efdc98a96c5473ffff98f32783a147e2f9e414dda92c09889174af962200",
  "args": [
    "0x3Fd7957D9F98D46c755685B67dFD8505468A7Cb6",
    "0x833589fCD6eDb6E08f4c7C32D4f71b54bdA02913",
    "0x2626664c2603336E57B271c5C0b26F421741e481",
    10000
  ],
  "numDeployments": 1,
  "solcInputHash": "7c89ece1c49e2d00a213df60e86a6639",
  "bytecode": "0x6101006040523480156200001257600080fd5b506040516200152e3803806200152e8339810160408190526200003591620002e1565b6200004033620001a3565b6001600160a01b038416620000a75760405162461bcd60e51b815260206004820152602260248201527f4665654d616e616765723a20496e76616c6964207661756c745f206164647265604482015261737360f01b60648201526084015b60405180910390fd5b6001600160a01b038316620001095760405162461bcd60e51b815260206004820152602160248201527f4665654d616e616765723a20496e76616c696420757364635f206164647265736044820152607360f81b60648201526084016200009e565b6001600160a01b0382166200016c5760405162461bcd60e51b815260206004820152602260248201527f4665654d616e616765723a20756e6953776170526f757465725f206164647265604482015261737360f01b60648201526084016200009e565b62ffffff811660e0526001600160a01b0380851660805283811660a052821660c0526200019933620001f3565b5050505062000347565b600080546001600160a01b038381166001600160a01b0319831681178455604051919092169283917f8be0079c531659141344cd1fd0a4f28419497f9722a3daafe3b4186f6b6457e09190a35050565b6000546001600160a01b031633146200024f5760405162461bcd60e51b815260206004820181905260248201527f4f776e61626c653a2063616c6c6572206973206e6f7420746865206f776e657260448201526064016200009e565b6001600160a01b038116620002b65760405162461bcd60e51b815260206004820152602660248201527f4f776e61626c653a206e6577206f776e657220697320746865207a65726f206160448201526564647265737360d01b60648201526084016200009e565b620002c181620001a3565b50565b80516001600160a01b0381168114620002dc57600080fd5b919050565b60008060008060808587031215620002f857600080fd5b6200030385620002c4565b93506200031360208601620002c4565b92506200032360408601620002c4565b9150606085015162ffffff811681146200033c57600080fd5b939692955090935050565b60805160a05160c05160e051611145620003e96000396000818161016c0152610b530152600081816101e601528181610ae70152610be401526000818160f50152818161034e015281816103cd015281816104aa01528181610935015281816109960152610b2501526000818161020d01528181610249015281816104d601528181610575015281816105d00152818161060b015261065201526111456000f3fe608060405234801561001057600080fd5b50600436106100ba5760003560e01c8063061960aa146100bf57806315a0ea6a146100db5780633e413bee146100f05780634146a073146101245780634158e3e31461012c5780635873eb9b1461013f578063715018a61461015f57806372f5d98a1461016757806375a9f56d146101a257806386b3cd26146101b55780638da5cb5b146101c6578063f2fde38b146101ce578063f887ea40146101e1578063fbfa77cf14610208575b600080fd5b6100c860015481565b6040519081526020015b60405180910390f35b6100ee6100e9366004610efc565b61022f565b005b6101177f000000000000000000000000000000000000000000000000000000000000000081565b6040516100d29190610f17565b6100ee61037b565b6100ee61013a366004610f2b565b6104d4565b6100c861014d366004610efc565b60026020526000908152604090205481565b6100ee610538565b61018e7f000000000000000000000000000000000000000000000000000000000000000081565b60405162ffffff90911681526020016100d2565b6100ee6101b0366004610f55565b610573565b6100c869d3c21bcecceda100000081565b6101176106ee565b6100ee6101dc366004610efc565b6106fd565b6101177f000000000000000000000000000000000000000000000000000000000000000081565b6101177f000000000000000000000000000000000000000000000000000000000000000081565b6040516370a0823160e01b81526000906001600160a01b037f000000000000000000000000000000000000000000000000000000000000000016906370a082319061027e908590600401610f17565b602060405180830381865afa15801561029b573d6000803e3d6000fd5b505050506040513d601f19601f820116820180604052508101906102bf9190610f99565b905060006102da8260015469d3c21bcecceda100000061079a565b6001600160a01b038416600090815260026020526040812054919250906103019083610fc8565b90508060000361032c57506001600160a01b0390921660009081526002602052604090209190915550565b6001600160a01b038085166000908152600260205260409020839055610375907f000000000000000000000000000000000000000000000000000000000000000016858361084e565b50505050565b336103846106ee565b6001600160a01b0316146103b35760405162461bcd60e51b81526004016103aa90610fdf565b60405180910390fd5b6040516370a0823160e01b81526000906001600160a01b037f000000000000000000000000000000000000000000000000000000000000000016906370a0823190610402903090600401610f17565b602060405180830381865afa15801561041f573d6000803e3d6000fd5b505050506040513d601f19601f820116820180604052508101906104439190610f99565b9050600081116104955760405162461bcd60e51b815260206004820152601f60248201527f4665654d616e616765723a204e6f205553444320746f2077697468647261770060448201526064016103aa565b6104d16104a06106ee565b6001600160a01b037f000000000000000000000000000000000000000000000000000000000000000016908361084e565b50565b7f00000000000000000000000000000000000000000000000000000000000000006001600160a01b0316331461051c5760405162461bcd60e51b81526004016103aa90611014565b6001600160a01b03909116600090815260026020526040902055565b336105416106ee565b6001600160a01b0316146105675760405162461bcd60e51b81526004016103aa90610fdf565b61057160006108a9565b565b7f00000000000000000000000000000000000000000000000000000000000000006001600160a01b031633146105bb5760405162461bcd60e51b81526004016103aa90611014565b82156105f6576105f66001600160a01b0385167f000000000000000000000000000000000000000000000000000000000000000030866108f9565b8015610631576106316001600160a01b0383167f000000000000000000000000000000000000000000000000000000000000000030846108f9565b600061063f85858585610931565b90506106d78169d3c21bcecceda10000007f00000000000000000000000000000000000000000000000000000000000000006001600160a01b03166318160ddd6040518163ffffffff1660e01b8152600401602060405180830381865afa1580156106ae573d6000803e3d6000fd5b505050506040513d601f19601f820116820180604052508101906106d29190610f99565b61079a565b6001546106e49190611041565b6001555050505050565b6000546001600160a01b031690565b336107066106ee565b6001600160a01b03161461072c5760405162461bcd60e51b81526004016103aa90610fdf565b6001600160a01b0381166107915760405162461bcd60e51b815260206004820152602660248201527f4f776e61626c653a206e6577206f776e657220697320746865207a65726f206160448201526564647265737360d01b60648201526084016103aa565b6104d1816108a9565b60008080600019858709858702925082811083820303915050806000036107d357600084116107c857600080fd5b508290049050610847565b8084116107df57600080fd5b600084868809851960019081018716968790049682860381900495909211909303600082900391909104909201919091029190911760038402600290811880860282030280860282030280860282030280860282030280860282030280860290910302029150505b9392505050565b6108a48363a9059cbb60e01b848460405160240161086d929190611059565b60408051601f198184030181529190526020810180516001600160e01b03166001600160e01b0319909316929092179091526109fd565b505050565b600080546001600160a01b038381166001600160a01b0319831681178455604051919092169283917f8be0079c531659141344cd1fd0a4f28419497f9722a3daafe3b4186f6b6457e09190a35050565b6040516001600160a01b03808516602483015283166044820152606481018290526103759085906323b872dd60e01b9060840161086d565b60007f00000000000000000000000000000000000000000000000000000000000000006001600160a01b0316856001600160a01b031614610987576109768585610acf565b6109809082611041565b9050610994565b6109918482611041565b90505b7f00000000000000000000000000000000000000000000000000000000000000006001600160a01b0316836001600160a01b0316146109e8576109d78383610acf565b6109e19082611041565b90506109f5565b6109f28282611041565b90505b949350505050565b6000610a52826040518060400160405280602081526020017f5361666545524332303a206c6f772d6c6576656c2063616c6c206661696c6564815250856001600160a01b0316610c5d9092919063ffffffff16565b8051909150156108a45780806020019051810190610a709190611072565b6108a45760405162461bcd60e51b815260206004820152602a60248201527f5361666545524332303a204552433230206f7065726174696f6e20646964206e6044820152691bdd081cdd58d8d9595960b21b60648201526084016103aa565b600081600003610ae157506000610c57565b610b0c837f000000000000000000000000000000000000000000000000000000000000000084610c6c565b6040805160e0810182526001600160a01b0385811682527f000000000000000000000000000000000000000000000000000000000000000081166020830190815262ffffff7f00000000000000000000000000000000000000000000000000000000000000008116848601908152306060860190815260808601898152600060a0880181815260c0890191825298516304e45aaf60e01b815288518816600482015295518716602487015292519093166044850152518416606484015290516084830152935160a48201529251811660c484015290917f0000000000000000000000000000000000000000000000000000000000000000909116906304e45aaf9060e4016020604051808303816000875af1158015610c2f573d6000803e3d6000fd5b505050506040513d601f19601f82011682018060405250810190610c539190610f99565b9150505b92915050565b60606109f58484600085610d76565b600080846001600160a01b031663095ea7b360e01b8585604051602401610c94929190611059565b60408051601f198184030181529181526020820180516001600160e01b03166001600160e01b0319909416939093179092529051610cd291906110c0565b6000604051808303816000865af19150503d8060008114610d0f576040519150601f19603f3d011682016040523d82523d6000602084013e610d14565b606091505b5091509150818015610d3e575080511580610d3e575080806020019051810190610d3e9190611072565b610d6f5760405162461bcd60e51b8152602060048201526002602482015261534160f01b60448201526064016103aa565b5050505050565b606082471015610dd75760405162461bcd60e51b815260206004820152602660248201527f416464726573733a20696e73756666696369656e742062616c616e636520666f6044820152651c8818d85b1b60d21b60648201526084016103aa565b6001600160a01b0385163b610e2e5760405162461bcd60e51b815260206004820152601d60248201527f416464726573733a2063616c6c20746f206e6f6e2d636f6e747261637400000060448201526064016103aa565b600080866001600160a01b03168587604051610e4a91906110c0565b60006040518083038185875af1925050503d8060008114610e87576040519150601f19603f3d011682016040523d82523d6000602084013e610e8c565b606091505b5091509150610e9c828286610ea7565b979650505050505050565b60608315610eb6575081610847565b825115610ec65782518084602001fd5b8160405162461bcd60e51b81526004016103aa91906110dc565b80356001600160a01b0381168114610ef757600080fd5b919050565b600060208284031215610f0e57600080fd5b61084782610ee0565b6001600160a01b0391909116815260200190565b60008060408385031215610f3e57600080fd5b610f4783610ee0565b946020939093013593505050565b60008060008060808587031215610f6b57600080fd5b610f7485610ee0565b935060208501359250610f8960408601610ee0565b9396929550929360600135925050565b600060208284031215610fab57600080fd5b5051919050565b634e487b7160e01b600052601160045260246000fd5b600082821015610fda57610fda610fb2565b500390565b6020808252818101527f4f776e61626c653a2063616c6c6572206973206e6f7420746865206f776e6572604082015260600190565b60208082526013908201527213db9b1e481d985d5b1d0818d85b8818d85b1b606a1b604082015260600190565b6000821982111561105457611054610fb2565b500190565b6001600160a01b03929092168252602082015260400190565b60006020828403121561108457600080fd5b8151801515811461084757600080fd5b60005b838110156110af578181015183820152602001611097565b838111156103755750506000910152565b600082516110d2818460208701611094565b9190910192915050565b60208152600082518060208401526110fb816040850160208701611094565b601f01601f1916919091016040019291505056fea264697066735822122005c471f83bde738778dd5f64269dff3a6484b0bf1acc3556bd8ba28915b5c72964736f6c634300080d0033",
  "devdoc": {
    "kind": "dev",
    "methods": {
      "owner()": {
        "details": "Returns the address of the current owner."
      },
      "renounceOwnership()": {
        "details": "Leaves the contract without owner. It will not be possible to call `onlyOwner` functions anymore. Can only be called by the current owner. NOTE: Renouncing ownership will leave the contract without an owner, thereby removing any functionality that is only available to the owner."
      },
      "transferOwnership(address)": {
        "details": "Transfers ownership of the contract to a new account (`newOwner`). Can only be called by the current owner."
      },
      "withdrawEmergency()": {
        "details": "Emergency withdraw only called by owner"
      }
    },
    "version": 1
  },
  "userdoc": {
    "kind": "user",
    "methods": {},
    "version": 1
  },
  "storageLayout": {
    "storage": [
      {
        "astId": 2696,
        "contract": "contracts/FeeManager.sol:FeeManager",
        "label": "_owner",
        "offset": 0,
        "slot": "0",
        "type": "t_address"
      },
      {
        "astId": 6499,
        "contract": "contracts/FeeManager.sol:FeeManager",
        "label": "accumulatedRewardsPerShare",
        "offset": 0,
        "slot": "1",
        "type": "t_uint256"
      },
      {
        "astId": 6503,
        "contract": "contracts/FeeManager.sol:FeeManager",
        "label": "rewardDebt",
        "offset": 0,
        "slot": "2",
        "type": "t_mapping(t_address,t_uint256)"
      }
    ],
    "types": {
      "t_address": {
        "encoding": "inplace",
        "label": "address",
        "numberOfBytes": "20"
      },
      "t_mapping(t_address,t_uint256)": {
        "encoding": "mapping",
        "key": "t_address",
        "label": "mapping(address => uint256)",
        "numberOfBytes": "32",
        "value": "t_uint256"
      },
      "t_uint256": {
        "encoding": "inplace",
        "label": "uint256",
        "numberOfBytes": "32"
      }
    }
  }
}