{
  "address": "0x8848478D8aDc770cAB1bC75c19A7d36dd689AEeF",
  "abi": [
    {
      "inputs": [
        {
          "internalType": "address",
          "name": "vault_",
          "type": "address"
        },
        {
          "internalType": "address",
          "name": "usdc_",
          "type": "address"
        },
        {
          "internalType": "address",
          "name": "uniSwapRouter_",
          "type": "address"
        }
      ],
      "stateMutability": "nonpayable",
      "type": "constructor"
    },
    {
      "inputs": [],
      "name": "REWARDS_PRECISION",
      "outputs": [
        {
          "internalType": "uint256",
          "name": "",
          "type": "uint256"
        }
      ],
      "stateMutability": "view",
      "type": "function"
    },
    {
      "inputs": [],
      "name": "accumulatedRewardsPerShare",
      "outputs": [
        {
          "internalType": "uint256",
          "name": "",
          "type": "uint256"
        }
      ],
      "stateMutability": "view",
      "type": "function"
    },
    {
      "inputs": [
        {
          "internalType": "address",
          "name": "claimer",
          "type": "address"
        }
      ],
      "name": "claimFees",
      "outputs": [],
      "stateMutability": "nonpayable",
      "type": "function"
    },
    {
      "inputs": [
        {
          "internalType": "address",
          "name": "token0",
          "type": "address"
        },
        {
          "internalType": "uint256",
          "name": "fees0",
          "type": "uint256"
        },
        {
          "internalType": "address",
          "name": "token1",
          "type": "address"
        },
        {
          "internalType": "uint256",
          "name": "fees1",
          "type": "uint256"
        }
      ],
      "name": "depositFees",
      "outputs": [],
      "stateMutability": "nonpayable",
      "type": "function"
    },
    {
      "inputs": [
        {
          "internalType": "address",
          "name": "",
          "type": "address"
        }
      ],
      "name": "rewardDebt",
      "outputs": [
        {
          "internalType": "uint256",
          "name": "",
          "type": "uint256"
        }
      ],
      "stateMutability": "view",
      "type": "function"
    },
    {
      "inputs": [],
      "name": "router",
      "outputs": [
        {
          "internalType": "contract ISwapRouter02",
          "name": "",
          "type": "address"
        }
      ],
      "stateMutability": "view",
      "type": "function"
    },
    {
      "inputs": [
        {
          "internalType": "address",
          "name": "_user",
          "type": "address"
        },
        {
          "internalType": "uint256",
          "name": "_amount",
          "type": "uint256"
        }
      ],
      "name": "setRewardDebt",
      "outputs": [],
      "stateMutability": "nonpayable",
      "type": "function"
    },
    {
      "inputs": [],
      "name": "usdc",
      "outputs": [
        {
          "internalType": "contract IERC20",
          "name": "",
          "type": "address"
        }
      ],
      "stateMutability": "view",
      "type": "function"
    },
    {
      "inputs": [],
      "name": "vault",
      "outputs": [
        {
          "internalType": "contract IERC20",
          "name": "",
          "type": "address"
        }
      ],
      "stateMutability": "view",
      "type": "function"
    }
  ],
  "transactionHash": "0xfea24836a25e272065c16a9f69d8716fd3046552085de98abc67537eb2ba5d60",
  "args": [
    "0x3884F9eE9dfA0550797f58049a448FA379C04C71",
    "0x833589fCD6eDb6E08f4c7C32D4f71b54bdA02913",
    "0x2626664c2603336E57B271c5C0b26F421741e481"
  ],
  "numDeployments": 1,
  "solcInputHash": "09c244172d4e906acb00be1064c308d2",
  "bytecode": "0x60e060405234801561001057600080fd5b50604051610fea380380610fea83398101604081905261002f9161018f565b6001600160a01b0383166100955760405162461bcd60e51b815260206004820152602260248201527f4665654d616e616765723a20496e76616c6964207661756c745f206164647265604482015261737360f01b60648201526084015b60405180910390fd5b6001600160a01b0382166100f55760405162461bcd60e51b815260206004820152602160248201527f4665654d616e616765723a20496e76616c696420757364635f206164647265736044820152607360f81b606482015260840161008c565b6001600160a01b0381166101565760405162461bcd60e51b815260206004820152602260248201527f4665654d616e616765723a20756e6953776170526f757465725f206164647265604482015261737360f01b606482015260840161008c565b6001600160a01b0392831660805290821660a0521660c0526101d2565b80516001600160a01b038116811461018a57600080fd5b919050565b6000806000606084860312156101a457600080fd5b6101ad84610173565b92506101bb60208501610173565b91506101c960408501610173565b90509250925092565b60805160a05160c051610d96610254600039600081816101470152818161078f015261086a01526000818160be015281816102ad015281816105ff0152818161064f01526107cd01526000818161016e015281816101aa015281816102dc015281816103490152818161039e015281816103d301526104180152610d966000f3fe608060405234801561001057600080fd5b50600436106100835760003560e01c8063061960aa1461008857806315a0ea6a146100a45780633e413bee146100b95780634158e3e3146100ed5780635873eb9b1461010057806375a9f56d1461012057806386b3cd2614610133578063f887ea4014610142578063fbfa77cf14610169575b600080fd5b61009160005481565b6040519081526020015b60405180910390f35b6100b76100b2366004610b82565b610190565b005b6100e07f000000000000000000000000000000000000000000000000000000000000000081565b60405161009b9190610b9d565b6100b76100fb366004610bb1565b6102da565b61009161010e366004610b82565b60016020526000908152604090205481565b6100b761012e366004610bdb565b610347565b610091670de0b6b3a764000081565b6100e07f000000000000000000000000000000000000000000000000000000000000000081565b6100e07f000000000000000000000000000000000000000000000000000000000000000081565b6040516370a0823160e01b81526000906001600160a01b037f000000000000000000000000000000000000000000000000000000000000000016906370a08231906101df908590600401610b9d565b602060405180830381865afa1580156101fc573d6000803e3d6000fd5b505050506040513d601f19601f820116820180604052508101906102209190610c1f565b9050600061023982600054670de0b6b3a76400006104b4565b6001600160a01b038416600090815260016020526040812054919250906102609083610c4e565b90508060000361028b57506001600160a01b0390921660009081526001602052604090209190915550565b6001600160a01b0380851660009081526001602052604090208390556102d4907f0000000000000000000000000000000000000000000000000000000000000000168583610568565b50505050565b7f00000000000000000000000000000000000000000000000000000000000000006001600160a01b0316331461032b5760405162461bcd60e51b815260040161032290610c65565b60405180910390fd5b6001600160a01b03909116600090815260016020526040902055565b7f00000000000000000000000000000000000000000000000000000000000000006001600160a01b0316331461038f5760405162461bcd60e51b815260040161032290610c65565b6103c46001600160a01b0385167f000000000000000000000000000000000000000000000000000000000000000030866105c3565b6103f96001600160a01b0383167f000000000000000000000000000000000000000000000000000000000000000030846105c3565b6000610407858585856105fb565b905061049d81670de0b6b3a76400007f00000000000000000000000000000000000000000000000000000000000000006001600160a01b03166318160ddd6040518163ffffffff1660e01b8152600401602060405180830381865afa158015610474573d6000803e3d6000fd5b505050506040513d601f19601f820116820180604052508101906104989190610c1f565b6104b4565b6000546104aa9190610c92565b6000555050505050565b60008080600019858709858702925082811083820303915050806000036104ed57600084116104e257600080fd5b508290049050610561565b8084116104f957600080fd5b600084868809851960019081018716968790049682860381900495909211909303600082900391909104909201919091029190911760038402600290811880860282030280860282030280860282030280860282030280860282030280860290910302029150505b9392505050565b6105be8363a9059cbb60e01b8484604051602401610587929190610caa565b60408051601f198184030181529190526020810180516001600160e01b03166001600160e01b0319909316929092179091526106a5565b505050565b6040516001600160a01b03808516602483015283166044820152606481018290526102d49085906323b872dd60e01b90608401610587565b60007f00000000000000000000000000000000000000000000000000000000000000006001600160a01b0316856001600160a01b03161461064d576106408585610777565b61064a9082610c92565b90505b7f00000000000000000000000000000000000000000000000000000000000000006001600160a01b0316836001600160a01b03161461069d576106908383610777565b61069a9082610c92565b90505b949350505050565b60006106fa826040518060400160405280602081526020017f5361666545524332303a206c6f772d6c6576656c2063616c6c206661696c6564815250856001600160a01b03166108e39092919063ffffffff16565b8051909150156105be57808060200190518101906107189190610cc3565b6105be5760405162461bcd60e51b815260206004820152602a60248201527f5361666545524332303a204552433230206f7065726174696f6e20646964206e6044820152691bdd081cdd58d8d9595960b21b6064820152608401610322565b600081600003610789575060006108dd565b6107b4837f0000000000000000000000000000000000000000000000000000000000000000846108f2565b6040805160e0810182526001600160a01b0385811682527f0000000000000000000000000000000000000000000000000000000000000000811660208301908152610bb8838501908152306060850190815260808501888152600060a0870181815260c0880191825297516304e45aaf60e01b8152875187166004820152945186166024860152925162ffffff166044850152905184166064840152516084830152935160a48201529251811660c484015290917f0000000000000000000000000000000000000000000000000000000000000000909116906304e45aaf9060e4016020604051808303816000875af11580156108b5573d6000803e3d6000fd5b505050506040513d601f19601f820116820180604052508101906108d99190610c1f565b9150505b92915050565b606061069d84846000856109fc565b600080846001600160a01b031663095ea7b360e01b858560405160240161091a929190610caa565b60408051601f198184030181529181526020820180516001600160e01b03166001600160e01b03199094169390931790925290516109589190610d11565b6000604051808303816000865af19150503d8060008114610995576040519150601f19603f3d011682016040523d82523d6000602084013e61099a565b606091505b50915091508180156109c45750805115806109c45750808060200190518101906109c49190610cc3565b6109f55760405162461bcd60e51b8152602060048201526002602482015261534160f01b6044820152606401610322565b5050505050565b606082471015610a5d5760405162461bcd60e51b815260206004820152602660248201527f416464726573733a20696e73756666696369656e742062616c616e636520666f6044820152651c8818d85b1b60d21b6064820152608401610322565b6001600160a01b0385163b610ab45760405162461bcd60e51b815260206004820152601d60248201527f416464726573733a2063616c6c20746f206e6f6e2d636f6e74726163740000006044820152606401610322565b600080866001600160a01b03168587604051610ad09190610d11565b60006040518083038185875af1925050503d8060008114610b0d576040519150601f19603f3d011682016040523d82523d6000602084013e610b12565b606091505b5091509150610b22828286610b2d565b979650505050505050565b60608315610b3c575081610561565b825115610b4c5782518084602001fd5b8160405162461bcd60e51b81526004016103229190610d2d565b80356001600160a01b0381168114610b7d57600080fd5b919050565b600060208284031215610b9457600080fd5b61056182610b66565b6001600160a01b0391909116815260200190565b60008060408385031215610bc457600080fd5b610bcd83610b66565b946020939093013593505050565b60008060008060808587031215610bf157600080fd5b610bfa85610b66565b935060208501359250610c0f60408601610b66565b9396929550929360600135925050565b600060208284031215610c3157600080fd5b5051919050565b634e487b7160e01b600052601160045260246000fd5b600082821015610c6057610c60610c38565b500390565b60208082526013908201527213db9b1e481d985d5b1d0818d85b8818d85b1b606a1b604082015260600190565b60008219821115610ca557610ca5610c38565b500190565b6001600160a01b03929092168252602082015260400190565b600060208284031215610cd557600080fd5b8151801515811461056157600080fd5b60005b83811015610d00578181015183820152602001610ce8565b838111156102d45750506000910152565b60008251610d23818460208701610ce5565b9190910192915050565b6020815260008251806020840152610d4c816040850160208701610ce5565b601f01601f1916919091016040019291505056fea2646970667358221220438968b63c897c21261287e18aa5d2b698edb2c74e46f759db3997cd1d43026564736f6c634300080d0033",
  "devdoc": {
    "kind": "dev",
    "methods": {},
    "version": 1
  },
  "userdoc": {
    "kind": "user",
    "methods": {},
    "version": 1
  },
  "storageLayout": {
    "storage": [
      {
        "astId": 9297,
        "contract": "contracts/FeeManager.sol:FeeManager",
        "label": "accumulatedRewardsPerShare",
        "offset": 0,
        "slot": "0",
        "type": "t_uint256"
      },
      {
        "astId": 9301,
        "contract": "contracts/FeeManager.sol:FeeManager",
        "label": "rewardDebt",
        "offset": 0,
        "slot": "1",
        "type": "t_mapping(t_address,t_uint256)"
      }
    ],
    "types": {
      "t_address": {
        "encoding": "inplace",
        "label": "address",
        "numberOfBytes": "20"
      },
      "t_mapping(t_address,t_uint256)": {
        "encoding": "mapping",
        "key": "t_address",
        "label": "mapping(address => uint256)",
        "numberOfBytes": "32",
        "value": "t_uint256"
      },
      "t_uint256": {
        "encoding": "inplace",
        "label": "uint256",
        "numberOfBytes": "32"
      }
    }
  }
}