{
  "address": "0x30157e46b919EEC3E5d46bDc17c360b8bb442C30",
  "abi": [
    {
      "inputs": [
        {
          "internalType": "address",
          "name": "vault_",
          "type": "address"
        },
        {
          "internalType": "address",
          "name": "usdc_",
          "type": "address"
        },
        {
          "internalType": "address",
          "name": "uniSwapRouter_",
          "type": "address"
        },
        {
          "internalType": "uint24",
          "name": "feeTier_",
          "type": "uint24"
        }
      ],
      "stateMutability": "nonpayable",
      "type": "constructor"
    },
    {
      "inputs": [],
      "name": "REWARDS_PRECISION",
      "outputs": [
        {
          "internalType": "uint256",
          "name": "",
          "type": "uint256"
        }
      ],
      "stateMutability": "view",
      "type": "function"
    },
    {
      "inputs": [],
      "name": "accumulatedRewardsPerShare",
      "outputs": [
        {
          "internalType": "uint256",
          "name": "",
          "type": "uint256"
        }
      ],
      "stateMutability": "view",
      "type": "function"
    },
    {
      "inputs": [
        {
          "internalType": "address",
          "name": "claimer",
          "type": "address"
        }
      ],
      "name": "claimFees",
      "outputs": [],
      "stateMutability": "nonpayable",
      "type": "function"
    },
    {
      "inputs": [
        {
          "internalType": "address",
          "name": "token0",
          "type": "address"
        },
        {
          "internalType": "uint256",
          "name": "fees0",
          "type": "uint256"
        },
        {
          "internalType": "address",
          "name": "token1",
          "type": "address"
        },
        {
          "internalType": "uint256",
          "name": "fees1",
          "type": "uint256"
        }
      ],
      "name": "depositFees",
      "outputs": [],
      "stateMutability": "nonpayable",
      "type": "function"
    },
    {
      "inputs": [],
      "name": "feeTier",
      "outputs": [
        {
          "internalType": "uint24",
          "name": "",
          "type": "uint24"
        }
      ],
      "stateMutability": "view",
      "type": "function"
    },
    {
      "inputs": [
        {
          "internalType": "address",
          "name": "",
          "type": "address"
        }
      ],
      "name": "rewardDebt",
      "outputs": [
        {
          "internalType": "uint256",
          "name": "",
          "type": "uint256"
        }
      ],
      "stateMutability": "view",
      "type": "function"
    },
    {
      "inputs": [],
      "name": "router",
      "outputs": [
        {
          "internalType": "contract ISwapRouter02",
          "name": "",
          "type": "address"
        }
      ],
      "stateMutability": "view",
      "type": "function"
    },
    {
      "inputs": [
        {
          "internalType": "address",
          "name": "_user",
          "type": "address"
        },
        {
          "internalType": "uint256",
          "name": "_amount",
          "type": "uint256"
        }
      ],
      "name": "setRewardDebt",
      "outputs": [],
      "stateMutability": "nonpayable",
      "type": "function"
    },
    {
      "inputs": [],
      "name": "usdc",
      "outputs": [
        {
          "internalType": "contract IERC20",
          "name": "",
          "type": "address"
        }
      ],
      "stateMutability": "view",
      "type": "function"
    },
    {
      "inputs": [],
      "name": "vault",
      "outputs": [
        {
          "internalType": "contract IERC20",
          "name": "",
          "type": "address"
        }
      ],
      "stateMutability": "view",
      "type": "function"
    }
  ],
  "transactionHash": "0x1152e0ff30550e7019c4e42473027b39f32f731302343b5ac7a2496cd1d0470b",
  "args": [
    "0xb13688c877268e32cc4584B6e06A3984d016dBB2",
    "0x833589fCD6eDb6E08f4c7C32D4f71b54bdA02913",
    "0x2626664c2603336E57B271c5C0b26F421741e481",
    10000
  ],
  "numDeployments": 1,
  "solcInputHash": "cd1211d3e2b834c102d4160a9b6226dd",
  "bytecode": "0x6101006040523480156200001257600080fd5b50604051620010ca380380620010ca8339810160408190526200003591620001a4565b6001600160a01b0384166200009c5760405162461bcd60e51b815260206004820152602260248201527f4665654d616e616765723a20496e76616c6964207661756c745f206164647265604482015261737360f01b60648201526084015b60405180910390fd5b6001600160a01b038316620000fe5760405162461bcd60e51b815260206004820152602160248201527f4665654d616e616765723a20496e76616c696420757364635f206164647265736044820152607360f81b606482015260840162000093565b6001600160a01b038216620001615760405162461bcd60e51b815260206004820152602260248201527f4665654d616e616765723a20756e6953776170526f757465725f206164647265604482015261737360f01b606482015260840162000093565b62ffffff1660e0526001600160a01b0392831660805290821660a0521660c0526200020a565b80516001600160a01b03811681146200019f57600080fd5b919050565b60008060008060808587031215620001bb57600080fd5b620001c68562000187565b9350620001d66020860162000187565b9250620001e66040860162000187565b9150606085015162ffffff81168114620001ff57600080fd5b939692955090935050565b60805160a05160c05160e051610e2c6200029e60003960008181610130015261086f01526000818161018d01528181610803015261090001526000818160c9015281816102f301528181610651015281816106b201526108410152600081816101b4015281816101f0015281816103220152818161038f015281816103ea01528181610425015261046a0152610e2c6000f3fe608060405234801561001057600080fd5b506004361061008e5760003560e01c8063061960aa1461009357806315a0ea6a146100af5780633e413bee146100c45780634158e3e3146100f85780635873eb9b1461010b57806372f5d98a1461012b57806375a9f56d1461016657806386b3cd2614610179578063f887ea4014610188578063fbfa77cf146101af575b600080fd5b61009c60005481565b6040519081526020015b60405180910390f35b6100c26100bd366004610c18565b6101d6565b005b6100eb7f000000000000000000000000000000000000000000000000000000000000000081565b6040516100a69190610c33565b6100c2610106366004610c47565b610320565b61009c610119366004610c18565b60016020526000908152604090205481565b6101527f000000000000000000000000000000000000000000000000000000000000000081565b60405162ffffff90911681526020016100a6565b6100c2610174366004610c71565b61038d565b61009c670de0b6b3a764000081565b6100eb7f000000000000000000000000000000000000000000000000000000000000000081565b6100eb7f000000000000000000000000000000000000000000000000000000000000000081565b6040516370a0823160e01b81526000906001600160a01b037f000000000000000000000000000000000000000000000000000000000000000016906370a0823190610225908590600401610c33565b602060405180830381865afa158015610242573d6000803e3d6000fd5b505050506040513d601f19601f820116820180604052508101906102669190610cb5565b9050600061027f82600054670de0b6b3a7640000610506565b6001600160a01b038416600090815260016020526040812054919250906102a69083610ce4565b9050806000036102d157506001600160a01b0390921660009081526001602052604090209190915550565b6001600160a01b03808516600090815260016020526040902083905561031a907f00000000000000000000000000000000000000000000000000000000000000001685836105ba565b50505050565b7f00000000000000000000000000000000000000000000000000000000000000006001600160a01b031633146103715760405162461bcd60e51b815260040161036890610cfb565b60405180910390fd5b6001600160a01b03909116600090815260016020526040902055565b7f00000000000000000000000000000000000000000000000000000000000000006001600160a01b031633146103d55760405162461bcd60e51b815260040161036890610cfb565b8215610410576104106001600160a01b0385167f00000000000000000000000000000000000000000000000000000000000000003086610615565b801561044b5761044b6001600160a01b0383167f00000000000000000000000000000000000000000000000000000000000000003084610615565b60006104598585858561064d565b90506104ef81670de0b6b3a76400007f00000000000000000000000000000000000000000000000000000000000000006001600160a01b03166318160ddd6040518163ffffffff1660e01b8152600401602060405180830381865afa1580156104c6573d6000803e3d6000fd5b505050506040513d601f19601f820116820180604052508101906104ea9190610cb5565b610506565b6000546104fc9190610d28565b6000555050505050565b600080806000198587098587029250828110838203039150508060000361053f576000841161053457600080fd5b5082900490506105b3565b80841161054b57600080fd5b600084868809851960019081018716968790049682860381900495909211909303600082900391909104909201919091029190911760038402600290811880860282030280860282030280860282030280860282030280860282030280860290910302029150505b9392505050565b6106108363a9059cbb60e01b84846040516024016105d9929190610d40565b60408051601f198184030181529190526020810180516001600160e01b03166001600160e01b031990931692909217909152610719565b505050565b6040516001600160a01b038085166024830152831660448201526064810182905261031a9085906323b872dd60e01b906084016105d9565b60007f00000000000000000000000000000000000000000000000000000000000000006001600160a01b0316856001600160a01b0316146106a35761069285856107eb565b61069c9082610d28565b90506106b0565b6106ad8482610d28565b90505b7f00000000000000000000000000000000000000000000000000000000000000006001600160a01b0316836001600160a01b031614610704576106f383836107eb565b6106fd9082610d28565b9050610711565b61070e8282610d28565b90505b949350505050565b600061076e826040518060400160405280602081526020017f5361666545524332303a206c6f772d6c6576656c2063616c6c206661696c6564815250856001600160a01b03166109799092919063ffffffff16565b805190915015610610578080602001905181019061078c9190610d59565b6106105760405162461bcd60e51b815260206004820152602a60248201527f5361666545524332303a204552433230206f7065726174696f6e20646964206e6044820152691bdd081cdd58d8d9595960b21b6064820152608401610368565b6000816000036107fd57506000610973565b610828837f000000000000000000000000000000000000000000000000000000000000000084610988565b6040805160e0810182526001600160a01b0385811682527f000000000000000000000000000000000000000000000000000000000000000081166020830190815262ffffff7f00000000000000000000000000000000000000000000000000000000000000008116848601908152306060860190815260808601898152600060a0880181815260c0890191825298516304e45aaf60e01b815288518816600482015295518716602487015292519093166044850152518416606484015290516084830152935160a48201529251811660c484015290917f0000000000000000000000000000000000000000000000000000000000000000909116906304e45aaf9060e4016020604051808303816000875af115801561094b573d6000803e3d6000fd5b505050506040513d601f19601f8201168201806040525081019061096f9190610cb5565b9150505b92915050565b60606107118484600085610a92565b600080846001600160a01b031663095ea7b360e01b85856040516024016109b0929190610d40565b60408051601f198184030181529181526020820180516001600160e01b03166001600160e01b03199094169390931790925290516109ee9190610da7565b6000604051808303816000865af19150503d8060008114610a2b576040519150601f19603f3d011682016040523d82523d6000602084013e610a30565b606091505b5091509150818015610a5a575080511580610a5a575080806020019051810190610a5a9190610d59565b610a8b5760405162461bcd60e51b8152602060048201526002602482015261534160f01b6044820152606401610368565b5050505050565b606082471015610af35760405162461bcd60e51b815260206004820152602660248201527f416464726573733a20696e73756666696369656e742062616c616e636520666f6044820152651c8818d85b1b60d21b6064820152608401610368565b6001600160a01b0385163b610b4a5760405162461bcd60e51b815260206004820152601d60248201527f416464726573733a2063616c6c20746f206e6f6e2d636f6e74726163740000006044820152606401610368565b600080866001600160a01b03168587604051610b669190610da7565b60006040518083038185875af1925050503d8060008114610ba3576040519150601f19603f3d011682016040523d82523d6000602084013e610ba8565b606091505b5091509150610bb8828286610bc3565b979650505050505050565b60608315610bd25750816105b3565b825115610be25782518084602001fd5b8160405162461bcd60e51b81526004016103689190610dc3565b80356001600160a01b0381168114610c1357600080fd5b919050565b600060208284031215610c2a57600080fd5b6105b382610bfc565b6001600160a01b0391909116815260200190565b60008060408385031215610c5a57600080fd5b610c6383610bfc565b946020939093013593505050565b60008060008060808587031215610c8757600080fd5b610c9085610bfc565b935060208501359250610ca560408601610bfc565b9396929550929360600135925050565b600060208284031215610cc757600080fd5b5051919050565b634e487b7160e01b600052601160045260246000fd5b600082821015610cf657610cf6610cce565b500390565b60208082526013908201527213db9b1e481d985d5b1d0818d85b8818d85b1b606a1b604082015260600190565b60008219821115610d3b57610d3b610cce565b500190565b6001600160a01b03929092168252602082015260400190565b600060208284031215610d6b57600080fd5b815180151581146105b357600080fd5b60005b83811015610d96578181015183820152602001610d7e565b8381111561031a5750506000910152565b60008251610db9818460208701610d7b565b9190910192915050565b6020815260008251806020840152610de2816040850160208701610d7b565b601f01601f1916919091016040019291505056fea2646970667358221220473386b3f1724ec8c6e0bfec99ba25c6dbfbe9ba38c5536276d81ec259037daa64736f6c634300080d0033",
  "devdoc": {
    "kind": "dev",
    "methods": {},
    "version": 1
  },
  "userdoc": {
    "kind": "user",
    "methods": {},
    "version": 1
  },
  "storageLayout": {
    "storage": [
      {
        "astId": 1170,
        "contract": "contracts/FeeManager.sol:FeeManager",
        "label": "accumulatedRewardsPerShare",
        "offset": 0,
        "slot": "0",
        "type": "t_uint256"
      },
      {
        "astId": 1174,
        "contract": "contracts/FeeManager.sol:FeeManager",
        "label": "rewardDebt",
        "offset": 0,
        "slot": "1",
        "type": "t_mapping(t_address,t_uint256)"
      }
    ],
    "types": {
      "t_address": {
        "encoding": "inplace",
        "label": "address",
        "numberOfBytes": "20"
      },
      "t_mapping(t_address,t_uint256)": {
        "encoding": "mapping",
        "key": "t_address",
        "label": "mapping(address => uint256)",
        "numberOfBytes": "32",
        "value": "t_uint256"
      },
      "t_uint256": {
        "encoding": "inplace",
        "label": "uint256",
        "numberOfBytes": "32"
      }
    }
  }
}