{
  "address": "0xCCa8EFb0537bD55a372c9bE076650e5B88251fDa",
  "abi": [
    {
      "inputs": [
        {
          "internalType": "address",
          "name": "vault_",
          "type": "address"
        },
        {
          "internalType": "address",
          "name": "usdc_",
          "type": "address"
        },
        {
          "internalType": "address",
          "name": "chaos_",
          "type": "address"
        },
        {
          "internalType": "address",
          "name": "uniSwapRouter_",
          "type": "address"
        },
        {
          "internalType": "uint24",
          "name": "feeTier_",
          "type": "uint24"
        }
      ],
      "stateMutability": "nonpayable",
      "type": "constructor"
    },
    {
      "anonymous": false,
      "inputs": [
        {
          "indexed": true,
          "internalType": "address",
          "name": "previousOwner",
          "type": "address"
        },
        {
          "indexed": true,
          "internalType": "address",
          "name": "newOwner",
          "type": "address"
        }
      ],
      "name": "OwnershipTransferred",
      "type": "event"
    },
    {
      "anonymous": false,
      "inputs": [
        {
          "indexed": true,
          "internalType": "address",
          "name": "user",
          "type": "address"
        },
        {
          "indexed": false,
          "internalType": "uint256",
          "name": "usdcAmount",
          "type": "uint256"
        },
        {
          "indexed": false,
          "internalType": "uint256",
          "name": "chaosAmount",
          "type": "uint256"
        }
      ],
      "name": "RewardsClaimed",
      "type": "event"
    },
    {
      "anonymous": false,
      "inputs": [
        {
          "indexed": false,
          "internalType": "uint256",
          "name": "usdcAmount",
          "type": "uint256"
        }
      ],
      "name": "RewardsConvertedToUsdc",
      "type": "event"
    },
    {
      "inputs": [],
      "name": "REWARDS_PRECISION",
      "outputs": [
        {
          "internalType": "uint256",
          "name": "",
          "type": "uint256"
        }
      ],
      "stateMutability": "view",
      "type": "function"
    },
    {
      "inputs": [],
      "name": "accumulatedRewardsPerShare",
      "outputs": [
        {
          "internalType": "uint256",
          "name": "",
          "type": "uint256"
        }
      ],
      "stateMutability": "view",
      "type": "function"
    },
    {
      "inputs": [],
      "name": "chaos",
      "outputs": [
        {
          "internalType": "contract IERC20",
          "name": "",
          "type": "address"
        }
      ],
      "stateMutability": "view",
      "type": "function"
    },
    {
      "inputs": [
        {
          "internalType": "address",
          "name": "claimer",
          "type": "address"
        }
      ],
      "name": "claimFees",
      "outputs": [],
      "stateMutability": "nonpayable",
      "type": "function"
    },
    {
      "inputs": [
        {
          "internalType": "address",
          "name": "token0",
          "type": "address"
        },
        {
          "internalType": "uint256",
          "name": "fees0",
          "type": "uint256"
        },
        {
          "internalType": "address",
          "name": "token1",
          "type": "address"
        },
        {
          "internalType": "uint256",
          "name": "fees1",
          "type": "uint256"
        }
      ],
      "name": "depositFees",
      "outputs": [],
      "stateMutability": "nonpayable",
      "type": "function"
    },
    {
      "inputs": [],
      "name": "feeTier",
      "outputs": [
        {
          "internalType": "uint24",
          "name": "",
          "type": "uint24"
        }
      ],
      "stateMutability": "view",
      "type": "function"
    },
    {
      "inputs": [],
      "name": "owner",
      "outputs": [
        {
          "internalType": "address",
          "name": "",
          "type": "address"
        }
      ],
      "stateMutability": "view",
      "type": "function"
    },
    {
      "inputs": [],
      "name": "rate",
      "outputs": [
        {
          "internalType": "uint256",
          "name": "",
          "type": "uint256"
        }
      ],
      "stateMutability": "view",
      "type": "function"
    },
    {
      "inputs": [],
      "name": "renounceOwnership",
      "outputs": [],
      "stateMutability": "nonpayable",
      "type": "function"
    },
    {
      "inputs": [
        {
          "internalType": "address",
          "name": "",
          "type": "address"
        }
      ],
      "name": "rewardDebt",
      "outputs": [
        {
          "internalType": "uint256",
          "name": "",
          "type": "uint256"
        }
      ],
      "stateMutability": "view",
      "type": "function"
    },
    {
      "inputs": [],
      "name": "router",
      "outputs": [
        {
          "internalType": "contract ISwapRouter02",
          "name": "",
          "type": "address"
        }
      ],
      "stateMutability": "view",
      "type": "function"
    },
    {
      "inputs": [
        {
          "internalType": "uint256",
          "name": "newRate",
          "type": "uint256"
        }
      ],
      "name": "setRate",
      "outputs": [],
      "stateMutability": "nonpayable",
      "type": "function"
    },
    {
      "inputs": [
        {
          "internalType": "address",
          "name": "_user",
          "type": "address"
        },
        {
          "internalType": "uint256",
          "name": "_amount",
          "type": "uint256"
        }
      ],
      "name": "setRewardDebt",
      "outputs": [],
      "stateMutability": "nonpayable",
      "type": "function"
    },
    {
      "inputs": [
        {
          "internalType": "address",
          "name": "newOwner",
          "type": "address"
        }
      ],
      "name": "transferOwnership",
      "outputs": [],
      "stateMutability": "nonpayable",
      "type": "function"
    },
    {
      "inputs": [],
      "name": "usdc",
      "outputs": [
        {
          "internalType": "contract IERC20",
          "name": "",
          "type": "address"
        }
      ],
      "stateMutability": "view",
      "type": "function"
    },
    {
      "inputs": [],
      "name": "vault",
      "outputs": [
        {
          "internalType": "contract IERC20",
          "name": "",
          "type": "address"
        }
      ],
      "stateMutability": "view",
      "type": "function"
    },
    {
      "inputs": [],
      "name": "withdrawEmergency",
      "outputs": [],
      "stateMutability": "nonpayable",
      "type": "function"
    },
    {
      "inputs": [],
      "name": "withdrawalChaos",
      "outputs": [],
      "stateMutability": "nonpayable",
      "type": "function"
    }
  ],
  "transactionHash": "0x70392d46000c87f46a72dd3762785f4aa5d067472aa256f326126ce7501c3e58",
  "args": [
    "0x3Fd7957D9F98D46c755685B67dFD8505468A7Cb6",
    "0x833589fCD6eDb6E08f4c7C32D4f71b54bdA02913",
    "0x6573D177273931c44Aa647DaAF90325545a7fCC4",
    "0x2626664c2603336E57B271c5C0b26F421741e481",
    10000
  ],
  "numDeployments": 2,
  "solcInputHash": "b30c00934bcb33ce669789d96b7e32f8",
  "bytecode": "0x6101206040523480156200001257600080fd5b5060405162001a4a38038062001a4a8339810160408190526200003591620002e9565b6200004033620001ab565b6001600160a01b038516620000a75760405162461bcd60e51b815260206004820152602260248201527f4665654d616e616765723a20496e76616c6964207661756c745f206164647265604482015261737360f01b60648201526084015b60405180910390fd5b6001600160a01b038416620001095760405162461bcd60e51b815260206004820152602160248201527f4665654d616e616765723a20496e76616c696420757364635f206164647265736044820152607360f81b60648201526084016200009e565b6001600160a01b0382166200016c5760405162461bcd60e51b815260206004820152602260248201527f4665654d616e616765723a20756e6953776170526f757465725f206164647265604482015261737360f01b60648201526084016200009e565b62ffffff8116610100526001600160a01b0380861660a05284811660c052838116608052821660e052620001a033620001fb565b505050505062000364565b600080546001600160a01b038381166001600160a01b0319831681178455604051919092169283917f8be0079c531659141344cd1fd0a4f28419497f9722a3daafe3b4186f6b6457e09190a35050565b6000546001600160a01b03163314620002575760405162461bcd60e51b815260206004820181905260248201527f4f776e61626c653a2063616c6c6572206973206e6f7420746865206f776e657260448201526064016200009e565b6001600160a01b038116620002be5760405162461bcd60e51b815260206004820152602660248201527f4f776e61626c653a206e6577206f776e657220697320746865207a65726f206160448201526564647265737360d01b60648201526084016200009e565b620002c981620001ab565b50565b80516001600160a01b0381168114620002e457600080fd5b919050565b600080600080600060a086880312156200030257600080fd5b6200030d86620002cc565b94506200031d60208701620002cc565b93506200032d60408701620002cc565b92506200033d60608701620002cc565b9150608086015162ffffff811681146200035657600080fd5b809150509295509295909350565b60805160a05160c05160e0516101005161162362000427600039600081816101c40152610ec101526000818161026d01528181610e550152610f5201526000818161014d01528181610417015281816105490152818161062601528181610ca301528181610d040152610e93015260008181610294015281816102d001528181610652015281816106f10152818161074c0152818161078701526107ce01526000818161023301528181610451015281816108f501526109cb01526116236000f3fe608060405234801561001057600080fd5b50600436106100f65760003560e01c806372f5d98a1161009257806372f5d98a146101bf57806375a9f56d146101fa57806386b3cd261461020d5780638da5cb5b1461021e578063a5f5d96214610226578063bdf118791461022e578063f2fde38b14610255578063f887ea4014610268578063fbfa77cf1461028f57600080fd5b8063061960aa146100fb57806315a0ea6a146101175780632c4e722e1461012c57806334fcf437146101355780633e413bee146101485780634146a0731461017c5780634158e3e3146101845780635873eb9b14610197578063715018a6146101b7575b600080fd5b61010460025481565b6040519081526020015b60405180910390f35b61012a61012536600461126a565b6102b6565b005b61010460015481565b61012a610143366004611285565b6104c3565b61016f7f000000000000000000000000000000000000000000000000000000000000000081565b60405161010e919061129e565b61012a610500565b61012a6101923660046112b2565b610650565b6101046101a536600461126a565b60036020526000908152604090205481565b61012a6106b4565b6101e67f000000000000000000000000000000000000000000000000000000000000000081565b60405162ffffff909116815260200161010e565b61012a6102083660046112dc565b6106ef565b61010469d3c21bcecceda100000081565b61016f61089d565b61012a6108ac565b61016f7f000000000000000000000000000000000000000000000000000000000000000081565b61012a61026336600461126a565b610a65565b61016f7f000000000000000000000000000000000000000000000000000000000000000081565b61016f7f000000000000000000000000000000000000000000000000000000000000000081565b6040516370a0823160e01b81526000906001600160a01b037f000000000000000000000000000000000000000000000000000000000000000016906370a082319061030590859060040161129e565b602060405180830381865afa158015610322573d6000803e3d6000fd5b505050506040513d601f19601f820116820180604052508101906103469190611320565b905060006103618260025469d3c21bcecceda1000000610b02565b6001600160a01b03841660009081526003602052604081205491925090610388908361134f565b9050806000036103b357506001600160a01b0390921660009081526003602052604090209190915550565b6001600160a01b038416600090815260036020526040812083905560646103dc60066012611366565b6103e790600a61146d565b6001546103f4908561147c565b6103fe919061147c565b610408919061149b565b905061043e6001600160a01b037f0000000000000000000000000000000000000000000000000000000000000000168684610bb6565b8015610478576104786001600160a01b037f0000000000000000000000000000000000000000000000000000000000000000168683610bb6565b60408051838152602081018390526001600160a01b038716917fdacbdde355ba930696a362ea6738feb9f8bd52dfb3d81947558fd3217e23e325910160405180910390a25050505050565b336104cc61089d565b6001600160a01b0316146104fb5760405162461bcd60e51b81526004016104f2906114bd565b60405180910390fd5b600155565b3361050961089d565b6001600160a01b03161461052f5760405162461bcd60e51b81526004016104f2906114bd565b6040516370a0823160e01b81526000906001600160a01b037f000000000000000000000000000000000000000000000000000000000000000016906370a082319061057e90309060040161129e565b602060405180830381865afa15801561059b573d6000803e3d6000fd5b505050506040513d601f19601f820116820180604052508101906105bf9190611320565b9050600081116106115760405162461bcd60e51b815260206004820152601f60248201527f4665654d616e616765723a204e6f205553444320746f2077697468647261770060448201526064016104f2565b61064d61061c61089d565b6001600160a01b037f0000000000000000000000000000000000000000000000000000000000000000169083610bb6565b50565b7f00000000000000000000000000000000000000000000000000000000000000006001600160a01b031633146106985760405162461bcd60e51b81526004016104f2906114f2565b6001600160a01b03909116600090815260036020526040902055565b336106bd61089d565b6001600160a01b0316146106e35760405162461bcd60e51b81526004016104f2906114bd565b6106ed6000610c11565b565b7f00000000000000000000000000000000000000000000000000000000000000006001600160a01b031633146107375760405162461bcd60e51b81526004016104f2906114f2565b8215610772576107726001600160a01b0385167f00000000000000000000000000000000000000000000000000000000000000003086610c61565b80156107ad576107ad6001600160a01b0383167f00000000000000000000000000000000000000000000000000000000000000003084610c61565b60006107bb85858585610c9f565b90506108538169d3c21bcecceda10000007f00000000000000000000000000000000000000000000000000000000000000006001600160a01b03166318160ddd6040518163ffffffff1660e01b8152600401602060405180830381865afa15801561082a573d6000803e3d6000fd5b505050506040513d601f19601f8201168201806040525081019061084e9190611320565b610b02565b600254610860919061151f565b6002556040518181527fb3759d27f7e5907015e80722353339a2091478688cff8495c05a80b51ac210039060200160405180910390a15050505050565b6000546001600160a01b031690565b336108b561089d565b6001600160a01b0316146108db5760405162461bcd60e51b81526004016104f2906114bd565b6040516370a0823160e01b81526000906001600160a01b037f000000000000000000000000000000000000000000000000000000000000000016906370a082319061092a90309060040161129e565b602060405180830381865afa158015610947573d6000803e3d6000fd5b505050506040513d601f19601f8201168201806040525081019061096b9190611320565b9050600081116109c95760405162461bcd60e51b8152602060048201526024808201527f4665654d616e616765723a204e6f2062616c616e636520746f20776974686472604482015263185dd85b60e21b60648201526084016104f2565b7f00000000000000000000000000000000000000000000000000000000000000006001600160a01b031663a9059cbb610a0061089d565b836040518363ffffffff1660e01b8152600401610a1e929190611537565b6020604051808303816000875af1158015610a3d573d6000803e3d6000fd5b505050506040513d601f19601f82011682018060405250810190610a619190611550565b5050565b33610a6e61089d565b6001600160a01b031614610a945760405162461bcd60e51b81526004016104f2906114bd565b6001600160a01b038116610af95760405162461bcd60e51b815260206004820152602660248201527f4f776e61626c653a206e6577206f776e657220697320746865207a65726f206160448201526564647265737360d01b60648201526084016104f2565b61064d81610c11565b6000808060001985870985870292508281108382030391505080600003610b3b5760008411610b3057600080fd5b508290049050610baf565b808411610b4757600080fd5b600084868809851960019081018716968790049682860381900495909211909303600082900391909104909201919091029190911760038402600290811880860282030280860282030280860282030280860282030280860282030280860290910302029150505b9392505050565b610c0c8363a9059cbb60e01b8484604051602401610bd5929190611537565b60408051601f198184030181529190526020810180516001600160e01b03166001600160e01b031990931692909217909152610d6b565b505050565b600080546001600160a01b038381166001600160a01b0319831681178455604051919092169283917f8be0079c531659141344cd1fd0a4f28419497f9722a3daafe3b4186f6b6457e09190a35050565b6040516001600160a01b0380851660248301528316604482015260648101829052610c999085906323b872dd60e01b90608401610bd5565b50505050565b60007f00000000000000000000000000000000000000000000000000000000000000006001600160a01b0316856001600160a01b031614610cf557610ce48585610e3d565b610cee908261151f565b9050610d02565b610cff848261151f565b90505b7f00000000000000000000000000000000000000000000000000000000000000006001600160a01b0316836001600160a01b031614610d5657610d458383610e3d565b610d4f908261151f565b9050610d63565b610d60828261151f565b90505b949350505050565b6000610dc0826040518060400160405280602081526020017f5361666545524332303a206c6f772d6c6576656c2063616c6c206661696c6564815250856001600160a01b0316610fcb9092919063ffffffff16565b805190915015610c0c5780806020019051810190610dde9190611550565b610c0c5760405162461bcd60e51b815260206004820152602a60248201527f5361666545524332303a204552433230206f7065726174696f6e20646964206e6044820152691bdd081cdd58d8d9595960b21b60648201526084016104f2565b600081600003610e4f57506000610fc5565b610e7a837f000000000000000000000000000000000000000000000000000000000000000084610fda565b6040805160e0810182526001600160a01b0385811682527f000000000000000000000000000000000000000000000000000000000000000081166020830190815262ffffff7f00000000000000000000000000000000000000000000000000000000000000008116848601908152306060860190815260808601898152600060a0880181815260c0890191825298516304e45aaf60e01b815288518816600482015295518716602487015292519093166044850152518416606484015290516084830152935160a48201529251811660c484015290917f0000000000000000000000000000000000000000000000000000000000000000909116906304e45aaf9060e4016020604051808303816000875af1158015610f9d573d6000803e3d6000fd5b505050506040513d601f19601f82011682018060405250810190610fc19190611320565b9150505b92915050565b6060610d6384846000856110e4565b600080846001600160a01b031663095ea7b360e01b8585604051602401611002929190611537565b60408051601f198184030181529181526020820180516001600160e01b03166001600160e01b0319909416939093179092529051611040919061159e565b6000604051808303816000865af19150503d806000811461107d576040519150601f19603f3d011682016040523d82523d6000602084013e611082565b606091505b50915091508180156110ac5750805115806110ac5750808060200190518101906110ac9190611550565b6110dd5760405162461bcd60e51b8152602060048201526002602482015261534160f01b60448201526064016104f2565b5050505050565b6060824710156111455760405162461bcd60e51b815260206004820152602660248201527f416464726573733a20696e73756666696369656e742062616c616e636520666f6044820152651c8818d85b1b60d21b60648201526084016104f2565b6001600160a01b0385163b61119c5760405162461bcd60e51b815260206004820152601d60248201527f416464726573733a2063616c6c20746f206e6f6e2d636f6e747261637400000060448201526064016104f2565b600080866001600160a01b031685876040516111b8919061159e565b60006040518083038185875af1925050503d80600081146111f5576040519150601f19603f3d011682016040523d82523d6000602084013e6111fa565b606091505b509150915061120a828286611215565b979650505050505050565b60608315611224575081610baf565b8251156112345782518084602001fd5b8160405162461bcd60e51b81526004016104f291906115ba565b80356001600160a01b038116811461126557600080fd5b919050565b60006020828403121561127c57600080fd5b610baf8261124e565b60006020828403121561129757600080fd5b5035919050565b6001600160a01b0391909116815260200190565b600080604083850312156112c557600080fd5b6112ce8361124e565b946020939093013593505050565b600080600080608085870312156112f257600080fd5b6112fb8561124e565b9350602085013592506113106040860161124e565b9396929550929360600135925050565b60006020828403121561133257600080fd5b5051919050565b634e487b7160e01b600052601160045260246000fd5b60008282101561136157611361611339565b500390565b600060ff821660ff84168082101561138057611380611339565b90039392505050565b600181815b808511156113c45781600019048211156113aa576113aa611339565b808516156113b757918102915b93841c939080029061138e565b509250929050565b6000826113db57506001610fc5565b816113e857506000610fc5565b81600181146113fe576002811461140857611424565b6001915050610fc5565b60ff84111561141957611419611339565b50506001821b610fc5565b5060208310610133831016604e8410600b8410161715611447575081810a610fc5565b6114518383611389565b806000190482111561146557611465611339565b029392505050565b6000610baf60ff8416836113cc565b600081600019048311821515161561149657611496611339565b500290565b6000826114b857634e487b7160e01b600052601260045260246000fd5b500490565b6020808252818101527f4f776e61626c653a2063616c6c6572206973206e6f7420746865206f776e6572604082015260600190565b60208082526013908201527213db9b1e481d985d5b1d0818d85b8818d85b1b606a1b604082015260600190565b6000821982111561153257611532611339565b500190565b6001600160a01b03929092168252602082015260400190565b60006020828403121561156257600080fd5b81518015158114610baf57600080fd5b60005b8381101561158d578181015183820152602001611575565b83811115610c995750506000910152565b600082516115b0818460208701611572565b9190910192915050565b60208152600082518060208401526115d9816040850160208701611572565b601f01601f1916919091016040019291505056fea2646970667358221220a8b0e220b25117964f4aa35df33920cdcc55335f9aa9b54c2b3b4241325e3b9564736f6c634300080d0033",
  "devdoc": {
    "kind": "dev",
    "methods": {
      "owner()": {
        "details": "Returns the address of the current owner."
      },
      "renounceOwnership()": {
        "details": "Leaves the contract without owner. It will not be possible to call `onlyOwner` functions anymore. Can only be called by the current owner. NOTE: Renouncing ownership will leave the contract without an owner, thereby removing any functionality that is only available to the owner."
      },
      "transferOwnership(address)": {
        "details": "Transfers ownership of the contract to a new account (`newOwner`). Can only be called by the current owner."
      },
      "withdrawEmergency()": {
        "details": "Emergency withdraw only called by owner"
      }
    },
    "version": 1
  },
  "userdoc": {
    "kind": "user",
    "methods": {},
    "version": 1
  },
  "storageLayout": {
    "storage": [
      {
        "astId": 525,
        "contract": "contracts/FeeManager.sol:FeeManager",
        "label": "_owner",
        "offset": 0,
        "slot": "0",
        "type": "t_address"
      },
      {
        "astId": 1292,
        "contract": "contracts/FeeManager.sol:FeeManager",
        "label": "rate",
        "offset": 0,
        "slot": "1",
        "type": "t_uint256"
      },
      {
        "astId": 1306,
        "contract": "contracts/FeeManager.sol:FeeManager",
        "label": "accumulatedRewardsPerShare",
        "offset": 0,
        "slot": "2",
        "type": "t_uint256"
      },
      {
        "astId": 1310,
        "contract": "contracts/FeeManager.sol:FeeManager",
        "label": "rewardDebt",
        "offset": 0,
        "slot": "3",
        "type": "t_mapping(t_address,t_uint256)"
      }
    ],
    "types": {
      "t_address": {
        "encoding": "inplace",
        "label": "address",
        "numberOfBytes": "20"
      },
      "t_mapping(t_address,t_uint256)": {
        "encoding": "mapping",
        "key": "t_address",
        "label": "mapping(address => uint256)",
        "numberOfBytes": "32",
        "value": "t_uint256"
      },
      "t_uint256": {
        "encoding": "inplace",
        "label": "uint256",
        "numberOfBytes": "32"
      }
    }
  }
}