{
  "address": "0x1f387D2b8B973b03e719d7BD5356e6d4f68FefF7",
  "abi": [
    {
      "inputs": [
        {
          "internalType": "string",
          "name": "a_",
          "type": "string"
        },
        {
          "internalType": "string",
          "name": "b_",
          "type": "string"
        },
        {
          "internalType": "string",
          "name": "c_",
          "type": "string"
        },
        {
          "internalType": "string",
          "name": "d_",
          "type": "string"
        }
      ],
      "name": "append",
      "outputs": [
        {
          "internalType": "string",
          "name": "",
          "type": "string"
        }
      ],
      "stateMutability": "pure",
      "type": "function"
    },
    {
      "inputs": [
        {
          "internalType": "address",
          "name": "tokenA_",
          "type": "address"
        },
        {
          "internalType": "address",
          "name": "tokenB_",
          "type": "address"
        }
      ],
      "name": "getTokenOrder",
      "outputs": [
        {
          "internalType": "address",
          "name": "token0",
          "type": "address"
        },
        {
          "internalType": "address",
          "name": "token1",
          "type": "address"
        }
      ],
      "stateMutability": "pure",
      "type": "function"
    }
  ],
  "transactionHash": "0xe4bd93060bce029afb8c34e213023680b1944ece0dc9ae7929bfc4ed2090d64f",
  "args": [],
  "numDeployments": 1,
  "solcInputHash": "6135afee21c42705097c5b52db6c6bb8",
  "bytecode": "0x608060405234801561001057600080fd5b50610449806100206000396000f3fe608060405234801561001057600080fd5b50600436106100355760003560e01c8062599e651461003a5780631b931dd214610072575b600080fd5b61004d6100483660046101d6565b610092565b604080516001600160a01b039384168152929091166020830152015b60405180910390f35b6100856100803660046102ac565b6100ab565b6040516100699190610389565b60008061009f84846100c2565b915091505b9250929050565b60606100b985858585610188565b95945050505050565b600080826001600160a01b0316846001600160a01b0316036101185760405162461bcd60e51b815260206004820152600a60248201526939b0b6b2903a37b5b2b760b11b60448201526064015b60405180910390fd5b826001600160a01b0316846001600160a01b03161061013857828461013b565b83835b90925090506001600160a01b0382166100a45760405162461bcd60e51b815260206004820152600f60248201526e6e6f2061646472657373207a65726f60881b604482015260640161010f565b6060848484846040516020016101a194939291906103bc565b6040516020818303038152906040529050949350505050565b80356001600160a01b03811681146101d157600080fd5b919050565b600080604083850312156101e957600080fd5b6101f2836101ba565b9150610200602084016101ba565b90509250929050565b634e487b7160e01b600052604160045260246000fd5b600082601f83011261023057600080fd5b813567ffffffffffffffff8082111561024b5761024b610209565b604051601f8301601f19908116603f0116810190828211818310171561027357610273610209565b8160405283815286602085880101111561028c57600080fd5b836020870160208301376000602085830101528094505050505092915050565b600080600080608085870312156102c257600080fd5b843567ffffffffffffffff808211156102da57600080fd5b6102e68883890161021f565b955060208701359150808211156102fc57600080fd5b6103088883890161021f565b9450604087013591508082111561031e57600080fd5b61032a8883890161021f565b9350606087013591508082111561034057600080fd5b5061034d8782880161021f565b91505092959194509250565b60005b8381101561037457818101518382015260200161035c565b83811115610383576000848401525b50505050565b60208152600082518060208401526103a8816040850160208701610359565b601f01601f19169190910160400192915050565b600085516103ce818460208a01610359565b8551908301906103e2818360208a01610359565b85519101906103f5818360208901610359565b8451910190610408818360208801610359565b01969550505050505056fea2646970667358221220040650aec9fbe6277fbc4b14eb0d89e60b8a23bb859a07238cc6a91ffbf7672964736f6c634300080d0033",
  "devdoc": {
    "kind": "dev",
    "methods": {},
    "version": 1
  },
  "userdoc": {
    "kind": "user",
    "methods": {},
    "version": 1
  },
  "storageLayout": {
    "storage": [],
    "types": null
  }
}