{
  "address": "0x9889bc41e6008DBf6297009D5e55C96217349E42",
  "abi": [
    {
      "inputs": [
        {
          "internalType": "uint256",
          "name": "a",
          "type": "uint256"
        },
        {
          "internalType": "uint256",
          "name": "b",
          "type": "uint256"
        },
        {
          "internalType": "uint256",
          "name": "c",
          "type": "uint256"
        }
      ],
      "name": "checkMulDiv",
      "outputs": [
        {
          "internalType": "uint256",
          "name": "",
          "type": "uint256"
        }
      ],
      "stateMutability": "pure",
      "type": "function"
    },
    {
      "inputs": [
        {
          "internalType": "uint256",
          "name": "current0_",
          "type": "uint256"
        },
        {
          "internalType": "uint256",
          "name": "current1_",
          "type": "uint256"
        },
        {
          "internalType": "uint256",
          "name": "totalSupply_",
          "type": "uint256"
        },
        {
          "internalType": "uint256",
          "name": "amount0Max_",
          "type": "uint256"
        },
        {
          "internalType": "uint256",
          "name": "amount1Max_",
          "type": "uint256"
        }
      ],
      "name": "computeMintAmounts",
      "outputs": [
        {
          "internalType": "uint256",
          "name": "amount0",
          "type": "uint256"
        },
        {
          "internalType": "uint256",
          "name": "amount1",
          "type": "uint256"
        },
        {
          "internalType": "uint256",
          "name": "mintAmount",
          "type": "uint256"
        }
      ],
      "stateMutability": "pure",
      "type": "function"
    },
    {
      "inputs": [
        {
          "internalType": "address",
          "name": "self_",
          "type": "address"
        },
        {
          "internalType": "int24",
          "name": "lowerTick_",
          "type": "int24"
        },
        {
          "internalType": "int24",
          "name": "upperTick_",
          "type": "int24"
        }
      ],
      "name": "getPositionId",
      "outputs": [
        {
          "internalType": "bytes32",
          "name": "positionId",
          "type": "bytes32"
        }
      ],
      "stateMutability": "pure",
      "type": "function"
    },
    {
      "inputs": [
        {
          "components": [
            {
              "internalType": "bytes32",
              "name": "positionId",
              "type": "bytes32"
            },
            {
              "internalType": "uint160",
              "name": "sqrtPriceX96",
              "type": "uint160"
            },
            {
              "internalType": "contract IUniswapV3Pool",
              "name": "pool",
              "type": "address"
            },
            {
              "internalType": "int24",
              "name": "tick",
              "type": "int24"
            },
            {
              "internalType": "int24",
              "name": "lowerTick",
              "type": "int24"
            },
            {
              "internalType": "int24",
              "name": "upperTick",
              "type": "int24"
            }
          ],
          "internalType": "struct PositionUnderlying",
          "name": "positionUnderlying_",
          "type": "tuple"
        }
      ],
      "name": "getUnderlyingBalances",
      "outputs": [
        {
          "internalType": "uint256",
          "name": "amount0",
          "type": "uint256"
        },
        {
          "internalType": "uint256",
          "name": "amount1",
          "type": "uint256"
        },
        {
          "internalType": "uint256",
          "name": "fee0",
          "type": "uint256"
        },
        {
          "internalType": "uint256",
          "name": "fee1",
          "type": "uint256"
        }
      ],
      "stateMutability": "view",
      "type": "function"
    },
    {
      "inputs": [
        {
          "internalType": "uint256",
          "name": "rawFee0_",
          "type": "uint256"
        },
        {
          "internalType": "uint256",
          "name": "rawFee1_",
          "type": "uint256"
        },
        {
          "internalType": "uint16",
          "name": "managerFeeBPS_",
          "type": "uint16"
        }
      ],
      "name": "subtractAdminFees",
      "outputs": [
        {
          "internalType": "uint256",
          "name": "fee0",
          "type": "uint256"
        },
        {
          "internalType": "uint256",
          "name": "fee1",
          "type": "uint256"
        }
      ],
      "stateMutability": "pure",
      "type": "function"
    },
    {
      "inputs": [
        {
          "components": [
            {
              "components": [
                {
                  "internalType": "int24",
                  "name": "lowerTick",
                  "type": "int24"
                },
                {
                  "internalType": "int24",
                  "name": "upperTick",
                  "type": "int24"
                },
                {
                  "internalType": "uint24",
                  "name": "feeTier",
                  "type": "uint24"
                }
              ],
              "internalType": "struct Range[]",
              "name": "ranges",
              "type": "tuple[]"
            },
            {
              "internalType": "contract IUniswapV3Factory",
              "name": "factory",
              "type": "address"
            },
            {
              "internalType": "address",
              "name": "token0",
              "type": "address"
            },
            {
              "internalType": "address",
              "name": "token1",
              "type": "address"
            },
            {
              "internalType": "address",
              "name": "self",
              "type": "address"
            }
          ],
          "internalType": "struct UnderlyingPayload",
          "name": "underlyingPayload_",
          "type": "tuple"
        }
      ],
      "name": "totalUnderlyingWithFees",
      "outputs": [
        {
          "internalType": "uint256",
          "name": "amount0",
          "type": "uint256"
        },
        {
          "internalType": "uint256",
          "name": "amount1",
          "type": "uint256"
        },
        {
          "internalType": "uint256",
          "name": "fee0",
          "type": "uint256"
        },
        {
          "internalType": "uint256",
          "name": "fee1",
          "type": "uint256"
        }
      ],
      "stateMutability": "view",
      "type": "function"
    },
    {
      "inputs": [
        {
          "internalType": "address",
          "name": "pool_",
          "type": "address"
        },
        {
          "components": [
            {
              "internalType": "int24",
              "name": "lowerTick",
              "type": "int24"
            },
            {
              "internalType": "int24",
              "name": "upperTick",
              "type": "int24"
            },
            {
              "internalType": "uint24",
              "name": "feeTier",
              "type": "uint24"
            }
          ],
          "internalType": "struct Range",
          "name": "range_",
          "type": "tuple"
        }
      ],
      "name": "validateTickSpacing",
      "outputs": [
        {
          "internalType": "bool",
          "name": "",
          "type": "bool"
        }
      ],
      "stateMutability": "view",
      "type": "function"
    }
  ],
  "transactionHash": "0x956e8457b0244cbad08665d87bfb88fc7e7783f9bc1180f6a6ee780baa394ab9",
  "args": [],
  "numDeployments": 1,
  "solcInputHash": "09c244172d4e906acb00be1064c308d2",
  "bytecode": "0x608060405234801561001057600080fd5b50610aca806100206000396000f3fe608060405234801561001057600080fd5b506004361061006d5760003560e01c80630b9c571c146100725780631208efca146100aa578063188312ee146100cb57806348c619c7146100ee578063b08602b814610116578063bf08c39114610129578063c30fc38d1461013c575b600080fd5b6100856100803660046105cc565b61016a565b6040805194855260208501939093529183015260608201526080015b60405180910390f35b6100bd6100b8366004610641565b6101f7565b6040519081526020016100a1565b6100de6100d9366004610699565b610292565b60405190151581526020016100a1565b6101016100fc36600461073c565b610338565b604080519283526020830191909152016100a1565b61008561012436600461077c565b6103cd565b6100bd610137366004610794565b61040a565b61014f61014a3660046107c0565b610417565b604080519384526020840192909252908201526060016100a1565b60008060008073bea63eC53A49b4176DD540042DD6fb60CB3f188863e56f4d91866040518263ffffffff1660e01b81526004016101a79190610876565b608060405180830381865af41580156101c4573d6000803e3d6000fd5b505050506040513d601f19601f820116820180604052508101906101e89190610945565b93509350935093509193509193565b60405163090477e560e11b81526001600160a01b0384166004820152600283810b602483015282900b60448201526000907364b8bE0ECEf7741b2aE8E04E4C6443aD53138cdc90631208efca90606401602060405180830381865af4158015610264573d6000803e3d6000fd5b505050506040513d601f19601f82011682018060405250810190610288919061097b565b90505b9392505050565b604080516303580c4160e51b81526001600160a01b03841660048201528251600290810b60248301526020840151900b60448201529082015162ffffff166064820152600090730df69f1e26a5fAC05747Fa54b3147B4b26d0934390636b01882090608401602060405180830381865af4158015610314573d6000803e3d6000fd5b505050506040513d601f19601f8201168201806040525081019061028b9190610994565b6040516348c619c760e01b8152600481018490526024810183905261ffff82166044820152600090819073bea63eC53A49b4176DD540042DD6fb60CB3f1888906348c619c7906064016040805180830381865af415801561039d573d6000803e3d6000fd5b505050506040513d601f19601f820116820180604052508101906103c191906109b6565b91509150935093915050565b60008060008073bea63eC53A49b4176DD540042DD6fb60CB3f1888633ba56978866040518263ffffffff1660e01b81526004016101a791906109da565b60006102888484846104d5565b60405163c30fc38d60e01b815260048101869052602481018590526044810184905260648101839052608481018290526000908190819073bea63eC53A49b4176DD540042DD6fb60CB3f18889063c30fc38d9060a401602060405180830381865af415801561048a573d6000803e3d6000fd5b505050506040513d601f19601f820116820180604052508101906104ae919061097b565b90506104bb818988610583565b92506104c8818888610583565b9150955095509592505050565b600080806000198587098587029250828110838203039150508060000361050e576000841161050357600080fd5b50829004905061028b565b80841161051a57600080fd5b60008486880960026001871981018816978890046003810283188082028403028082028403028082028403028082028403028082028403029081029092039091026000889003889004909101858311909403939093029303949094049190911702949350505050565b60006105908484846104d5565b9050600082806105a2576105a2610a57565b848609111561028b5760001981106105b957600080fd5b806105c381610a6d565b95945050505050565b6000602082840312156105de57600080fd5b813567ffffffffffffffff8111156105f557600080fd5b820160a0818503121561028b57600080fd5b6001600160a01b038116811461061c57600080fd5b50565b803561062a81610607565b919050565b8035600281900b811461062a57600080fd5b60008060006060848603121561065657600080fd5b833561066181610607565b925061066f6020850161062f565b915061067d6040850161062f565b90509250925092565b803562ffffff8116811461062a57600080fd5b60008082840360808112156106ad57600080fd5b83356106b881610607565b92506060601f19820112156106cc57600080fd5b506040516060810181811067ffffffffffffffff821117156106fe57634e487b7160e01b600052604160045260246000fd5b60405261070d6020850161062f565b815261071b6040850161062f565b602082015261072c60608501610686565b6040820152809150509250929050565b60008060006060848603121561075157600080fd5b8335925060208401359150604084013561ffff8116811461077157600080fd5b809150509250925092565b600060c0828403121561078e57600080fd5b50919050565b6000806000606084860312156107a957600080fd5b505081359360208301359350604090920135919050565b600080600080600060a086880312156107d857600080fd5b505083359560208501359550604085013594606081013594506080013592509050565b8183526000602080850194508260005b8581101561085e5761081c8261062f565b600281810b895261082e85850161062f565b900b8885015250604062ffffff610846848301610686565b1690880152606096870196919091019060010161080b565b509495945050505050565b6001600160a01b03169052565b6020815260008235601e1984360301811261089057600080fd5b8301803567ffffffffffffffff8111156108a957600080fd5b6060810236038513156108bb57600080fd5b60a060208501526108d360c0850182602085016107fb565b9150506108e26020850161061f565b6108ef6040850182610869565b506108fc6040850161061f565b6109096060850182610869565b506109166060850161061f565b6109236080850182610869565b506109306080850161061f565b61093d60a0850182610869565b509392505050565b6000806000806080858703121561095b57600080fd5b505082516020840151604085015160609095015191969095509092509050565b60006020828403121561098d57600080fd5b5051919050565b6000602082840312156109a657600080fd5b8151801515811461028b57600080fd5b600080604083850312156109c957600080fd5b505080516020909101519092909150565b8135815260c0810160208301356109f081610607565b6001600160a01b039081166020840152604084013590610a0f82610607565b166040830152610a216060840161062f565b60020b6060830152610a356080840161062f565b60020b6080830152610a4960a0840161062f565b60020b60a083015292915050565b634e487b7160e01b600052601260045260246000fd5b600060018201610a8d57634e487b7160e01b600052601160045260246000fd5b506001019056fea264697066735822122095d820fa085e92831045bea97d28407f1e76ba650fd820de5375a6e36d8d5b3264736f6c634300080d0033",
  "deployedBytecode": "0x608060405234801561001057600080fd5b506004361061006d5760003560e01c80630b9c571c146100725780631208efca146100aa578063188312ee146100cb57806348c619c7146100ee578063b08602b814610116578063bf08c39114610129578063c30fc38d1461013c575b600080fd5b6100856100803660046105cc565b61016a565b6040805194855260208501939093529183015260608201526080015b60405180910390f35b6100bd6100b8366004610641565b6101f7565b6040519081526020016100a1565b6100de6100d9366004610699565b610292565b60405190151581526020016100a1565b6101016100fc36600461073c565b610338565b604080519283526020830191909152016100a1565b61008561012436600461077c565b6103cd565b6100bd610137366004610794565b61040a565b61014f61014a3660046107c0565b610417565b604080519384526020840192909252908201526060016100a1565b60008060008073__$3d23d8578387a47facd93bb77f6fe6e81b$__63e56f4d91866040518263ffffffff1660e01b81526004016101a79190610876565b608060405180830381865af41580156101c4573d6000803e3d6000fd5b505050506040513d601f19601f820116820180604052508101906101e89190610945565b93509350935093509193509193565b60405163090477e560e11b81526001600160a01b0384166004820152600283810b602483015282900b604482015260009073__$b131e44167300e1b6d47510635310686a7$__90631208efca90606401602060405180830381865af4158015610264573d6000803e3d6000fd5b505050506040513d601f19601f82011682018060405250810190610288919061097b565b90505b9392505050565b604080516303580c4160e51b81526001600160a01b03841660048201528251600290810b60248301526020840151900b60448201529082015162ffffff16606482015260009073__$57c880716d25c772e0b1e547659075b66d$__90636b01882090608401602060405180830381865af4158015610314573d6000803e3d6000fd5b505050506040513d601f19601f8201168201806040525081019061028b9190610994565b6040516348c619c760e01b8152600481018490526024810183905261ffff82166044820152600090819073__$3d23d8578387a47facd93bb77f6fe6e81b$__906348c619c7906064016040805180830381865af415801561039d573d6000803e3d6000fd5b505050506040513d601f19601f820116820180604052508101906103c191906109b6565b91509150935093915050565b60008060008073__$3d23d8578387a47facd93bb77f6fe6e81b$__633ba56978866040518263ffffffff1660e01b81526004016101a791906109da565b60006102888484846104d5565b60405163c30fc38d60e01b815260048101869052602481018590526044810184905260648101839052608481018290526000908190819073__$3d23d8578387a47facd93bb77f6fe6e81b$__9063c30fc38d9060a401602060405180830381865af415801561048a573d6000803e3d6000fd5b505050506040513d601f19601f820116820180604052508101906104ae919061097b565b90506104bb818988610583565b92506104c8818888610583565b9150955095509592505050565b600080806000198587098587029250828110838203039150508060000361050e576000841161050357600080fd5b50829004905061028b565b80841161051a57600080fd5b60008486880960026001871981018816978890046003810283188082028403028082028403028082028403028082028403028082028403029081029092039091026000889003889004909101858311909403939093029303949094049190911702949350505050565b60006105908484846104d5565b9050600082806105a2576105a2610a57565b848609111561028b5760001981106105b957600080fd5b806105c381610a6d565b95945050505050565b6000602082840312156105de57600080fd5b813567ffffffffffffffff8111156105f557600080fd5b820160a0818503121561028b57600080fd5b6001600160a01b038116811461061c57600080fd5b50565b803561062a81610607565b919050565b8035600281900b811461062a57600080fd5b60008060006060848603121561065657600080fd5b833561066181610607565b925061066f6020850161062f565b915061067d6040850161062f565b90509250925092565b803562ffffff8116811461062a57600080fd5b60008082840360808112156106ad57600080fd5b83356106b881610607565b92506060601f19820112156106cc57600080fd5b506040516060810181811067ffffffffffffffff821117156106fe57634e487b7160e01b600052604160045260246000fd5b60405261070d6020850161062f565b815261071b6040850161062f565b602082015261072c60608501610686565b6040820152809150509250929050565b60008060006060848603121561075157600080fd5b8335925060208401359150604084013561ffff8116811461077157600080fd5b809150509250925092565b600060c0828403121561078e57600080fd5b50919050565b6000806000606084860312156107a957600080fd5b505081359360208301359350604090920135919050565b600080600080600060a086880312156107d857600080fd5b505083359560208501359550604085013594606081013594506080013592509050565b8183526000602080850194508260005b8581101561085e5761081c8261062f565b600281810b895261082e85850161062f565b900b8885015250604062ffffff610846848301610686565b1690880152606096870196919091019060010161080b565b509495945050505050565b6001600160a01b03169052565b6020815260008235601e1984360301811261089057600080fd5b8301803567ffffffffffffffff8111156108a957600080fd5b6060810236038513156108bb57600080fd5b60a060208501526108d360c0850182602085016107fb565b9150506108e26020850161061f565b6108ef6040850182610869565b506108fc6040850161061f565b6109096060850182610869565b506109166060850161061f565b6109236080850182610869565b506109306080850161061f565b61093d60a0850182610869565b509392505050565b6000806000806080858703121561095b57600080fd5b505082516020840151604085015160609095015191969095509092509050565b60006020828403121561098d57600080fd5b5051919050565b6000602082840312156109a657600080fd5b8151801515811461028b57600080fd5b600080604083850312156109c957600080fd5b505080516020909101519092909150565b8135815260c0810160208301356109f081610607565b6001600160a01b039081166020840152604084013590610a0f82610607565b166040830152610a216060840161062f565b60020b6060830152610a356080840161062f565b60020b6080830152610a4960a0840161062f565b60020b60a083015292915050565b634e487b7160e01b600052601260045260246000fd5b600060018201610a8d57634e487b7160e01b600052601160045260246000fd5b506001019056fea264697066735822122095d820fa085e92831045bea97d28407f1e76ba650fd820de5375a6e36d8d5b3264736f6c634300080d0033",
  "libraries": {
    "Pool": "0x0df69f1e26a5fAC05747Fa54b3147B4b26d09343",
    "Position": "0x64b8bE0ECEf7741b2aE8E04E4C6443aD53138cdc",
    "Underlying": "0xbea63eC53A49b4176DD540042DD6fb60CB3f1888"
  },
  "devdoc": {
    "kind": "dev",
    "methods": {},
    "version": 1
  },
  "userdoc": {
    "kind": "user",
    "methods": {},
    "version": 1
  },
  "storageLayout": {
    "storage": [],
    "types": null
  }
}