{
  "address": "0xF85CEFeeDa9A24Ec54A644028997Df1d04CBeFdF",
  "abi": [
    {
      "inputs": [
        {
          "internalType": "address",
          "name": "_aggregationRouter",
          "type": "address"
        }
      ],
      "stateMutability": "nonpayable",
      "type": "constructor"
    },
    {
      "inputs": [],
      "name": "AGGREGATION_ROUTER",
      "outputs": [
        {
          "internalType": "address",
          "name": "",
          "type": "address"
        }
      ],
      "stateMutability": "view",
      "type": "function"
    },
    {
      "inputs": [],
      "name": "MINIMUM_AMOUNT",
      "outputs": [
        {
          "internalType": "uint256",
          "name": "",
          "type": "uint256"
        }
      ],
      "stateMutability": "view",
      "type": "function"
    },
    {
      "inputs": [
        {
          "internalType": "bool",
          "name": "success",
          "type": "bool"
        },
        {
          "internalType": "bytes",
          "name": "data",
          "type": "bytes"
        },
        {
          "internalType": "string",
          "name": "errorMessage",
          "type": "string"
        }
      ],
      "name": "propagateError",
      "outputs": [],
      "stateMutability": "pure",
      "type": "function"
    },
    {
      "inputs": [
        {
          "internalType": "address",
          "name": "vault",
          "type": "address"
        },
        {
          "internalType": "address",
          "name": "inputToken",
          "type": "address"
        },
        {
          "internalType": "uint256",
          "name": "tokenInAmount",
          "type": "uint256"
        },
        {
          "internalType": "uint256",
          "name": "mintAmount",
          "type": "uint256"
        },
        {
          "internalType": "bytes",
          "name": "token0",
          "type": "bytes"
        },
        {
          "internalType": "bytes",
          "name": "token1",
          "type": "bytes"
        }
      ],
      "name": "zapIn",
      "outputs": [],
      "stateMutability": "nonpayable",
      "type": "function"
    }
  ],
  "transactionHash": "0x7d18c5cf5d68a0edaeaecf3ebd189f96c9aa3d9a0683010f5d31933716953a32",
  "args": [
    "0x6131B5fae19EA4f9D964eAc0408E4408b66337b5"
  ],
  "numDeployments": 1,
  "solcInputHash": "52bfcb8f558f78d3e70e82d011691b7b",
  "bytecode": "0x60a060405234801561001057600080fd5b5060405161132f38038061132f83398101604081905261002f91610040565b6001600160a01b0316608052610070565b60006020828403121561005257600080fd5b81516001600160a01b038116811461006957600080fd5b9392505050565b60805161129761009860003960008181605601528181610ac70152610af001526112976000f3fe608060405234801561001057600080fd5b506004361061004c5760003560e01c80630621153b14610051578063257d9bb81461008e57806393cf97f8146100a5578063f026e2c8146100ba575b600080fd5b6100787f000000000000000000000000000000000000000000000000000000000000000081565b6040516100859190610f38565b60405180910390f35b6100976103e881565b604051908152602001610085565b6100b86100b3366004611006565b6100cd565b005b6100b86100c83660046110a5565b61010b565b826101065781516000036100fe578060405162461bcd60e51b81526004016100f5919061116c565b60405180910390fd5b815182602001fd5b505050565b6103e88410156101695760405162461bcd60e51b8152602060048201526024808201527f57657765737761703a20496e7369676e69666963616e7420696e70757420616d6044820152631bdd5b9d60e21b60648201526084016100f5565b61017e6001600160a01b038616333087610194565b61018c868687868686610205565b505050505050565b6040516001600160a01b03808516602483015283166044820152606481018290526101ff9085906323b872dd60e01b906084015b60408051601f198184030181529190526020810180516001600160e01b03166001600160e01b0319909316929092179091526109a7565b50505050565b8560606001600160a01b038087169088160361039f57604080516003808252608082019092529060208201606080368337019050509050816001600160a01b0316630dfe16816040518163ffffffff1660e01b8152600401602060405180830381865afa15801561027a573d6000803e3d6000fd5b505050506040513d601f19601f8201168201806040525081019061029e919061119f565b816000815181106102b1576102b16111bc565b60200260200101906001600160a01b031690816001600160a01b031681525050816001600160a01b031663d21220a76040518163ffffffff1660e01b8152600401602060405180830381865afa15801561030f573d6000803e3d6000fd5b505050506040513d601f19601f82011682018060405250810190610333919061119f565b81600181518110610346576103466111bc565b60200260200101906001600160a01b031690816001600160a01b031681525050868160028151811061037a5761037a6111bc565b60200260200101906001600160a01b031690816001600160a01b031681525050610553565b60408051600480825260a082019092529060208201608080368337019050509050816001600160a01b0316630dfe16816040518163ffffffff1660e01b8152600401602060405180830381865afa1580156103fe573d6000803e3d6000fd5b505050506040513d601f19601f82011682018060405250810190610422919061119f565b81600081518110610435576104356111bc565b60200260200101906001600160a01b031690816001600160a01b031681525050816001600160a01b031663d21220a76040518163ffffffff1660e01b8152600401602060405180830381865afa158015610493573d6000803e3d6000fd5b505050506040513d601f19601f820116820180604052508101906104b7919061119f565b816001815181106104ca576104ca6111bc565b60200260200101906001600160a01b031690816001600160a01b03168152505086816002815181106104fe576104fe6111bc565b60200260200101906001600160a01b031690816001600160a01b0316815250508581600381518110610532576105326111bc565b60200260200101906001600160a01b031690816001600160a01b0316815250505b61055c87610a79565b61057f81600081518110610572576105726111bc565b6020026020010151610a79565b61059581600181518110610572576105726111bc565b806000815181106105a8576105a86111bc565b60200260200101516001600160a01b0316876001600160a01b0316146105d4576105d28785610abf565b505b806001815181106105e7576105e76111bc565b60200260200101516001600160a01b0316866001600160a01b031614610613576106118684610abf565b505b61067e826001600160a01b0316630dfe16816040518163ffffffff1660e01b8152600401602060405180830381865afa158015610654573d6000803e3d6000fd5b505050506040513d601f19601f82011682018060405250810190610678919061119f565b89610c0d565b6106bf826001600160a01b031663d21220a76040518163ffffffff1660e01b8152600401602060405180830381865afa158015610654573d6000803e3d6000fd5b6040516394bf804d60e01b8152600481018690523360248201526001600160a01b038316906394bf804d9060440160408051808303816000875af115801561070b573d6000803e3d6000fd5b505050506040513d601f19601f8201168201806040525081019061072f91906111d2565b50506000826001600160a01b0316630dfe16816040518163ffffffff1660e01b8152600401602060405180830381865afa158015610771573d6000803e3d6000fd5b505050506040513d601f19601f82011682018060405250810190610795919061119f565b6001600160a01b03166370a08231306040518263ffffffff1660e01b81526004016107c09190610f38565b602060405180830381865afa1580156107dd573d6000803e3d6000fd5b505050506040513d601f19601f8201168201806040525081019061080191906111f6565b90508015610880576108803382856001600160a01b0316630dfe16816040518163ffffffff1660e01b8152600401602060405180830381865afa15801561084c573d6000803e3d6000fd5b505050506040513d601f19601f82011682018060405250810190610870919061119f565b6001600160a01b03169190610c27565b6000836001600160a01b031663d21220a76040518163ffffffff1660e01b8152600401602060405180830381865afa1580156108c0573d6000803e3d6000fd5b505050506040513d601f19601f820116820180604052508101906108e4919061119f565b6001600160a01b03166370a08231306040518263ffffffff1660e01b815260040161090f9190610f38565b602060405180830381865afa15801561092c573d6000803e3d6000fd5b505050506040513d601f19601f8201168201806040525081019061095091906111f6565b9050801561099b5761099b3382866001600160a01b031663d21220a76040518163ffffffff1660e01b8152600401602060405180830381865afa15801561084c573d6000803e3d6000fd5b50505050505050505050565b60006109fc826040518060400160405280602081526020017f5361666545524332303a206c6f772d6c6576656c2063616c6c206661696c6564815250856001600160a01b0316610c469092919063ffffffff16565b8051909150156101065780806020019051810190610a1a919061120f565b6101065760405162461bcd60e51b815260206004820152602a60248201527f5361666545524332303a204552433230206f7065726174696f6e20646964206e6044820152691bdd081cdd58d8d9595960b21b60648201526084016100f5565b610abc81604051602401610a8d9190610f38565b60408051601f198184030181529190526020810180516001600160e01b031663161765e160e11b179052610c5f565b50565b6000610aeb837f0000000000000000000000000000000000000000000000000000000000000000610c0d565b6000807f00000000000000000000000000000000000000000000000000000000000000006001600160a01b031684604051610b26919061122c565b6000604051808303816000865af19150503d8060008114610b63576040519150601f19603f3d011682016040523d82523d6000602084013e610b68565b606091505b5091509150610b7682610c68565b610b9e82826040518060400160405280600581526020016435bcb132b960d91b8152506100cd565b600182151514610bed5760405162461bcd60e51b815260206004820152601a60248201527931b0b63634b7339025bcb132b91033b7ba1030b71032b93937b960311b60448201526064016100f5565b600081806020019051810190610c0391906111f6565b9695505050505050565b610c236001600160a01b03831682600019610ca9565b5050565b6101068363a9059cbb60e01b84846040516024016101c8929190611248565b6060610c558484600085610dad565b90505b9392505050565b610abc81610ede565b6040518115156024820152610abc9060440160408051601f198184030181529190526020810180516001600160e01b03166332458eed60e01b179052610c5f565b801580610d235750604051636eb1769f60e11b81523060048201526001600160a01b03838116602483015284169063dd62ed3e90604401602060405180830381865afa158015610cfd573d6000803e3d6000fd5b505050506040513d601f19601f82011682018060405250810190610d2191906111f6565b155b610d8e5760405162461bcd60e51b815260206004820152603660248201527f5361666545524332303a20617070726f76652066726f6d206e6f6e2d7a65726f60448201527520746f206e6f6e2d7a65726f20616c6c6f77616e636560501b60648201526084016100f5565b6101068363095ea7b360e01b84846040516024016101c8929190611248565b606082471015610e0e5760405162461bcd60e51b815260206004820152602660248201527f416464726573733a20696e73756666696369656e742062616c616e636520666f6044820152651c8818d85b1b60d21b60648201526084016100f5565b6001600160a01b0385163b610e655760405162461bcd60e51b815260206004820152601d60248201527f416464726573733a2063616c6c20746f206e6f6e2d636f6e747261637400000060448201526064016100f5565b600080866001600160a01b03168587604051610e81919061122c565b60006040518083038185875af1925050503d8060008114610ebe576040519150601f19603f3d011682016040523d82523d6000602084013e610ec3565b606091505b5091509150610ed3828286610eff565b979650505050505050565b60006a636f6e736f6c652e6c6f679050600080835160208501845afa505050565b60608315610f0e575081610c58565b825115610f1e5782518084602001fd5b8160405162461bcd60e51b81526004016100f5919061116c565b6001600160a01b0391909116815260200190565b8015158114610abc57600080fd5b634e487b7160e01b600052604160045260246000fd5b600067ffffffffffffffff80841115610f8b57610f8b610f5a565b604051601f8501601f19908116603f01168101908282118183101715610fb357610fb3610f5a565b81604052809350858152868686011115610fcc57600080fd5b858560208301376000602087830101525050509392505050565b600082601f830112610ff757600080fd5b610c5883833560208501610f70565b60008060006060848603121561101b57600080fd5b833561102681610f4c565b9250602084013567ffffffffffffffff8082111561104357600080fd5b61104f87838801610fe6565b9350604086013591508082111561106557600080fd5b508401601f8101861361107757600080fd5b61108686823560208401610f70565b9150509250925092565b6001600160a01b0381168114610abc57600080fd5b60008060008060008060c087890312156110be57600080fd5b86356110c981611090565b955060208701356110d981611090565b94506040870135935060608701359250608087013567ffffffffffffffff8082111561110457600080fd5b6111108a838b01610fe6565b935060a089013591508082111561112657600080fd5b5061113389828a01610fe6565b9150509295509295509295565b60005b8381101561115b578181015183820152602001611143565b838111156101ff5750506000910152565b602081526000825180602084015261118b816040850160208701611140565b601f01601f19169190910160400192915050565b6000602082840312156111b157600080fd5b8151610c5881611090565b634e487b7160e01b600052603260045260246000fd5b600080604083850312156111e557600080fd5b505080516020909101519092909150565b60006020828403121561120857600080fd5b5051919050565b60006020828403121561122157600080fd5b8151610c5881610f4c565b6000825161123e818460208701611140565b9190910192915050565b6001600160a01b0392909216825260208201526040019056fea26469706673582212206e26211c91155019eb43c5fc820a10754dfd1745fc246cba30dd099fa011a1e164736f6c634300080d0033",
  "devdoc": {
    "kind": "dev",
    "methods": {},
    "version": 1
  },
  "userdoc": {
    "kind": "user",
    "methods": {},
    "version": 1
  },
  "storageLayout": {
    "storage": [],
    "types": null
  }
}